:020000040800F2
:1000000088E80020593E0008E5020008E7020008E1
:10001000E9020008EB020008ED0200080000000001
:10002000000000000000000000000000EF020008D7
:10003000F102000800000000F3020008F5020008C9
:10004000733E0008733E0008733E0008733E0008CC
:10005000733E0008733E0008733E0008733E0008BC
:10006000733E0008733E0008733E0008733E0008AC
:10007000733E0008733E0008733E0008733E00089C
:10008000733E0008733E0008733E0008733E00088C
:10009000733E0008733E0008733E0008733E00087C
:1000A000733E0008733E0008733E0008733E00086C
:1000B000733E0008733E0008733E0008733E00085C
:1000C000733E0008733E0008733E0008733E00084C
:1000D000733E0008733E0008733E0008733E00083C
:1000E000733E0008733E0008733E0008733E00082C
:1000F000733E0008733E0008733E0008733E00081C
:10010000733E0008F9020008733E0008733E0008C1
:10011000733E0008733E0008733E0008733E0008FB
:10012000733E0008733E0008733E0008733E0008EB
:10013000DFF80CD006F0F6FE004800474501000845
:1001400088E8002082B001F077FC03F063FE02F043
:10015000FBFE01F075FD002137A2084601F0FCFE10
:1001600038A2C821282001F0F7FE642138A20846F1
:1001700001F0F2FE002339A20A21142003F038F91D
:100180004FF6FF730093002337A21E21142003F0C3
:100190004DFC002334A23221142003F00EFD002375
:1001A0004FF6FF724621142003F05DFA002333A2BC
:1001B0005A21142003F093FA002333A20A214FF4AA
:1001C000967003F028FA4FF6FF730093FF2330A2D6
:1001D0000A214FF48C7003F088FC002322A20A212C
:1001E0004FF4827003F044FD002324A20A21F02082
:1001F00003F09DFA00232CA20A21DC2003F090FDDD
:100200004FF6FF73009300232DA29621142003F0D4
:100210000DFC2EA3009300214FF4A073F02208469A
:1002200002F03AFB4FF6FF73009300232AA29621B7
:10023000142003F0FBFBFEE72F706963332E626D21
:10024000700000002F706963322E626D7000000034
:100250002F706963312E626D700000006C43445F43
:1002600044454D4F00000000B0A2C4AAC2DBCCB38D
:10027000D2B0BBF0D7A8C7F8000000004C4F5645DD
:100280002053544D3332000052756E696E67000082
:10029000B0A2C4AAC2DBCCB3D2B0BBF0D7A8C7F817
:1002A000BBB6D3ADC4E30000BBB6D3ADCAB9D3C3AC
:1002B000D2B0BBF073746D3332BFAAB7A2B0E50001
:1002C000D5FDD4DABDD8CDBC000000002F6D795328
:1002D000637265656E000000BDD8CDBCCDEAB3C9C0
:1002E000000000007047FEE7FEE7FEE7FEE770470C
:1002F0007047704703F0A3BD01F0B5BA38B50020D0
:1003000004F00BFA002004F00BFA04F0D7F90021F6
:100310004FF4806004F074F94FF4F850ADF8000029
:1003200004248DF803406946F84803F076FFADF8E1
:1003300000406946F64803F070FF38BD08B54FF439
:10034000C06003F09BFD31208DF8000000208DF887
:1003500001008DF8020001208DF80300684603F0CB
:1003600094FD08BD2DE9F14F002782B0384604F016
:100370000FFA10F0007F1EBF0E2003B0BDE8F08F13
:100380000024E44D009708200197286010204FF0CA
:100390004008C5E901084FF48069C5E9037928469A
:1003A00004F0D8F9DC4E706B10F0450FFBD040F232
:1003B000FF5AC6F838A07069DFF860B300EA0B0096
:1003C00010F0FF001CBF03B0BDE8F08FD448806878
:1003D000000428603720C5E90108C5E90379CD4844
:1003E00004F0B8F9706B10F0450FFBD0C6F838A0D8
:1003F000706900EA0B0010F0FF001CBF03B0BDE8FD
:10040000F08F4FF0FF31C748016008214160302173
:1004100081600221C0E903170121416104F0BBF9A9
:100420003320C5E90070C5F81090C5E90287B948C6
:1004300004F090F9706B10F0450FFBD040F2FF50C4
:10044000B063716911F008001CBF03B0BDE8F08F04
:10045000706B40F22A6A10EA0A0F08BFEB460FD110
:100460004FF4001004F0DDF930B104F0B6F94BF8A8
:100470002400641C012C03D8706B10EA0A0FEFD023
:10048000082004F0CEF930B1082004F0D2F903B00E
:100490000420BDE8F08F022004F0C3F930B102203F
:1004A00004F0C7F903B00220BDE8F08F202004F06B
:1004B000B8F930B1202004F0BCF903B00620BDE843
:1004C000F08F4FF4007004F0ACF938B14FF40070C5
:1004D00004F0AFF903B00720BDE8F08F40F2FF5001
:1004E00004F0A7F900980299062400BA012938D02F
:1004F00010F4803F66D08A48806800042860372066
:10050000C5E90108C5E90379824804F023F9706B55
:1005100010F0450FFBD040F2FF5AC6F838A07069C2
:10052000DFF8F8B100EA0B0010F0FF001CBF03B0C9
:10053000BDE8F08FC5E90074C5F81090C5E90287E1
:10054000744804F007F9706B10F0450FFBD000BF42
:10055000C6F838A0706903B000EA0B00C0B2BDE86D
:10056000F08F10F4802F2DD06D4880680004286033
:100570003720C5E90108C5E90379664804F0EAF8BF
:10058000706B10F0450FFBD040F2FF5AC6F838A050
:100590007069DFF888B100EA0B0010F0FF001CBFA3
:1005A00003B0BDE8F08F0220C5F81090C5E9000443
:1005B000C5E90287574804F0CDF8706B10F0450F7D
:1005C000FBD0C5E703B02520BDE8F08F2DE9F04151
:1005D0000146534800264068032813D000281CBF5A
:1005E000012802282BD1B1F5805F0BD00024012710
:1005F0004D4DB1F5006F08D00020FFF7B3FE0600A7
:1006000014D01CE02720BDE8F0810120FFF7AAFEEE
:10061000060014D12F752C604FF400606C60C5E9A2
:10062000024041482C6104F056F808E02F752C6018
:100630006C60AC60EC603C482C6104F04CF83046D7
:10064000BDE8F081334910B50860072048604020BC
:1006500088600020C8604FF480600861084604F09C
:1006600079F82D48416B11F0450FFBD040F2FF5156
:100670008163406900F0080010BD2DE9F0032849AE
:100680002A4C4F6880F84E708968A0F84C10216899
:100690000A0E93090370C2F38303437002F003024E
:1006A00082700A0CC2700A0A02714171D4F804C047
:1006B0004FEA1C610901C180C288CCF3074101F0F7
:1006C0000F0342EA1111C1800372CCF30721CA095A
:1006D0004272C1F380128272C1F34012C272C1F33E
:1006E000001202730026467322460125D2F80880C4
:1006F000002FC8F30743C8F307294FEA186218BF51
:10070000012F15D0022F44D056E000000010014008
:1007100000140140180300200080014008E0FFFDA4
:10072000000000202C030020000300208002002095
:100730008907090D01610CF0FF01D0F810C04CEAE7
:10074000810101610169C2F3C20C41EA92110161A8
:1007500080F814C002F00701417559098175C3F38F
:100760008201C1759907490F0176027E494642EA26
:10077000D9120276026990F818C0037A521C0CF163
:10078000020C05FA03F302FA0CF25A438364426442
:1007900012E04FEA8C61890A0161016941EA022194
:1007A0000161026949461A4302610269521CD2047E
:1007B00042644FF400728264C1F38012427689066B
:1007C000490E8176827E08F0FF0142EAD1128276DC
:1007D00001F07F01C176E268110ECB090377C1F306
:1007E00041134377C1F3820383778907090FC177E8
:1007F000C37FC2F3074143EA9113C377C1F34013A8
:1008000080F8203080F8216001F0010180F822108A
:10081000C2F30721CB0980F82330C1F3801380F89D
:100820002430C1F3401380F82530C1F3001380F861
:100830002630C1F3810380F8273001F0030180F8EE
:100840002810C2F3460180F8291080F82A50FF4A88
:1008500011680B0E80F82C30C1F307431B02C385CF
:10086000B0F82EC0C1F307234CEA0303C385090681
:1008700001635168D0F830C00B0E4CEA03430363A8
:10088000D0F830C0C1F307434CEA03230363D0F828
:1008900030C0C1F307234CEA0303036380F834102C
:1008A00091680B0E80F83530C1F307431B06836354
:1008B000D0F838C0C1F307234CEA03438363836B4A
:1008C000C9B243EA01218163D168836B43EA1162B3
:1008D000826390F83C30C1F3074243EA121380F878
:1008E0003C301207120DC287C38FC1F307221A438F
:1008F000C287C1F3460180F8401080F8415030466D
:10090000BDE8F00370472DE9F05F4FF0010803F0F8
:1009100010FF002804BF2520BDE8F09FCC4F786869
:1009200004287ED0CB4C4FF0C00A00260220C4F829
:1009300008A0C4E900604FF48069C4E90369204657
:1009400003F008FFC44D686B10F0450F03D1686BCE
:1009500010F0450FFBD010F0040F7ED110F0010F06
:100960007CD140F2FF5003F064FF002003F010FF41
:10097000DFF8D8B2CBF80000042003F009FFCBF871
:100980000400082003F004FFCBF808000C2003F05B
:10099000FFFECBF80C007868002818BF012803D0B0
:1009A000062818BF022846D10320C4E90060402071
:1009B000C4F81090C4E90206A64803F0CBFE686BA9
:1009C00010F0450F03D1686B10F0450FFBD010F00D
:1009D000040F1CBF0324042003D000BF03F029FF31
:1009E00021E010F0010F1CBF01242046F6D103F0D6
:1009F000CBFE032814D140F2FF5003F01AFF002071
:100A000003F0C6FE10F4604F08BF4FEA104812D042
:100A100010F4005F18BF132405D110F4804F05D0E7
:100A200000E04CE010242046BDE8F09F10F4004F99
:100A300018BF0F24F7D17868042840D01FFA88F037
:100A4000B860000420600920C4E9010AC4E9036910
:100A5000804803F07FFE686B01E00AE013E010F0CD
:100A6000450F03D1686B10F0450FFBD010F0040F59
:100A700006D00324042003F0DCFE2046BDE8F09FEE
:100A800010F0010F06D00124204603F0D2FE2046CC
:100A9000BDE8F09F40F2FF5003F0CBFE002003F0D2
:100AA00077FE6E4C2060042003F072FE6060082028
:100AB00003F06EFEA0600C2003F06AFEE0600020F0
:100AC000BDE8F09F2DE9F05F4FF000096448B221C6
:100AD0004F460175C0F80090C0F80490C0F8089027
:100AE000C0F80C90CB464D46C0F8109003F0F3FDD3
:100AF000032003F015FE012003F00FFE554C4FF4C8
:100B0000806A204625606560A560C4E9035A03F049
:100B100021FE4FF48036802003F083FEF0B3F6B35D
:100B200040F2FF5003F085FE4FF4D570206008209E
:100B30004026C4E90106C4E9035A464803F00AFE08
:100B4000DFF81481B00200BFD8F8341011F0450F5F
:100B50003CD010B111F0040F3DD0042003F069FE29
:100B60003720C4E90050C4F810A0C4E90265394830
:100B700003F0F0FDD8F8340010F0450FFAD040F241
:100B8000FF50C8F83800D8F8140032483724C0E9BC
:100B90000054C0F810A0C0E9026501E011E012E0C5
:100BA00003F0D8FD4046416B11F0450FFBD040F2F9
:100BB000FF51816343692B4A134013F0FF086CD047
:100BC0005BE0761EA7D10320BDE8F09F002818BF88
:100BD000401EB9D1C1E711F0400F1CBF402003F007
:100BE00028FE01211A484FF0804B4160CDE700BF3D
:100BF0004FF000083720C5E900804FF48069C5F840
:100C00001090C5E90268134803F0A4FD606B10F072
:100C1000450FFBD040F2FF50A063616911F008005E
:100C200018BFBDE8F09F2920291DC5F800B0A1E834
:100C30004103084803F08EFD606B4FF0000810F090
:100C4000450F12D1606B10F0450F0DE090020020AF
:100C500000000020180300200080014080020020D6
:100C60000003002008E0FFFDECD010F0040F07D0D7
:100C70004FF00308042003F0DCFD4046BDE8F09F80
:100C800040F2FF5003F0D5FD002003F081FD8146C6
:100C9000C00F07F1010708D009E0FF4D4BF4801B9E
:100CA0004BF0004B04464FF6FF7A5745A0D357450B
:100CB00024BF1B20BDE8F09F19F0804FDDD0F7481E
:100CC00002214160D9E738B50121302003F0A1FCB1
:100CD0004FF4F850ADF8000003208DF80200182002
:100CE0008DF803006946EE4803F097FA0420ADF84A
:100CF00000006946EB4803F090FA0121880203F0F6
:100D00007FFC0121022003F07BFC03F0D7FCFFF7FE
:100D1000D9FE002818BF38BDFFF7F5FD002818BF21
:100D200038BD0121E04800240175046044608460FE
:100D3000C460046103F0CFFCDC48FFF79EFC002890
:100D400018BF38BDD948B0F84C000104D248016042
:100D5000072141604021C0E902140901016103F04B
:100D6000F9FCD348416B11F0450FFBD040F2FF5125
:100D70008163406910F0080018BF38BD4FF400606F
:100D8000BDE8384022E40246C448C94980680004EE
:100D9000886040F24D40C860486B10F0450FFBD0B2
:100DA00040F2FF508863486910F0080004BF4969A9
:100DB00011607047B9488168BD480904816040F2FC
:100DC0004D41C160416B11F0450FFBD040F2FF5126
:100DD0008163416911F0080F12BFFF204069C0F321
:100DE00043207047AD488168B1480904816040F2F2
:100DF0004D41C160416B11F0450FFBD040F2FF51F6
:100E00008163416911F0080F0AD14069C0F34320A2
:100E1000042804BF00207047FF281CBF0120704732
:100E20000220704710B50024204603F079FC2046CC
:100E300010BD2DE9F05F0446002003F0A9FC10F07E
:100E4000007F1CBF0E20BDE8F09F4027924E10206F
:100E50004FF4806AC6E900704FF00008C6F810A091
:100E6000C6E90278304603F075FC914D686B10F0CE
:100E7000450FFBD040F2FF5BC5F838B06869DFF87A
:100E8000349200EA090010F0FF0018BFBDE8F09F9F
:100E90008248311D8068000430603720A1E8810558
:100EA0007D4803F057FC686B10F0450FFBD0C5F888
:100EB00038B0686900EA090010F0FF0018BFBDE80B
:100EC000F09F4FF0FF317C48C0E90017602181603E
:100ED0000221C0E903180121416103F05CFC0D20EF
:100EE000C6E90080C6F810A0C6E902786A4803F097
:100EF00031FC686B10F0450FFBD0C5F838B068695D
:100F000000EA090010F0FF071CBF3846BDE8F09F5B
:100F1000686B40F22A6810EA080F13D14FF40040C2
:100F200003F07FFC002818BF002607D003F055FC13
:100F300044F82600761C082EF8D32034686B10EA9B
:100F4000080FEBD0082003F06CFC28B1082003F058
:100F500070FC0420BDE8F09F022003F062FC28B181
:100F6000022003F066FC0220BDE8F09F202003F081
:100F700058FC28B1202003F05CFC0620BDE8F09F5F
:100F80004FF4007003F04DFC30B14FF4007003F0EB
:100F900050FC0720BDE8F09F4FF4001003F041FC27
:100FA00020B103F01AFC44F8040BF5E740F2FF50BF
:100FB00003F03FFC3846BDE8F09F10B504463F48BB
:100FC000FFF737FF010018BF10BD3C4802789209B7
:100FD00022700278C2F3401262708278120262803C
:100FE000C27863881A43628002791206626042798D
:100FF000636843EA024262608279636843EA0222DC
:101000006260C27963681A436260027A2272427A2D
:101010006272827A1209A272C27A1202A281027BE1
:10102000A3891A43A281427B9208A273407B00F0FD
:101030000300E073084610BD2DE9F74F17488CB048
:1010400000258846174605700561C560184CE562A5
:101050004068022804BF4FF400774FEA51280E4E33
:101060004FF0400B1020C6F808B0C6E900708001B0
:10107000C6E90350304603F06DFB606B10F0450F7E
:10108000FBD040F2FF59C4F838906069DFF824A023
:1010900000EA0A0014E0000018030020000000200D
:1010A000001001400014014000030020B0020020A5
:1010B0000080014008E0FFFD2C030020A00200207A
:1010C00010F0FF001CBF0FB0BDE8F08F4FF0FF31F4
:1010D000FF48C0E90017902181600221C0E9031593
:1010E0000121416103F057FB1120C6F808B0C6E9A1
:1010F00000804FF48060C6E90350F64803F02AFBF5
:10110000606B10F0450FFBD0C4F83890606900EABE
:101110000A0010F0FF001CBF0FB0BDE8F08F0121E6
:10112000080203F00BFB012003F011FBEA4802F078
:10113000C6FFEA4C0021204602F09DFFE8480090DF
:101140000C98CDE90105B808CDE90305802005908C
:10115000800006908000CDE907058000CDE90905F3
:101160006946204602F057FF0121204602F083FF26
:101170000FB02846BDE8F08F2DE9FF4FD9488BB05E
:10118000002588461746057005614FF0010AC0F832
:101190000CA0D54CE5624068022804BF4FF40077EC
:1011A0004FEA5128CB4E10204FF4806BC6E90070F7
:1011B0004020C6F810B0C6E90205304603F0CAFA6E
:1011C000606B10F0450FFBD040F2FF50A0636069E8
:1011D000DFF8189300EA090010F0FF001CBF0FB001
:1011E000BDE8F08F4FF0FF31B94801600E994F43D1
:1011F0009021C0E901710221C0F814A0C0E90315D3
:1012000003F0C9FA1220C6E900804020C6F810B0E9
:10121000C6E90205AF4803F09DFA606B10F0450F78
:10122000FBD040F2FF50A063606900EA090010F0B3
:10123000FF001CBF0FB0BDE8F08F0121080203F0D2
:101240007DFA012003F083FAA34802F038FFA34C93
:101250000021204602F00FFFA14800900B98CDE935
:101260000105B808CDE903058020059080000690AF
:101270008000CDE907058000CDE9090569462046D3
:1012800002F0C9FE0121204602F0F5FE0FB028460B
:10129000BDE8F08F70B5964E924C0025304602F0B6
:1012A00001FF002801BF2069002820780028F5D020
:1012B0002078002814BF2078284670BD2DE9F74F0C
:1012C00088488CB000258846174605700561C560C2
:1012D000854CE5624068022804BF4FF400774FEA6E
:1012E00051287C4E4FF4806B1020C6F810B0C6E930
:1012F00000704FF0400AC6E902A5304603F02AFA12
:10130000606B10F0450FFBD040F2FF59C4F83890E5
:10131000616911F008001CBF0FB0BDE8F08F182004
:10132000C6F810B0C6E90080C6E902A5694803F016
:1013300011FA616B11F0450FFBD0C4F83890616968
:1013400011F008001CBF0FB0BDE8F08F4FF0FF3167
:101350005F48C0E900179021C0E902150121C0E9EA
:10136000045103F018FA0121080203F0E7F95A4882
:1013700002F0A5FE594C0021204602F07CFE5848A0
:1013800000900C98019010200290B808CDE9030558
:1013900080200590800006908000CDE90705800040
:1013A000CDE909056946204602F035FE01212046B7
:1013B00002F061FE012003F0CAF90FB02846BDE833
:1013C000F08F2DE9FF4FDFF81C818BB000268B4694
:1013D00091469A4688F80060C8F810600120C8F865
:1013E0000C00414CE662D8F80400022804BF4FF418
:1013F00000794FEA512B374D1020C5E9009040206D
:1014000007012F61C5E90206284603F0A3F9606BC6
:1014100010F0450FFBD040F2FF50A063616911F05E
:1014200008001CBF0FB0BDE8F08FD8F808004FF0DF
:101430004008000428603720C5E901084FF48060A7
:10144000C5E90360234803F085F9606B10F0450F90
:10145000FBD040F2FF50A0636069244F384010F089
:10146000FF001CBF0FB0BDE8F08F1720C5F800A02B
:10147000C5E901084FF48060C5E90360154803F031
:1014800069F9606B10F0450FFBD040F2FF50A0638C
:101490006069384010F0FF001CBF0FB0BDE8F08F4E
:1014A0001920C5F800B0C5E901084FF48060C5E90E
:1014B0000360084803F04EF9616B11F0450FFBD053
:1014C00040F2FF50A0636069384010F0FF0011E067
:1014D0002C0300201803002000F0001044040240F8
:1014E00080800140000000200080014008E0FFFDF6
:1014F000002000101CBF0FB0BDE8F08F4FF0FF318F
:10150000FF480AFB09F4C0E900149021C0E9021663
:101510000121C0E9046103F03EF90121080203F052
:101520000DF9012003F013F9F64802F0C8FDF64D5D
:101530000021284602F09FFDF44800900B9801908E
:1015400010200290A008CDE90306802005908000BD
:1015500006908000CDE907068000CDE909066946BE
:10156000284602F058FD0121284602F084FD0FB004
:101570003046BDE8F08F70B5E54EE64C00253046AC
:1015800002F090FD002801BF206900282078002883
:10159000F5D0207800281CBF207870BD40F2FF50A5
:1015A00003F047F9284670BDDB48406B10F440500B
:1015B00018BF012070470021D748816040F24C419C
:1015C000C160416B11F0450FFBD040F2FF518163C8
:1015D000406900F0080070472DE9F84F8246CF4877
:1015E000002789468DF800704168202010EA115FBD
:1015F00004BF2520BDE8F88FC74E7068C849C0B247
:10160000801CB1FBF0F4002003F0C2F810F0007F62
:101610007DD1C048C34DDFF810B340684FF48068F7
:10162000022804BF4FEA5A2A4FEA592904D0002859
:101630001CBF0128022833D12020C5E900A040208A
:10164000C5F81080C5E90207B64803F083F8706B4F
:1016500010F0450FFBD040F2FF5AC6F838A0706971
:1016600000EA0B0010F0FF0018BFBDE8F88F212042
:10167000C5E900904020C5F81080C5E90207A948D7
:1016800003F068F8706B10F0450FFBD0C6F838A077
:10169000706900EA0B0010F0FF0018BFBDE8F88F7A
:1016A00026204FF04009C5F80890C5E90070C5E94B
:1016B00003789C4803F04EF8706B10F0450FFBD098
:1016C00040F2FF50B063706900EA0B0010F0FF00B9
:1016D00018BFBDE8F88FA04238BF401CFBD3684656
:1016E00000F0F2F80D2400280CBFDFF828A2BDE8B6
:1016F000F88F00BF9DF8001007291CBF0629BDE820
:10170000F88F4FF0000BDAF80800000400E060E00A
:10171000C5F80890C5E90004C5E90378814803F0DD
:1017200019F8706B10F0450F03D1706B10F0450F76
:10173000FBD010F0040F06D00324042003F079F846
:101740002046BDE8F88F10F0010F06D00124204696
:1017500003F06FF82046BDE8F88F03F015F80D2868
:1017600002D01020BDE8F88F40F2FF5003F061F87E
:10177000002003F00DF8C0F343218DF800106A49F2
:1017800008426ED010F0004F02D01C20BDE8F88F48
:1017900010F0804F02D00920BDE8F88F10F0005FF4
:1017A00002D00A20BDE8F88F10F0805F02D00B2035
:1017B000BDE8F88F10F0006F02D00C20BDE8F88F64
:1017C00010F0806F02D02046BDE8F88F10F0807FC7
:1017D00002D00E20BDE8F88F10F4000F02D00F20C9
:1017E000BDE8F88F10F4800FBBD110F4001F02D0B9
:1017F0001120BDE8F88F10F4801F02D01220BDE840
:10180000F88F10F4002F02D01320BDE8F88F10F4E9
:10181000802F02D01420BDE8F88F10F4003F02D0D2
:101820001520BDE8F88F10F4803F02D01620BDE8E7
:10183000F88F10F4004F02D01720BDE8F88F10F495
:10184000804F02D01820BDE8F88F10F4005F02D05E
:101850001920BDE8F88F10F0080F02D01A20BDE85B
:10186000F88F584646E710B52A4CE0680021012859
:1018700018BF21700DD000BF4FF4807002F0E4FF5C
:1018800000214FF4807002F059FF01202061207880
:1018900010BD2148816040F24C41C160416B11F0A4
:1018A000450FFBD040F2FF518163406900F0080012
:1018B0002070E1E70021012804D0491C4008C9B28A
:1018C0000128FAD10846704770B504461148002532
:1018D00080680104134801600D2141604021C5600A
:1018E00081600901016102F035FF0B49486B10F07E
:1018F000450F03D1486B10F0450FFBD016E00000F8
:101900002C03002000F000104404024080800140BD
:101910000020001000000020008001408002002014
:10192000C0D401001803002008E0FFFD10F0040FF0
:1019300005D00324042002F07CFF204670BD10F087
:10194000010F05D00124204602F073FF204670BD30
:1019500002F01AFF0D2837D140F2FF5002F069FF64
:10196000002002F015FFC0F34321217031490842E5
:101970005ED010F0004F1CBF1C2070BD10F0804FD7
:101980001CBF092070BD10F0005F1CBF0A2070BD95
:1019900010F0805F1CBF0B2070BD10F0006F1CBFEB
:1019A0000C2070BD10F0806F1CBF0D2070BD10F0BA
:1019B000807F1CBF0E2070BD10F4000F1CBF0F20D5
:1019C00070BD10F4800F01D0102070BD10F4001F06
:1019D0001CBF112070BD10F4801F1CBF122070BDF1
:1019E00010F4002F1CBF132070BD10F4802F1CBFFB
:1019F000142070BD10F4003F1CBF152070BD10F402
:101A0000803F1CBF162070BD10F4004F1CBF172074
:101A100070BD10F4804F1CBF182070BD10F4005F23
:101A20001CBF192070BD10F0080F1CBF1A2070BD1C
:101A3000284670BD08E0FFFD10B586B0012144F2D4
:101A4000040002F0E6FD4FF40070ADF8100018201D
:101A50008DF8130003206C4C8DF8120004A9204669
:101A600002F0DBFB2015ADF8100004208DF8130008
:101A700004A9204602F0D1FB4FF4E1300090002091
:101A8000ADF80400ADF80600ADF80800ADF80C00A4
:101A90000C205E4CADF80A006946204602F046FF75
:101AA0000121204602F0BCFF06B010BD10B504466F
:101AB000C1B2564803F007F8554900BFB1F80028F5
:101AC00012F0800FFAD0204610BD0FB42DE9F04778
:101AD00084B081460D980EAC0078002802BF04B097
:101AE000BDE8F0075DF814FB30274A4E4FF02D0893
:101AF00000250D9801785C2916D000F101002529F8
:101B00000D9025D0484602F0DEFF4021484603F004
:101B100035F80028F9D00D9800780028E9D104B0F4
:101B2000BDE8F0075DF814FB401C0D9001786E29AC
:101B300006D0722909D10D21484602F0C4FF5FE0AA
:101B40000A21484602F0BFFF5AE0401C0D90DCE736
:101B50000178642915D07329F7D154F804AB9AF8A9
:101B60000000E8B3C1B2484602F0ADFF402148464C
:101B700003F004F80028F9D01AF8010F0028F1D179
:101B80003EE054F8040B4FF0000C6946002804BFF7
:101B90008DF800708DF801501DD005DC8DF80080A7
:101BA00001F10101C0F1000042F2107290FBF2F36A
:101BB00053EA0C0A07D003F1300C01F801CB03FB08
:101BC00012004FF0010C86FB02329310A3EBE2727D
:101BD000002AEBDC0D709DF80000EA4600B100E041
:101BE0000EE09AF80010484602F06DFF402148468A
:101BF00002F0C4FF0028F9D01AF8010F0028EED136
:101C00000D98401C0D9080E700080140003801400D
:101C1000003001406766666608B54FF4C06002F0A8
:101C20002DF931208DF8000000208DF801008DF88D
:101C3000020001208DF80300684602F026F908BD75
:101C400008B54FF4C06002F019F931208DF800009A
:101C500000208DF801008DF8020001208DF80300AE
:101C6000684602F012F9BDE808409749002004F0E8
:101C7000FCB8F8B500254FF4C06002F0FFF8312041
:101C80008DF8000000268DF801608DF802600127B4
:101C90008DF80370684602F0F8F8002005F092F81D
:101CA0008949002004F0E1F8022288A18B4804F061
:101CB000ECF88B4C207050B904F108037A02191D1E
:101CC000864804F01AFC2070844804F0E8FD0122E4
:101CD0007EA1824804F0D9F82070C4E90167814EE2
:101CE0004FF400774FF400717F4805F0F8F87E4913
:101CF0007E4B4FF40072A1F50970676004F0FFFAA3
:101D0000207006EB4520784A79A105F05BF9207830
:101D10006D1C10B9A0680028E4D1704804F0BFFD24
:101D2000BDE8F840002000F07DBF70B516468EB0CB
:101D30000D4602466FA1684605F044F9624900204D
:101D400004F093F806226946644804F09EF8644C57
:101D5000207028B1082818BF4FF0FF300EB070BDBA
:101D6000624B324629465D4804F0C7FB20705B4851
:101D700004F095FD0EB0002070BD70B516468EB013
:101D80000D4602465BA1684605F01CF94E4900204D
:101D900004F06BF802226946504804F076F8504C83
:101DA000207028B1042818BF4FF0FF300EB070BD6E
:101DB0004E4B32462946494804F09FFB2070474865
:101DC00004F06DFD0EB0002070BDF0B58FB00E4672
:101DD0000246002547A1684605F0F4F84FF4C060BC
:101DE00002F04CF831208DF8340000208DF83500D9
:101DF0008DF8360001208DF837000DA802F045F867
:101E00003149002004F031F82F49002004F02DF86A
:101E100001226946314804F038F8314C002820701E
:101E20000FBF4FF400774FF0FF300FB0F0BD00BF91
:101E30004FF400712C4805F052F82B492B4B4FF40E
:101E40000072A1F50970676004F059FA207006EB82
:101E50004520254A26A105F0B5F820786D1C10B95B
:101E6000A0680028E4D10FB00020F0BD70B5064690
:101E700008784978B038C0EB001202EB401001EB53
:101E800040004001A0F5A1550F49002003F0EDFFEF
:101E900001221AA1114803F0F8FF114C002820700C
:101EA0001CBF4FF0FF3070BD29460C4804F000FD08
:101EB0000E4B20223146094804F021FA20700748D1
:101EC00004F0EDFC002070BD80030020303A2F6D3F
:101ED000795F5F44656D6F2E54585400E007002011
:101EE00014000020040C0020040A00201C00002024
:101EF00025730000303A257300000000303A2F4867
:101F00005A4C49422E62696E000000000378427804
:101F10008178E5A005F046B810B54FF0C0444FF009
:101F2000360CA4F800C0E34C4FF0280CA4F800C015
:101F300000F0B7FEBDE8104000F00FBF002000F039
:101F400071BE10B501231A4600F0ABFE00F005FF8C
:101F5000BDE8104000F055BE2DE9F0479CB080462A
:101F60000E46D5A115A805F02DF8D549002003F09F
:101F70007CFFD4A005F016F8012215A9D64803F07D
:101F800084FFD64C2070002000F04CFE2078002802
:101F900018BFD3A005D000BF05F004F81CB0BDE801
:101FA000F087D4A004F0FEFF1AAB022211A9CA48A0
:101FB00004F0A5F9BDF84400A0F59A41423918BFD4
:101FC000D1A0E9D1D7A004F0EDFF1AAB0C2212A9E1
:101FD000C14804F094F9D9A004F0E4FFDBA0129901
:101FE00004F0E0FFBDF84C10DCA004F0DBFFBDF80E
:101FF0004E10DAA004F0D6FFDBA0149904F0D2FF53
:10200000CDA004F0CFFF1AAB282202A9B24804F0F9
:1020100076F9DDA004F0C6FFDFA0029904F0C2FF4C
:10202000E2A0039904F0BEFFE3A0049904F0BAFF14
:10203000BDF81410E3A004F0B5FFBDF81610E6A03B
:1020400004F0B0FFEBA0069904F0ACFFEDA00799F7
:1020500004F0A8FFF6A0089904F0A4FFF9A00999DC
:1020600004F0A0FFFCA00A9904F09CFFFFA00B99CC
:1020700004F098FFB0A004F095FFDDE90354BDF82B
:10208000160000FB05F101F11F02D11702EBD1612F
:1020900049118F00B7F5707FC8BFF8A03FF77CAF3C
:1020A000182838BFFDA0FFF477AFC6F1F000001B81
:1020B00081B24FF0C04C3620AAB2A3B2ACF80000F7
:1020C000DFF8F0912820A9F80000404600F0E9FD73
:1020D00000F043FE04F1010A4FF00008BAF1000FCE
:1020E000C8BFF94C24DD0026002F08DDA1191AAB6A
:1020F0000122794804F003F9761CB742F6DC00208F
:10210000002D11DD00EB40016218615C937852787C
:10211000DB08DB02920843EA421242EAD101A9F845
:102120000010401C8542EDDC08F10108D045DADBE7
:10213000002000F077FD684804F0B1FB1CB0BDE85A
:10214000F0872DE9F04F06461746E0A00C461A46E8
:1021500099B090E82A108DE82A1000F110010DF1D5
:10216000100891E82A10A8E82A1000F1200191E84F
:102170002A1088E82A10D0E90C10CDE90C10E017DD
:1021800004EB907020F0030A0023A4EB0A01CDE9D0
:102190000E3104FB07F000EB4000A2450FBF3630C4
:1021A00000F136010F9807FB00108DF80200010ABC
:1021B0008DF80310010C8DF80410000E8DF8050049
:1021C0008DF81240200A8DF81300200C8DF81400B1
:1021D000200E8DF815008DF81670380A8DF817004E
:1021E000380C8DF81800380E8DF81900C5A110A80C
:1021F00004F0E8FE3249002003F037FE062210A961
:10220000354803F042FEDFF8D49089F8000030B181
:10221000082818BF4FF0FF3019B0BDE8F08F18AB99
:10222000362269462C4804F068F989F800004FF01E
:102230000008002F36DDA2454FF0000516D1002C16
:10224000C4BF08FB04F000EB400B2CDD05EB4500A0
:10225000304400EB0B0118AB03221F4804F04DF98A
:102260006D1C89F80000AC42F0DC55E1002CC4BFC5
:1022700008FB04F000EB400B0FDD00BF05EB450051
:10228000304400EB0B0118AB0322134804F035F97E
:102290006D1C89F80000AC42F0DC18AB0EA90E48AA
:1022A0000F9A35E13DE137E12825642D25642D2580
:1022B0006429200000000260303A2573000000000D
:1022C0000012002066696C65206D6F756E74206F5A
:1022D0006B200D0A00000000601600202002002084
:1022E00066696C65206F70656E206661696C210D92
:1022F0000A0000004F70656E2066696C652073757A
:1023000063636573730D0A0066696C6520697320E9
:102310006E6F74202E626D702066696C65210D0AE7
:10232000000000004F6B2074686973206973202ED1
:10233000626D702066696C650D0A0000CEBBCDBC75
:10234000CEC4BCFECDB73A0D0A000000CEC4BCFE20
:10235000B4F3D0A13A25640D0A000000B1A3C1F482
:10236000D7D63A25640D0A00CAB5BCCACEBBCDBCCF
:10237000CAFDBEDDB5C4C6ABD2C6D7D6BDDACAFD6E
:102380003A25640D0A000000CEBBCDBCD0C5CFA25B
:10239000CDB73A0D0A000000BDE1B9B9CCE5B5C42E
:1023A000B3A4B6C83A25640D0A000000CEBBCDBC6C
:1023B000BFED3A25640D0A00CEBBCDBCB8DF3A258F
:1023C000640D0A006269506C616E6573C6BDC3E638
:1023D000CAFD3A25640D0A006269426974436F754B
:1023E0006E74B2C9D3C3D1D5C9ABCEBBCAFD3A2531
:1023F000640D0A00D1B9CBF5B7BDCABD3A25640D4D
:102400000A000000626953697A65496D616765CAAF
:10241000B5BCCACEBBCDBCCAFDBEDDD5BCD3C3B531
:10242000C4D7D6BDDACAFD3A25640D0A0000000003
:1024300058B7BDCFF2B7D6B1E6C2CA3A25640D0A85
:102440000000000059B7BDCFF2B7D6B1E6C2CA3A14
:1024500025640D0A00000000CAB9D3C3B5C4D1D5A4
:10246000C9ABCAFD3A25640D0A000000D6D8D2AA2D
:10247000D1D5C9ABCAFD3A25640D0A000A534F52A3
:1024800052592C2050494320495320544F4F204249
:10249000494720283C3D333230290A00534F5252DD
:1024A000592C205448495320504943204953204E29
:1024B0004F54204120323442495453205245414C1C
:1024C00020434F4C4F520000400E0020424D000070
:1024D000000000000000360000002800000000009E
:1024E00000000000000001001800000000000000D3
:1024F00000000000000000000000000000000000DC
:1025000000000000303A25732E626D70000000005C
:1025100003F0F3FF89F8000008F1010847453FF791
:102520008AAEFF4804F0BBF919B00020BDE8F08F77
:102530002DE9F04F164699B082460C461A46AFF286
:10254000740090E82A108DE82A1000F1100104AF01
:1025500091E82A10A7E82A1000F1200191E82A103A
:1025600087E82A10D0E90C10CDE90C10E01704EB35
:10257000907020F003090023A4EB0901CDE90E318E
:1025800004FB06F000EB4000A1450FBF363000F120
:1025900036010F9806FB00108DF80200010A8DF835
:1025A0000310010C8DF80410000E8DF805008DF855
:1025B0001240200A8DF81300200C8DF81400200E14
:1025C0008DF815008DF81660300A8DF81700300C64
:1025D0008DF81800300E8DF81900AFF2D80110A850
:1025E00004F0F0FCCF49002003F03FFC062210A9C4
:1025F000CB4803F04AFCDFF8308388F8000030B1A4
:10260000082818BF4FF0FF3019B0BDE8F08F18ABA5
:1026100036226946C24803F070FF88F8000022465F
:102620003146C2A004F0BEFC0027002E3DDDA145CE
:102630004FF0000517D1002C34DD07FB04F000EB50
:10264000400000EB0A0B00BF05EB45000BEB00015F
:1026500018AB0322B24803F050FF6D1C88F800004D
:10266000A542F1DB1EE0002C14DD07FB04F000EBBB
:10267000400000EB0A0B00BF05EB45000BEB00012F
:1026800018AB0322A64803F038FF6D1C88F8000041
:10269000A542F1DB18AB0EA9A1480F9A03F02DFF5C
:1026A00088F800007F1CBE42C1DC9D4804F0F7F8AA
:1026B00019B00020BDE8F08F2DE9F04F9046A1B091
:1026C00082460C461A46AFF2FC1090E82A1004AE7F
:1026D000A6E82A1000F1100191E82A1086E82A10D5
:1026E00000F120010CAE91E82A10A6E82A10D0E9EA
:1026F0000C1000230293CDE91010E01704EB90704A
:1027000020F0030904FB08F0A4EB090100EB4000F2
:102710001A91A1450FBF363000F136011A9808FB17
:1027200000108DF81200010A8DF81310010C8DF8BD
:102730001410000E8DF815008DF82240200A8DF837
:102740002300200C8DF82400200E8DF825008DF834
:1027500026804FEA18208DF827004FEA18408DF8A0
:1027600028004FEA18608DF82900AFF2682112A8FE
:1027700004F028FC6B49002003F077FB062212A925
:10278000674803F082FB684F387030B1082818BFE3
:102790004FF0FF3021B0BDE8F08F1CAB362204A90A
:1027A0005F4803F0AAFE00263870B8F1000F6CDD18
:1027B000A1454FF000052FD1002CC4BF06FB04F04B
:1027C0000AEB400B5EDD00BF0BEB45001CAB008845
:1027D0000122C10AC9008DF87810C0F345118900A3
:1027E000C0008DF87C108DF8800020A94C4803F0C3
:1027F00084FE38701CAB01221FA9494803F07DFEFE
:1028000038701CAB01221EA9454803F076FE6D1CF2
:102810003870AC42D8DC35E0002CC4BF06FB04F0B5
:102820000AEB400B27DD00BF0BEB45001CAB00881B
:102830000122C10AC9008DF87810C0F34511890042
:10284000C0008DF87C108DF8800020A9344803F07A
:1028500054FE38701CAB01221FA9314803F04DFE15
:1028600038701CAB01221EA92D4803F046FE6D1CDA
:102870003870AC42D8DC1CAB02A929481A9A03F084
:102880003CFE3870761CB04592DC254804F007F811
:1028900021B00020BDE8F08F2DE9F04F9BB08346BA
:1028A0000E4614469846AFF2DC3090E82A10249A7F
:1028B0008DE82A1000F1100104AF91E82A10A7E872
:1028C0002A1000F1200191E82A1087E82A10D0E9A7
:1028D0000C10CDE90C1000201A9004FB08F000EB5E
:1028E0004000363004F0030108FB01008DF80200BF
:1028F000010A8DF80310010C8DF80410000E8DF8FC
:1029000005008DF81240200A8DF81300200C8DF878
:102910001400200E8DF815008DF816800CE00000D4
:102920006016002000120020200200202530642DB7
:102930002530640A000000004FEA18208DF81700C7
:102940004FEA18408DF818004FEA18608DF819000A
:10295000AFF250410EA804F035FB5849002003F0B7
:1029600084FA06220EA9564803F08FFA554F3870A4
:10297000534803F094FF02220EA9514803F085FA50
:10298000387030B1082818BF4FF0FF301BB0BDE8D9
:10299000F08F16AB36226946494803F0AEFD387019
:1029A0004FF00009B8F1000F48DD00BF14F0030F2D
:1029B0004FF0000549D0002CC4BFA8EB090000EB84
:1029C0000B0A2FDDA91901231FFA8AF089B21A46D2
:1029D00000F067F900F0C1F900F013F9C10AC9006D
:1029E0008DF85C10C0F345118900C0008DF86010AF
:1029F0008DF8640016AB012219A9314803F07DFD62
:102A0000387016AB012218A92D4803F076FD3870F6
:102A100016AB012217A92A4803F06FFD6D1C387010
:102A2000AC42CFDC04F0030216AB1AA9244803F031
:102A300064FD387009F10109C845B7DC204803F08E
:102A40002EFF1BB00020BDE8F08F002CC4BFA8EB08
:102A5000090000EB0B0AEDDDA91901231FFA8AF02A
:102A600089B21A4600F01DF900F077F900F0C9F8B4
:102A7000C10AC9008DF85C10C0F345118900C0007F
:102A80008DF860108DF8640016AB012219A90C486E
:102A900003F033FD387016AB012218A9084803F083
:102AA0002CFD387016AB012217A9054803F025FD4F
:102AB0006D1C3870AC42CFDCBCE700000012002077
:102AC0006016002020020020F8B50121080201F064
:102AD00097FD0121602001F09CFD102403258DF855
:102AE00003408DF802506002ADF800006946FF4EC9
:102AF000304601F092FB0220FD4FADF80000694620
:102B0000384601F08AFB8DF8025018208DF803003A
:102B10004CF20370ADF800006946304601F07DFBD1
:102B20004FF68070ADF800006946384601F075FB3D
:102B3000ADF800406946304601F06FFB2020ADF84B
:102B400000006946304601F068FB8020ADF80000C7
:102B50006946304601F061FBE001ADF800006946CE
:102B6000304601F05AFB6102304601F0CAFB0221F7
:102B7000384601F0C4FB0821304601F0C2FB402179
:102B8000304601F0BCFBF8BD00B597B002200F90B5
:102B900000200521CDE910014FF08051CDE914014D
:102BA0001290139008210090CDE901011021CDE988
:102BB0000310069009020790CDE908010A900B90D6
:102BC0000C900FA80D900E90684602F047F8012176
:102BD000002002F09BF917B000BD10B5C44C0221D3
:102BE000204601F08EFB42F2107001F022F9022122
:102BF000204601F084FBBDE8104042F6E06001F0A1
:102C000018B94FF0C0412E200880BA4801880188C9
:102C10000288008801F47841800A41EA401040EAC5
:102C2000D22070472DE9F0030022B2493F242B2621
:102C3000B14D4FF0010C4FF036094FF0C0434FF04B
:102C40002A08EF27C8B101281CBFBDE8F003704770
:102C5000A3F8009048200880A3F800800A800A802A
:102C60000A800F801E800A800A80A1F800C00C80B4
:102C700085F800C0BDE8F0037047A3F80090682015
:102C80000880A3F800800A800A80A1F800C00C80A8
:102C90001E800A800A800A800F802A70BDE8F00337
:102CA00070472DE9F00FDFF850C29CF800A020F02B
:102CB000FF04041B050A8618701EC0F30F2220F0C3
:102CC000FF00301A401E86B221F0FF00081A1FFADA
:102CD00080F80B440F0A581EC0F30F2120F0FF00AC
:102CE000181A401EDFF80CC283B24FF02A09A4B2B2
:102CF0004FF02B0B4FF0C040BAF1000F18D0A0F8E6
:102D000000B0ACF80050ACF80040ACF80020ACF8D3
:102D10000060A0F80090ACF80070ACF80080ACF84F
:102D20000010ACF800302C210180BDE8F00F704796
:102D3000A0F80090ACF80050ACF80040ACF80020CF
:102D4000ACF80060A0F800B0ACF80070ACF80080FF
:102D5000ACF80010ACF80030E5E72C20C106088084
:102D600070472DE9F0474FF0C044CF2020806148E4
:102D7000002101808122028030220280ED22228007
:102D800064220280032202801222028081220280B9
:102D9000E82222808522028010220280782303808C
:102DA000CB232380392303802C25058001804FF01D
:102DB000340CA0F800C04FF0020CA0F800C04FF097
:102DC000F70CA4F800C04FF0200CA0F800C04FF0A2
:102DD000EA0CA4F800C0018001804FF0B10CA4F807
:102DE00000C001804FF01B0CA0F800C0B626268062
:102DF0000A260680A2270780C02626803526068060
:102E0000C1262680112606804FF0C508A4F8008050
:102E10004FF04508A0F80080A0F800804FF0C708E8
:102E2000A4F800800780F227278001804FF0260851
:102E3000A4F80080012707804FF0E009A4F8009073
:102E40004FF00F09A0F80090A0F800804FF0240880
:102E5000A0F800804FF00B08A0F800804FF00E089B
:102E6000A0F800804FF00908A0F800804FF0540946
:102E7000A0F800904FF0A809A0F800904FF0460984
:102E8000A0F800904FF00C09A0F800904FF017093F
:102E9000A0F80090A0F800804FF00F08A0F8008084
:102EA0004FF00708A0F8008001804FF0E109A4F876
:102EB000009001804FF01909A0F80090A0F800C020
:102EC0004FF0040CA0F800C00280A0F800802A2275
:102ED00002804FF0470CA0F800C00380032303805A
:102EE0000623038003803023038007E000140140A1
:102EF00000180140000002602102002038230380F6
:102F00000F230380362323806823038022800180DF
:102F1000018007803F2202802B22228001800180D5
:102F20000180EF2101803A212180552101802680F6
:102F30004FF4966000F07DFF292020800020FFF7ED
:102F400071FE2580BDE8F08710B5FFF7BDFDFFF7E6
:102F50001BFEFFF742FEFFF704FFFFF7FEFE002017
:102F60004FF47842FF490A800A80801CB0F5963FF2
:102F7000F9D310BD2DE9F0410746884615461E4697
:102F80000020069CFFF74EFE33462A46414638464F
:102F9000FFF787FE05FB06F2002A08BFBDE8F081B7
:102FA00002F00100EF49012808BF0C80904228BFC1
:102FB000BDE8F0810C800C80801C9042FAD3BDE803
:102FC000F08110B501231A46FFF76BFEE648E5498C
:102FD0000088088010BD10B5144601231A46FFF77B
:102FE00060FEE048048010BD2DE9F05F05460C4608
:102FF00016461F460020FFF715FEDFF86C93DFF83A
:1030000064A3B54208BFBC420BD101231A46214636
:103010002846FFF746FEB9F80000AAF80000BDE810
:10302000F09F391BA6EB050048BF49420028B8BFF6
:103030004042814228DDBC4205D920463C46074635
:10304000284635460646A046BC423ABF761BA7EB4B
:10305000040BBDE8F09F00BFA8EB04007043B0FB79
:10306000FBF02844012380B21A464146FFF719FEBF
:10307000B9F80000AAF8000008F101001FFA80F872
:10308000B845E9D3BDE8F09FB54205D920463C4696
:103090000746284635460646A846B5423ABFA6EB3F
:1030A000050B3F1BBDE8F09FA8EB05007843B0FB84
:1030B000FBF0204481B201231A464046FFF7F1FDA0
:1030C000B9F80000AAF8000008F101001FFA80F822
:1030D000B045E9D3BDE8F09F2DE9FF4F81B014461C
:1030E00001989846B0F59D7F99BF0298E42805B0F5
:1030F000BDE8F08F0C23014606220198FFF7D1FDB1
:10310000A4F12000C0B2994900EB400001EB80001F
:1031100000250090465D029800244719C5F10C096E
:10312000C5F10B0A07F1010B16F0010F10D0002CAE
:103130001CBF8C48A0F8008018D11FFA89F3B9B2DF
:1031400006220198FFF7ADFD8648A0F800800DE04B
:10315000052C19D0C4F1060082B20198B9B22044FE
:10316000401C80B25FF00103FFF79BFD601C7608F6
:10317000C4B2062CD8D3681CC5B20C2D38BF009839
:10318000C8D305B0BDE8F08F1FFA8AF31FFA8BF1A0
:1031900006220198E8E72DE9FF4F81B01446019817
:1031A0009846B0F59A7F99BF0298EA2805B0BDE825
:1031B000F08F062301460C220198FFF772FDA4F15F
:1031C0002000C0B2694900EB400001EB80000025FF
:1031D000009067480078002800980EBF465DC5F152
:1031E0000C01465C00240198C5F10C094719C5F192
:1031F0000B0A07F1010B00BF16F0010F10D0002CD5
:103200001CBF5848A0F8008018D11FFA89F2B8B244
:1032100006230299FFF745FD5248A0F800800DE013
:10322000052C17D0C4F1060083B202985FF00102AA
:103230002044401C81B2B8B2FFF733FD601C760811
:10324000C4B2062CD8D3681CC5B20C2DC1D305B0AE
:10325000BDE8F08F1FFA8AF21FFA8BF0062302995D
:10326000EAE72DE9FF4F81B0144601989846B0F582
:103270009C7F99BF0298E02805B0BDE8F08F10232D
:10328000014608220198FFF70CFD00252001A0F55A
:1032900000700090411937480024C5F11009465CC0
:1032A0000298C5F10F0A471907F1010B16F0800FBC
:1032B00010D0002C1CBF2B48A0F8008018D11FFA9A
:1032C00089F3B9B208220198FFF7EBFC2548A0F872
:1032D00000800DE0072C1AD0C4F1080082B20198DA
:1032E000B9B22044401C80B25FF00103FFF7D9FC63
:1032F0007006060E601CC4B2082CD7D3681CC5B279
:10330000102D38BF0098C5D305B0BDE8F08F1FFA67
:103310008AF31FFA8BF108220198E7E72DE9FF4FA6
:1033200081B0144601989846B0F5987F99BF0298ED
:10333000E82805B0BDE8F08F082301461022019867
:10334000FFF7AFFC00252001A0F500700090411BA5
:10335000084800240844C5F11009067CC5F10F0A8D
:10336000019809E00000026022020020CA710008F2
:10337000210200203E760008471907F1010B00BF2B
:1033800016F0800F10D0002C1CBFFF48A0F8008062
:1033900018D11FFA89F2B8B208230299FFF781FC0D
:1033A000F948A0F800800DE0072C1AD0C4F10800FD
:1033B00083B202985FF001022044401C81B2B8B28F
:1033C000FFF76FFC7006060E601CC4B2082CD7D342
:1033D000681CC5B2102D38BF0098B8D305B0BDE841
:1033E000F08F1FFA8AF21FFA8BF008230299E7E7A1
:1033F0002DE9FF4F81B098460020FFF713FC03989A
:103400000078002804BF05B0BDE8F08F0198B0F542
:103410009C7F98BF029805D9002001900298103037
:1034200080B20290E02825D90020029001900398F4
:103430000478DDE9010110230822FFF732FC0025A2
:103440002001A0F5007000904119D0480024C5F17A
:103450001009465C0298C5F10F0A471907F1010BE4
:1034600016F0800F18D0002C1CBFC748A0F80080B1
:1034700020D106E0039804780198B0F59C7F25D808
:10348000D7E71FFA89F3B9B208220198FFF709FCC0
:10349000BD48A0F800800DE0072C24D0C4F108003E
:1034A00082B20198B9B22044401C80B25FF001039F
:1034B000FFF7F7FB7006060E601CC4B2082CCFD3D2
:1034C000681CC5B2102D38BF0098BDD301980830D4
:1034D00080B201900398401C03900078002895D199
:1034E00005B0BDE8F08F1FFA8AF31FFA8BF10822AE
:1034F0000198DDE7B0F59C7F94BFE02970472DE986
:10350000F04116461C4610230822069DFFF7C9FB12
:1035100030019E4E9C4A4FF0000CA0F5007300BF96
:1035200003EB0C000021305C10F0800F14BF1480FE
:1035300015804006491C000EC9B20829F4D30CF1CD
:10354000010000F0FF0CBCF1100FE9D3BDE8F081E1
:103550002DE9FF5F8146DDE90E45002790469A463A
:1035600001263846FFF75EFB98F8000028B1781C6A
:1035700087B218F807000028F9D1B81B18F8000026
:10358000002804BF04B0BDE8F09F7042B91B09EBEE
:10359000C00080B218F801B0B0F59C7F9CBF0199C3
:1035A000E02924D810230822FFF77BFB4FEA0B10F9
:1035B000DFF8D8E1DFF8D0C10022A0F5007B00BF22
:1035C0000BEB02001EF800105FF0000011F0800FFE
:1035D00014BFACF80040ACF800504906401C090E7E
:1035E000C0B20828F2D3501CC2B2102AE8D3701C13
:1035F00086B2B2459CBF04B0BDE8F09FBE4284BF16
:1036000004B0BDE8F09FB81B18F800000028BCD13A
:1036100004B0BDE8F09F2DE9F04106460D46144682
:103620001F460120FFF7FEFA2078002808BFBDE8FA
:10363000F081E82D03D9A6F11000002586B2B6F579
:10364000987F84BF0026354622783B46294630467F
:10365000FFF764FE05F1080085B214F8010F002899
:10366000E7D1BDE8F0812DE9F04780460025894685
:103670009A46144616462846FFF7D4FA002C18BF7F
:10368000434F25D0A7FB0610C60805F10100C5B2BF
:10369000F8D1002C08BFBDE8F08700BFA7FB0410DD
:1036A000C608704200EB800004EB400000F13002DD
:1036B00005EB450008EB4000691E801FCDB280B2CB
:1036C00053464946FFF708FD3400E7D1BDE8F087CF
:1036D000534649464046BDE8F0473022FCE42DE918
:1036E000F04105460E4614461F460020FFF79AFAA1
:1036F0002078002808BFBDE8F08100BFB5F59D7FA8
:1037000003D906F10C00002586B2E42E84BF002602
:10371000354622783B4631462846FFF7DDFCA81D9A
:1037200085B214F8010F0028E8D1BDE8F0812DE939
:10373000FF4F81B098460120FFF774FA0398007894
:10374000002804BF05B0BDE8F08F0298EA2898BFB2
:10375000019805D90020029001980C3880B20190A0
:10376000B0F59A7F38D90020019002900398047830
:10377000DDE9010106230C22FFF793FAA4F12000F2
:10378000C0B2002506E00000000002603E7600089E
:10379000CDCCCCCCF94900EB400001EB800000908F
:1037A000F7480078002800980EBF465DC5F10C016F
:1037B000465C00240198C5F10C094719C5F10B0AB4
:1037C00007F1010B16F0010F17D0002C1CBFED48BC
:1037D000A0F800801ED105E0039804780298EA283A
:1037E00021D8C5E71FFA89F2B8B206230299FFF77C
:1037F00058FAE448A0F800800CE0052C20D0C4F171
:10380000060083B2029801222044401C81B2B8B263
:10381000FFF747FA601C7608C4B2062CD2D3681CA6
:10382000C5B20C2DBCD30298801D80B202900398C3
:10383000401C03900078002887D105B0BDE8F08FC8
:103840001FFA8AF21FFA8BF006230299E0E72DE9AE
:10385000FF4F89B0074611469A466846DDF858B0D2
:10386000FEF704FBDFF81C830025684600EB4500EB
:103870001DF815104078002440EA01290A984619DD
:10388000C4F10F0029FA00F010F0010F07EB04005B
:103890004FF0010380B2B1B21A4604D0FFF701FA2B
:1038A000A8F800A003E0FFF7FCF9A8F800B0601C3E
:1038B000C4B2102CE4D3681CC5B2102DD5D30DB002
:1038C000BDE8F08F2DE9FF4F89B00F4614469A46A8
:1038D0000120DDF858B0FFF7A5F921466846FEF74C
:1038E000C5FADFF8A0820025694601EB45011DF805
:1038F00015004978002441EA00290998401B00F18D
:10390000100600BFC4F10F0029FA00F010F0010FFB
:1039100007EB04014FF00103B0B289B21A4604D09C
:10392000FFF7BFF9A8F800A003E0FFF7BAF9A8F87D
:1039300000B0601CC4B2102CE4D3681CC5B2102DBA
:10394000D2D30DB0BDE8F08F2DE9F04F804689B09D
:103950008B46144699460020FFF764F921466846D5
:10396000FEF784FADFF81CA20025694601EB450149
:103970001DF815004978002441EA00260BEB0507E5
:10398000C4F10F0026FA00F010F0010F09D008EB87
:103990000400012380B2B9B21A46FFF782F9AAF8EF
:1039A0000090601CC4B2102CEAD3681CC5B2102D64
:1039B000DBD309B0BDE8F08F2DE9F04F834689B025
:1039C0008846144699460120FFF72CF9214668469F
:1039D000FEF74CFADFF8ACA10025684600EB450085
:1039E0001DF815104078002440EA0126ABEB0500D5
:1039F00000F11007C4F10F0026FA00F010F0010FDB
:103A000009D008EB04010123B8B289B21A46FFF7C6
:103A100048F9AAF80090601CC4B2102CEAD3681CC4
:103A2000C5B2102DD9D309B0BDE8F08F2DE9FF4FF5
:103A300089B005469A460020DDF858B0FFF7F2F845
:103A40000B980078002812BF4E4F0DB0BDE8F08FE4
:103A5000B5F5987F98BF0A9804D90A9800251030C8
:103A600080B20A90E02802D9002005460A906846F4
:103A70000B99FEF7FBF90026694601EB46011DF89C
:103A800016004978002441EA00290A9800EB06084C
:103A9000C4F10F0029FA00F010F0010F05EB04004B
:103AA0004FF0010380B21FFA88F11A4604D0FFF7E5
:103AB000F8F8A7F800A003E0FFF7F3F8A7F800B0C4
:103AC000601CC4B2102CE3D3701CC6B2102ED3D32A
:103AD0000B98801C0B9005F1100085B20B980078B4
:103AE0000028B5D10DB0BDE8F08F2DE9FF4F89B0AA
:103AF0000D469A460120DDF858B0FFF793F80B9871
:103B00000078002812BF1F4F0DB0BDE8F08FE02DE8
:103B100098BF099804D909980025103880B20990F7
:103B2000B0F5987F01D9002509950120FFF77AF8B3
:103B300068460B99FEF79AF90026694601EB4601A3
:103B40001DF816004978002441EA00290998801BD5
:103B500000F11008C4F10F0029FA00F010F0010F75
:103B600005EB04014FF001031FFA88F089B21A46F1
:103B70000AD0FFF796F8A7F800A009E0CA7100087C
:103B80002102002000000260FFF78BF8A7F800B0C8
:103B9000601CC4B2102CDDD3701CC6B2102ECCD366
:103BA0000B98801C0B9005F1100085B20B980078E3
:103BB0000028ACD10DB0BDE8F08F2DE9FF4F0646CF
:103BC00089B088469B460020FFF72CF80B980078B8
:103BD000002812BFDFF838920DB0BDE8F08F00BFAB
:103BE000B6F5987F04D908F1100000261FFA80F876
:103BF000B8F1E00F84BF4FF0000846460020FFF701
:103C000011F868460B99FEF731F90025694601EB7A
:103C100045011DF815004978002441EA002708EB0A
:103C2000050A00BFC4F10F0027FA00F010F0010FE1
:103C300009D03019012380B21FFA8AF11A46FFF722
:103C400030F8A9F800B0601CC4B2102CEAD3681C8C
:103C5000C5B2102DDAD30B98801C0B9006F1100022
:103C600086B20B9800780028BAD10DB0BDE8F08F6D
:103C70002DE9FF4F074689B00E469B460120FEF70F
:103C8000D1FF0B980078002812BFDFF884810DB0B7
:103C9000BDE8F08FE02E03D9A7F11000002687B20F
:103CA000B7F5987F84BF002637460120FEF7BAFF9C
:103CB00068460B99FEF7DAF80025694601EB4501E5
:103CC0001DF815004978002441EA0029781B00F10D
:103CD000100A00BFC4F10F0029FA00F010F0010F24
:103CE00009D0311901231FFA8AF089B21A46FEF76A
:103CF000D8FFA8F800B0601CC4B2102CEAD3681C2E
:103D0000C5B2102DD9D30B98801C0B9006F1100072
:103D100086B20B9800780028BCD10DB0BDE8F08FBA
:103D20002DE9FF4F824689B09B460D460120FEF7E4
:103D300079FF0B980078002812BF354F0DB0BDE811
:103D4000F08F0B9802787D2A11D2E82D04D9AAF1C0
:103D5000100000251FFA80FA5B4629465046FFF7FF
:103D6000DDFA0B98401C0B9005F1080048E0A32AEF
:103D70000CD15B46202229465046FFF7CFFA0B981C
:103D8000801C0B900AF108001FFA80FAE02D04D97C
:103D9000AAF1100000251FFA80FA0120FEF742FF69
:103DA00068460B99FEF762F80026684600EB46006D
:103DB0001DF816104078002440EA0128AAEB0600FE
:103DC00000F11009C4F10F0028FA00F010F0010F03
:103DD00009D0291901231FFA89F089B21A46FEF782
:103DE00060FFA7F800B0601CC4B2102CEAD3701CAE
:103DF000C6B2102ED9D30B98801C0B9005F1100081
:103E000085B20B98007800289BD10DB0BDE8F08FEB
:103E1000000002604FF0E02040F2CF2141610C4AE7
:103E2000F02111704FF0000181614FF00701016135
:103E300070470849086008680028FCD170470548A9
:103E40000168002908BF70470168491E016070477A
:103E500023ED00E024020020064880470648004782
:103E6000FEE7FEE7FEE7FEE7FEE7FEE7FEE7FEE72A
:103E7000FEE7FEE7C9500008310100082D4940F077
:103E8000FD7040F080600860704770B4C3780278BD
:103E90000F244FF0E0214FF0010C03B3D1F80C3D9B
:103EA000867803F4E063C3F5E0631B0AC3F10405FD
:103EB00024FA03F344781E4004FA05F333430A441A
:103EC0001B0182F800340078420900F01F0001EB6A
:103ED00082010CFA00F0C1F8000170BC704702F0DA
:103EE0001F000CFA00F0520901EB8201C1F88001B9
:103EF00070BC704721F07F0121F0604108430E49FA
:103F0000086070474FF0E0220029D2F8101D14BF5E
:103F1000084321EA0000C2F8100D70474FF0E0217D
:103F2000042808690CBF40F0040020F00400086178
:103F3000704700000CED00E008ED00E002684FF66D
:103F4000FE7300211A400260016041608160C1601F
:103F5000694A6A49904204BF486840F00F0022D085
:103F6000674A904204BF486840F0F0001BD0654AA1
:103F7000904204BF486840F4706014D0624A904296
:103F800004BF486840F470400DD0604A904204BFBE
:103F9000486840F4702006D05D4A904204BF4868EB
:103FA00040F4700001D1486070475A4A904204D1F1
:103FB000486840F0706048607047574A904204BFBC
:103FC000D1F8040440F00F0017D0544A904204BFC7
:103FD000D1F8040440F0F0000FD0514A904204BFE1
:103FE000D1F8040440F4706007D04E4A904204BFF8
:103FF000D1F8040440F4704002D1C1F804047047C1
:10400000494A904218BF7047D1F8040440F4702028
:10401000C1F80404704730B402680D6A8B68D1F8A7
:1040200010C01D43D1E905434CEA040C45EA0C04D9
:10403000D1F81CC01C4344EA0C04D1E9093C2343D9
:104040006FF30E1243EA0C031A430260CA6842601F
:104050000A6882604968C16030BC70470021016015
:1040600041608160C160016141618161C161016242
:104070004162816270470029016812BF41F001016D
:104080004FF6FE72114001607047002A026814BFAB
:10409000114322EA010101607047416070474068A6
:1040A00080B270470021154A10F0805F14BFD2F82B
:1040B00000241268024218BF0121084670470F49C8
:1040C00010F0805F14BFC1F80404486070470021FD
:1040D00010F0805F094A14BFD2F80024126802422F
:1040E00018BF012108467047044910F0805F14BFD3
:1040F000C1F8040448607047080002400000024014
:104100001C000240300002404400024058000240BF
:104110006C00024080000240080402401C0402407F
:1041200030040240440402405804024010B5A0F19B
:104130008041B1F5843109D10121042000F07BFADE
:104140000021BDE81040042000F075BAA0F18041C4
:10415000B1F5863109D10121082000F06CFA002167
:10416000BDE81040082000F066BAA0F18041B1F52A
:10417000883109D10121102000F05DFA0021BDE84D
:104180001040102000F057BAA0F18041B1F58A31FB
:1041900009D10121202000F04EFA0021BDE8104095
:1041A000202000F048BAA0F18041B1F58C3109D14E
:1041B0000121402000F03FFA0021BDE810404020DE
:1041C00000F039BAA0F18041B1F58E3109D1012159
:1041D000802000F030FA0021BDE81040802000F07F
:1041E0002ABAA0F18041B1F5903118BF10BD01216C
:1041F000080200F020FABDE8104000214FF4807062
:1042000000F019BA10B50121084600F014FA002197
:10421000BDE81040012000F00EBA2DE9F001CB7886
:10422000002213F0100F03F00F0C1CBF8B7843EA31
:104230000C0C0B880F26012513F0FF0F18BF046824
:104240001AD000BF0F8805FA02F31F409F420FD11A
:10425000970006FA07F824EA08040CFA07F73C432B
:10426000CF78282F08BF436102D0482F08BF0361D1
:10427000521C082AE6D304600A88FF2A87BF4468D4
:104280000022BDE8F001704702F108030F8805FA2B
:1042900003F31F409F420FD1970006FA07F824EA64
:1042A00008040CFA07F73C43CF78282F08BF436176
:1042B000CF78482F08BF0361521C082AE4D344601A
:1042C000BDE8F00170474FF6FF7101800221817057
:1042D0000421C17070470246002092680A4218BF4C
:1042E00001207047806880B2704702460020D26883
:1042F0000A4218BF01207047C06880B27047016150
:10430000704741617047002A14BF016141617047E5
:10431000C160704741F4803282618161826181694C
:10432000806970472B4A13684FF6807C03EA0C03C0
:1043300043EA00100843106070472749C86170477E
:1043400070B4244A10F0004F14BFD3695368C0F30F
:1043500003444FF4401C3CEA00054FEA505C4FEA2E
:104360000C1C86B206FA0CFC16D010F4801F08BF95
:1043700023EA0C0303D0032505FA04F4A34343F016
:104380007063002918BF4CEA030310F0004F14BFFC
:10439000D361536070BC7047546823F0706324F09D
:1043A00070645460EDE78A0721F0030101F1804158
:1043B00001F58031120F0F23D1F808C093402CEA89
:1043C00003038B608B6890401843886070470349F3
:1043D000086070470000014000002042DC002042DD
:1043E000AB48016841F0010101604168A94A1140F0
:1043F0004160016821F4102121F0807101600168A1
:1044000021F48021016042684FF41F0122F4FE0272
:104410004260816070479E490A6822F480320A60D7
:104420000A68B0F5803F22F480220A6004BF086861
:1044300040F4803006D0B0F5802F06BF086840F405
:10444000A020704708607047002243099049012B63
:1044500008BF096803D0022B0CBF096A496A00F043
:104460001F00012303FA00F0084218BF0122104682
:104470007047874A00200021136813F4003F18BFDB
:104480000121401CB0F5A06F01D00029F3D01068C5
:1044900010F4003018BF012070477D490A6822F0EF
:1044A000F80242EAC000086070477B490860704724
:1044B000774A5368084323F47C13184350607047CD
:1044C00075490866704772494A6822F00302104332
:1044D000486070476E48406800F00C0070476C49B7
:1044E0004A6822F0F00210434860704768494A6801
:1044F00022F4E06210434860704765494A6822F43C
:10450000605242EAC00048607047614A0029517A0F
:1045100014BF084321EA0000507270475F490860E9
:1045200070475B494A6822F4404210434860704734
:104530005749002281F8202081F82020012803D04B
:1045400004280CBF0520704781F8200070475449AB
:10455000086070474E490A6A104308627047514923
:10456000086070474A494B684F4A13F00C0318BF64
:10457000042B01D0082B01D0026015E04A684B687B
:1045800002F470124FF0020C0CEB924213F4803FD5
:1045900003D04B6813F4003F03D0444B5A430260EE
:1045A00002E0414B5A4302604A6802F0F0021309EC
:1045B0003F4AD35CD0F800C02CFA03F34360D1F833
:1045C00004C00CF4E06C4FEA1C2C12F80CC023FA67
:1045D0000CFCC0F808C0D1F804C00CF4605C4FEAD1
:1045E000DC2C12F80C2023FA02F2C2604968314B2D
:1045F00001F44041890B595CB2FBF1F10161704754
:10460000234A0029516914BF084321EA0000506180
:1046100070471F4A0029916914BF084321EA00002E
:10462000906170471A4A0029D16914BF084321EAF2
:104630000000D0617047164A0029D16814BF0843B2
:1046400021EA0000D0607047114A0029116914BFA7
:10465000084321EA0000106170471749086070475D
:104660000D49C86470470A49C87170470848416AD3
:1046700041F0807141627047054A0146002092680E
:104680000A4218BF01207047014988727047000034
:10469000001002400000FFF800004242D8004242F1
:1046A000800442423C04424200127A0000093D006C
:1046B0002C020020280200204004424264480021CD
:1046C000016041608160C16041628162C162614A92
:1046D0008263C16370475E4930B44A68D0E90135EE
:1046E00090F814C0C4684CEA05052343D0F800C014
:1046F0002B43006922F0FF0243EA0C0322F4FC4240
:1047000018431043486030BC7047002101750160B8
:1047100041608160C160016170474F490860704726
:104720004B490A6822F003020A600A6810430860D5
:1047300070474748006800F003007047444A00296A
:10474000D16B14BF084321EA0000D063704743498E
:104750000860704710B43E4902688A60CA68D0E9B0
:104760000134D0E903C023434CEA00006FF30A028E
:1047700018431043C86010BC7047002101604160BD
:104780008160C1600161704731480069C0B2704703
:1047900033494058704710B42D4902684A62426854
:1047A0008A62CA6AD0E9023CD0E9044043EA0C03B9
:1047B000204322F0F70218431043C86210BC704730
:1047C0004FF0FF310160002141608160C1600161F3
:1047D000416170471E48006B70472248006870476F
:1047E0002049086070471A48806C70471E4908606D
:1047F00070471E49086070471D49086070471D4991
:10480000086070471C49086070471C490860704781
:10481000012121EA00001A4908607047194908601F
:1048200070470B4A01460020526B0A4218BF012014
:104830007047074988637047054A01460020526B5C
:104840000A4218BF01207047014988637047000081
:1048500000800140FF07C000A00030428C053042BC
:104860001480014080800140A0053042A405304200
:10487000A8053042AC053042AC013042B0013042B4
:10488000B4013042B801304210B5A0F18041B1F519
:104890009C310AD101218803FFF7CDFEBDE810400D
:1048A00000214FF48040FFF7C6BEA0F18041B1F572
:1048B00088410AD101214804FFF7C6FEBDE8104037
:1048C00000214FF40030FFF7BFBEA0F18041B1F5E9
:1048D00090410AD101218804FFF7B6FEBDE81040DF
:1048E00000214FF48020FFF7AFBEA0F18041B1F569
:1048F00098410AD10121C804FFF7A6FEBDE8104087
:1049000000214FF40020FFF79FBEA0F18041B1F5D8
:10491000A04118BF10BD01210805FFF795FEBDE8B5
:10492000104000214FF48010FFF78EBE30B50446D2
:10493000008A85B00D464CF6FF710840E9880843AF
:104940002082A0894EF6F3110840A9882A891143D4
:104950006A8910430843A081A08A4FF6FF410840AE
:10496000A9890843A0826846FFF7FCFDA4F18040B6
:10497000B0F59C300CBF03980298A18911F4004F48
:1049800000EBC00101EB0010296814BF4900890049
:10499000B0FBF1F0954A6FF0180CA2FB0031490909
:1049A00009010B0903FB0CF3B4F80CC000EB830006
:1049B00032231CF4004F14BF03EBC00003EB0010C4
:1049C000A2FB00204FEA501014BF00F0070000F0D7
:1049D0000F000843208105B030BD4FF4165101602F
:1049E00000218180C18001810C2242818181704738
:1049F00010B4028A4FF2FF031A400B88B1F802C0CC
:104A00008C88C98843EA0C0321431943114301826E
:104A100010BC70470021018041808180C1807047B7
:104A20000029818914BF41F4005121F40051818192
:104A30007047C1F3421301F01F014FF0010C0CFA53
:104A400001F1012B08BF0C3003D0022B0CBF10303A
:104A50001430002A026814BF114322EA01010160E8
:104A60007047002A828A14BF114322EA0101818221
:104A70007047028A22F00F020282028A11430182E9
:104A80007047828922F40062828182891143818188
:104A900070470029818914BF41F0020121F0020111
:104AA00081817047028A22F020020282028A114329
:104AB000018270470029018A14BF41F4804121F42A
:104AC000804101827047C1F308018180704780886E
:104AD000C0F308007047818941F00101818170476E
:104AE000028BD2B20283028B42EA0121018370471A
:104AF000028B02F47F420283028B114301837047D1
:104B00000029818A14BF41F0200121F02001818217
:104B100070470029818A14BF41F0100121F0100173
:104B2000818270470029818A14BF41F0080121F079
:104B30000801818270470029818914BF41F4004136
:104B4000C1F30E01818170470029818A14BF41F4AD
:104B5000006121F4006181827047828A22F00402A0
:104B60008282828A1143818270470029818A14BF20
:104B700041F0020121F002018182704702460020CB
:104B800012880A4218BF01207047C943018070474C
:104B900010B401F01F0201240023C1F3421C04FAE7
:104BA00002F2BCF1010F04BFB0F80CC00CEA020223
:104BB00008D0BCF1020F0CBFB0F810C0B0F814C0A0
:104BC0000CEA0202090A008804FA01F1002A00EA4C
:104BD00001001CBF00280123184610BC7047090AB9
:104BE000012202FA01F1C943018070471F85EB5190
:104BF0004FF0204202EB8001002807BF43F2DB00A8
:104C0000106043F2D20008606FF070404860C1F855
:104C10000401704740234FF0180C4FF020414FF033
:104C2000FC32102801BFC1F860C04B668A66CA66B4
:104C30001FBFC1F880C0C1F88430C1F88820C1F816
:104C40008C2070471821F94801604FF00001416045
:104C50004FF0FC318160C1600161704770B4011D8B
:104C600091E80E10114343EA0C030B43D0E90521F0
:104C700013430B43D0E907211A431143D0E909320A
:104C80000B431343D0E90B120B43134301684FF05E
:104C9000204242F821308168082906D1016802EBE0
:104CA00081010B6843F040030B60416BD1E9013C8B
:104CB0000E68D1E9034546EA03164FEA0C2C4CEA8C
:104CC000044CD1E9053146EA0C0C4CEA055C4CEA8F
:104CD000036C03684CEA010102EB83035960C16A6B
:104CE000B1F5804F08D000686FF0704102EB800092
:104CF000C0F8041170BC7047816B0068D1E901C332
:104D0000D1E904560C681B0244EA0C1C43EA055323
:104D100089694CEA030343EA066302EB8000194306
:104D2000C0F8041170BC704730B4D0E9012CD0E950
:104D3000031342EA0C0C1943D0E905234CEA0101A4
:104D400041EA4222C16942EA433242F00802D1E913
:104D5000003C8C68CD682404016A43EA0C2344EAD1
:104D600005642343D1E90145D1F800C0C9684CEA84
:104D7000042C2C04056844EA01614FF020404CEA01
:104D80000101102D03BF02668366C166C0F8802052
:104D90001CBFC0F88830C0F88C1030BC704710B40D
:104DA000D0E9001341EA4323D0F808C010229F49FC
:104DB00042EA4C321A430A60C268D2E9013C1468E4
:104DC000D2684FEA0C4C44EA03234CEA026243EAFD
:104DD00002028A600269D2E9013C1468D2684FEA93
:104DE0000C4C44EA03234CEA026243EA0202CA6022
:104DF0004069D0E90123D0F800C0C0684FEA0343FE
:104E00004CEA022243EA006042EA0000086110BC5A
:104E1000704700210222C0E900128160C160016177
:104E200041618161D202C161C0E908125200C0E94A
:104E30000A210163D0F834C00F22FF23CCF80020F0
:104E4000D0F834C0CCF80420D0F834C0CCF8083006
:104E5000D0F834C0CCF80C20D0F834C0CCF81020F6
:104E6000D0F834C0CCF81420D0F834C0CCF81810E6
:104E7000D0F838C0CCF80020D0F838C0CCF80420E6
:104E8000D0F838C0CCF80830836BDA60836B1A61D5
:104E9000836B5A61806B8161704710210160002132
:104EA00041608160C160016141618161C269FC2131
:104EB0001160C2695160C2699160C269D160026AC1
:104EC0001160026A5160026A9160006AC1607047B5
:104ED0000021016041608160C268FC211160C268EC
:104EE0005160C2689160C268D16002691160026954
:104EF0005160026991600269D16042691160426942
:104F00005160426991604069C16070474FF0204232
:104F100002EB80000029016812BF41F00101444A00
:104F20001140016070474FF0204251B110280CBF72
:104F3000106ED2F8800040F004000BD0C2F8800060
:104F400070473C49102814BFD2F88000106E00EA68
:104F50000100F3D1106670474FF020410028D1F8CE
:104F6000A00012BF40F00400324A1040C1F8A00077
:104F700070474FF0204251B110280CBF106ED2F88C
:104F8000800040F040000BD0C2F8800070472A49F2
:104F9000102814BFD2F88000106E00EA0100F3D18F
:104FA000106670474FF0204110280CBF486FD1F8B1
:104FB000940070474FF020438AB1102804BF586E08
:104FC00008431ED0B0F5807F0CBFD3F88400D3F81F
:104FD000A40040EA010011D0C3F8A40070471028D3
:104FE00004BF586E88430CD0B0F5807F0CBFD3F857
:104FF0008400D3F8A40020EA0100EDD1C3F88400B6
:1050000070475866704700234FF02042102808BFB1
:10501000506E06D0B0F5807F0CBFD2F88400D2F875
:10502000A400084218BF012318467047A00000A042
:10503000FEFF0F00FBFF0F00BFFF0F004FF02042ED
:1050400010280ED0B0F5807F0CBFD2F88400D2F8C3
:10505000A40020EA01000CBFC2F88400C2F8A4003A
:105060007047506E88435066704700224FF02043CF
:10507000102808BF586E06D0B0F5807F0CBFD3F85B
:105080008400D3F8A400084200EAD1001CBF002825
:105090000122104670474FF0204210280ED0B0F584
:1050A000807F0CBFD2F88400D2F8A40020EAD1009F
:1050B0000CBFC2F88400C2F8A4007047506E20EA0A
:1050C000D1005066704700004748016841F0010177
:1050D00001604168454A11404160016821F4102196
:1050E00021F080710160016821F480210160426833
:1050F0004FF41F0122F4FE02426081600268002129
:1051000042F4803202600268491C12F4003F02D16E
:10511000B1F5A06FF7D1016811F4003F31D03449E7
:105120000A6842F010020A600A6822F003020A606C
:105130000A6842F002020A604168416041684160C9
:10514000416841F480614160416821F47C11416013
:10515000416841F4E8114160016841F080710160EB
:10516000016811F0007FFBD0416821F0030141602C
:10517000416841F002014160416801F00C010829D9
:10518000FAD11C494FF000600860704716494B681F
:10519000194A1A4813F00C0318BF042B01D0082B2E
:1051A00001D0026015E04A684B6802F470124FF0BB
:1051B000020C0CEB924213F4803F03D04B6813F4C3
:1051C000003F03D00E4B5A43026002E00A4B5A43A1
:1051D00002604A680B49C2F30312895C026822FA32
:1051E00001F1016070470000001002400000FFF86C
:1051F0000020024008ED00E000127A003C0200208E
:1052000000093D00400200202DE9F041C56A044636
:105210000F468D422FD02079F0B1607801232A46C5
:1052200004F1300101F0F4FD10BB00202071D4E93D
:1052300007100844A84284BFE678012E0CD9E06923
:105240000123054460782A4604F1300101F0E0FDB5
:10525000701EC6B2012EF2D86FB1607801233A46B3
:1052600004F1300101F0B9FD002808BFE76202D067
:105270000120BDE8F0810020BDE8F0818269891E2F
:10528000921E8A4291BF0020826A807801FB002032
:1052900070472DE9F04104460D46022924BFA0695C
:1052A000A8429CBF0120BDE8F0812078012806D0EB
:1052B00040F2FF16022827D0032839D131E0206AB6
:1052C00005EB550600EB56212046FFF79DFF78BB06
:1052D000C6F308002044761C90F83070206A00EB7A
:1052E00056212046FFF790FF10BBC6F3080020446C
:1052F00015F0010F90F8300047EA002014BF0009B4
:10530000C0F30B00BDE8F081206A00EB15212046B8
:10531000FFF77AFF60B906EA45002044008EBDE839
:10532000F081206A00EBD5112046FFF76DFF18B120
:105330004FF0FF30BDE8F08106EA8500204410F808
:10534000301FD0F8010041EA002020F07040BDE895
:10535000F0812DE9F04104460D461646022924BF8E
:10536000A069A8429CBF0220BDE8F08120780127F7
:1053700001280AD040F2FF1802283BD0032818BFAA
:10538000022047D02771BDE8F081206A05EB55085F
:1053900000EB58212046FFF737FF0028F2D1C8F371
:1053A0000800204400F1300115F0010FF0B203D0E5
:1053B0000246087862F31F1008702771206A08F10E
:1053C000010800EB58212046FFF71EFF0028D9D125
:1053D000C8F308012144303115F0010F18BFC6F39E
:1053E000071205D10A78C6F3032302F0F0021A432C
:1053F0000A70C7E7206A00EB15212046FFF704FF7B
:105400000028BFD108EA45012144320A01F8306F73
:105410004A70B7E7206A00EBD5112046FFF7F4FE8B
:105420000028AFD108EA8501214401F13002D1F80A
:1054300031104FF0704303EA0121314311700B0A20
:1054400053700B0C9370090ED1709BE72DE9F0415E
:1054500006460F000DD0FFF71CFF02283CBF0120BD
:10546000BDE8F081B16988422CBF3C46BDE8F081BF
:1054700006E0F468002C1CBFB069A04298BF01246C
:105480002546B0696D1CA8429CBF0225022C0BD397
:1054900029463046FFF7FDFE48B1411C14BF0128E4
:1054A000BDE8F081A542ECD10020BDE8F0816FF0AD
:1054B000704229463046FFF74CFF30B96FB12A469B
:1054C00039463046FFF745FF38B101280CBF4FF091
:1054D000FF3501252846BDE8F081F5603069411CA3
:1054E000F8D0401E306101207071F3E770B50D46B1
:1054F000C18081680446012914D0206882698A42EB
:1055000010D989B180780601AE4223D82068FFF710
:10551000C0FE0146401C17D0022903D320688069D1
:10552000884213D8022070BD0278032A08D0E160B7
:105530000189A942F6D9406A00EB1510206118E0F4
:10554000416A0029DED1F2E7012070BDA81B85B2B7
:10555000AE42DBD9E1602068891E8269921E8A42D0
:1055600091BF0020826A807801FB002000EB1510BB
:10557000206105F00F013022206802EB4111084440
:105580006061002070BD2DE9F0410446C0880F46DF
:10559000401C0604360C1CBF206900282FD016F0D2
:1055A0000F0F77D1401C2061E168206829B1827813
:1055B000521E12EA161F04D06CE00089B0421ED9B8
:1055C00068E0FFF766FE054601281BD9681C43D03A
:1055D00020688169A94250D88FB1E168FFF736FF92
:1055E000050004BF0720BDE8F081012D0AD0681C2A
:1055F00032D000212068FFF707FE30B12CE00420F4
:10560000BDE8F0810220BDE8F08120684FF001087C
:1056100000F12F014FF4807000224A7001F8022F30
:10562000401EFAD12068A91E8269921E8A4298BF44
:10563000002103D98278836A01FB0231C1622068AC
:1056400000278078002814D92068002180F8048081
:105650002068FFF7D9FD10B10120BDE8F081206876
:10566000791CCFB2C16A491CC16220688078B842F7
:10567000EAD82068C16AC91BC162E5602068A91E1A
:105680008269921E8A4291BF0020826A807801FB63
:1056900000202061E68006F00F013022206802EB36
:1056A0004111084460610020BDE8F08170B51546E5
:1056B00082B006461C460B2201F050FB052C09D98E
:1056C00035F8021B600800EBC4302A88084484B215
:1056D000002AF5D107216B4604F00F0000F13002DB
:1056E000392A84BFD01DC2B25A54491E2409F3D1AD
:1056F0004FF07E0C002203F801C04C1E07E08138F9
:105700007D2803D8A24218BF521C05D0521C8A42E1
:1057100002D2B05C2028F2D1082934BF491C4FF0D6
:10572000200C06F802C0521CB2F1004F24BF02B098
:1057300070BD082A04BF02B070BDB018401EC2F18F
:10574000080212F0010F08D008293ABF13F801C06F
:10575000491C4FF0200C00F801CF520804BF02B0E2
:1057600070BD08293ABF13F801C0491C4FF0200C46
:1057700080F801C008293ABF13F801C0491C4FF056
:10578000200C00F802CF521EEBD102B070BD2DE903
:10579000F04F83B005460021FFF7A8FE00281CBF8C
:1057A00003B0BDE8F08FFF20DFF8D8B501904FF6C9
:1057B000FF7A009029692868FFF726FD06007ED150
:1057C0006C69207858B1E17AE52801F03F0104D0F6
:1057D00011F0080F05D00F2908D0FF2050E0042653
:1057E00085E00F2902D00098A0B361E0D5F81C90A5
:1057F000B9F1000F74D010F0400F06D0617B20F09B
:1058000040000090EA8801912A840099884235D1AD
:10581000617B0198814231D120784FF0000820F05F
:105820004000401E00EB800101EBC0065FF0010765
:105830001BF80800204400886FB101F030FB0746D8
:10584000322E1BD239F81600761C01F028FBB84224
:1058500014D102E016E0504510D108F10108B8F16A
:105860000D0FE5D3207810F0400F1DBF002F39F841
:1058700016000028009808BF401E00D0FF20C0B2CC
:1058800000902DE02078637821460522470807EB39
:10589000C0101844C0B211F802CF470807EBC0107F
:1058A0004B786044C0B2521EF0D1019988421ED09C
:1058B000FF200090A5F820A0A869C17A00E016E0BA
:1058C00011F0010F08BF0A210AD101E0491E06D3D9
:1058D00014F8013B10F8012B9A1A01D1F6E732B106
:1058E00000212846FFF74FFE06003FF463AF03B0E8
:1058F0003046BDE8F08F2DE9F84F8246087889469A
:105900002F2814BF5C2801F101090024CAF80840BF
:1059100099F80020202A07D200215046FFF7E6FD23
:10592000CAF81440BDE8F88F99F800002F2814BF7A
:105930005C2809F10109F7D00024DAF81C6025463B
:1059400019F805006D1C20282CD32F2818BF5C28BF
:105950006CD0322C71D2C0B2A0F181017D290DD85A
:1059600019F805106D1CA1F140023F2A27BFA1F1D3
:1059700080027F2A01EB002080B25ED2012101F07B
:1059800067FA020059D0802A38BFFFA106D20878F2
:1059900020B1904218BF491CF9D14EE026F81420DE
:1059A000641CCDE7A9440427ECB300BF06EB440018
:1059B00030F8020C202818BF2E283AD0A4B30021BA
:1059C00026F81410DAF81800421E202002F8010F01
:1059D0000521507002F8020F491EFAD15FF0000550
:1059E00036F81500202814BF2E286D1CF8D0002D85
:1059F00018BF47F003073CB106EB440030F8020C37
:105A00002E2818BF641EF6D14FF000084FF0080B87
:105A1000CDF8008036F815006D1C80B3202811D019
:105A20002E280DD011E006E007E0FFE7A94400278B
:105A3000BAE7641EBAD1062096E00620BDE8F88FCA
:105A4000A54202D047F00307E4E7D84501D2A542BA
:105A500021D1BBF10B0F10D0A54218BF47F00307AF
:105A60000DD8009825464FEA80604FEA10604FF04D
:105A700008084FF00B0B0090CCE747F00307DAF86B
:105A800018000178E52904BF05210170BBF1080F5A
:105A9000009849D145E0802806D301F000FA0021A2
:105AA00001F0D6F947F00207B0F5807F10D3ABF1D3
:105AB0000101884524BF47F00307D846AAD2DAF887
:105AC0001830020A08F1010103F80820884620E096
:105AD000002818BFAFA105D00A783AB1824218BF9A
