:020000040800F2
:100000003004002045010008F5010008F701000850
:10001000FB010008FF0100080302000800000000C7
:1000200000000000000000000000000007020008BF
:1000300009020008000000000B0200080D02000881
:100040005F0100085F0100085F0100085F01000810
:100050005F0100085F0100085F0100085F01000800
:100060005F0100085F0100085F0100085F010008F0
:100070005F0100085F0100085F0100085F010008E0
:100080005F0100085F0100085F0100085F010008D0
:100090005F0100085F0100085F0100085F010008C0
:1000A0005F0100085F0100085F0100085F010008B0
:1000B0005F0100085F0100085F0100085F010008A0
:1000C0005F0100085F0100085F0100085F01000890
:1000D0005F0100085F0100085F0100085F01000880
:1000E0005F0100085F0100085F0100085F01000870
:1000F0005F0100085F0100085F0100085F01000860
:100100005F0100085F0100085F0100085F0100084F
:100110005F0100085F0100085F0100085F0100083F
:100120005F0100085F0100085F0100085F0100082F
:10013000DFF80CD001F01EF8004800476901000804
:10014000300400200648804706480047FEE7FEE7E7
:10015000FEE7FEE7FEE7FEE7FEE7FEE7FEE7FEE777
:10016000491000083101000810B500F051F800F006
:1001700097F826E00121134800F064FC00BF20211D
:10018000114800F0A4FE0128F9D10F4800F035FE17
:10019000C4B221460DA000F0FFFF601CC4B20121D3
:1001A000084800F04DFC2146074800F022FE00BF41
:1001B0004021054800F08BFE0128F9D108A000F08D
:1001C000EBFFD7E70008014000440040BDD3CAD58B
:1001D000B5BDB5C4CAFDBEDDCEAA2564200D0A009A
:1001E000B7A2CBCDCAFDBEDDB3C9B9A6A3A10D0A86
:1001F00000000000704700BFFEE700BFFEE700BF41
:10020000FEE700BFFEE77047704770477047000089
:1002100000B585B00121042000F0A8FA01214804AE
:1002200000F0B1FA0420ADF8100018208DF813008A
:1002300003208DF8120004A9174800F059FB08208C
:10024000ADF8100004208DF8130004A9124800F046
:100250004FFB0120ADF8100010208DF8130004A909
:100260000D4800F045FB4FF4E13000900020ADF860
:100270000400ADF80600ADF80800ADF80C000C2045
:10028000ADF80A006946054800F0B9FC01210348B1
:1002900000F040FD05B000BD0008014000440040F2
:1002A00000B585B0012144F2040000F05FFA4FF47C
:1002B0000070ADF8100018208DF8130003208DF8A1
:1002C000120004A9744800F013FB4FF48060ADF8ED
:1002D000100004208DF8130004A96F4800F008FBFB
:1002E0004FF4E13000900020ADF80400ADF80600B6
:1002F000ADF80800ADF80C000C20ADF80A00694616
:10030000664800F07CFC0121644800F003FD05B064
:1003100000BD70B504460D46E1B2604800F069FDCD
:1003200000BF40215D4800F0D2FD0128F9D12046F0
:1003300070BDF0B5034600270E460A2A03D0002000
:1003400030700846F0BD33B9302006F8010B0020AC
:1003500030700846F6E7002B03DA2D2006F8010B73
:100360005B4242F210740DE093FBF4F505B937B12E
:1003700005F1300006F8010B05FB143301270A20B4
:1003800094FBF0F4002CEFDC002030700846D9E735
:100390000FB470B586B004460CA8019073E00B98BA
:1003A00000785C281CD10B98401C0B9000786E28BC
:1003B00009D072280FD10D21204600F01AFD0B98AC
:1003C000401C0B900BE00A21204600F012FD0B9818
:1003D000401C0B9003E00B98401C0B9000BF4BE0BF
:1003E0000B980078252840D10B98401C0B90007882
:1003F000642818D0732833D1019820C801900BE0ED
:100400002978204600F0F5FC00BF4021204600F08E
:100410005EFD0028F9D06D1C28780028F0D10B98DB
:10042000401C0B9020E0019840C801900A2202A9CC
:100430003046FFF77EFF02AD0BE02978204600F042
:10044000D8FC00BF4021204600F041FD0028F9D033
:100450006D1C28780028F0D10B98401C0B9003E00D
:100460000B98401C0B9000BF06E00B9810F8011B86
:100470000B90204600F0BDFC00BF4021204600F05C
:1004800026FD0028F9D00B980078002887D106B007
:1004900070BC5DF814FB000000080140003801400A
:1004A000DB48006840F00100D94908600846406810
:1004B000D8490840D649486008460068D6490840EF
:1004C000D34908600846006820F480200860084688
:1004D000406820F4FE0048604FF41F0088607047B9
:1004E000CB49096821F48031C94A11601146096875
:1004F00021F480211160B0F5803F03D0B0F5802F4A
:100500000ED106E0C249096841F48031C04A116049
:1005100007E0BF49096841F4A021BD4A116000E02D
:1005200000BF00BF704710B5014600220023002025
:100530004A11012A02D1B64C236806E0022A02D1F0
:10054000B34C236A01E0B24C636A01F01F0201243C
:1005500094401C4201D0012000E0002010BD70B585
:1005600000240025002600BF3120FFF7DCFF0646EF
:10057000641CB4F5A06F01D0002EF5D03120FFF738
:10058000D2FF08B1012500E00025284670BD0021FA
:100590009F4A116821F0F80141EAC00111607047DB
:1005A0009E49086070470022994B5A6822F47C12D9
:1005B00040EA01031A43964B5A6070479749086610
:1005C00070470021924A516821F0030101435160B4
:1005D00070478F48406800F00C00704700218C4A3B
:1005E000516821F0F0010143516070470021884AB1
:1005F000516821F4E0610143516070470021844A51
:10060000516821F4605141EAC0015160704729B13D
:100610007F4A527A02437E4B5A7206E07C4A527AF3
:10062000C343DBB21A407A4B5A7270477B49D831C8
:10063000086070470021764A516821F44041014327
:10064000516070470021724A20321170704A82F85E
:100650002010012802D004280AD104E001216C4AAC
:100660002032117005E00521694A2032117000E046
:1006700000BF00BF70476A49086070476449096A53
:100680000143634A11627047654944390860704705
:1006900030B500210022002300245D4D6D6805F077
:1006A0000C0121B1042905D0082923D105E05D4DB5
:1006B000056022E05B4D05601FE0554D6D6805F457
:1006C0007012534D6D6805F48033022505EB92429C
:1006D0001BB9554D554305600BE04D4D6D6815F444
:1006E000003F03D0504D5543056002E04D4D55434A
:1006F000056002E04B4D056000BF00BF444D6D68D2
:1007000005F0F0010909494D6C5C0568E54045605C
:100710003F4D6D6805F4E061090A444D6C5C456825
:10072000E54085603A4D6D6805F46051C90A3F4D5A
:100730006C5C4568E540C560354D6D6805F4404129
:10074000890B3A4D10356C5CC568B5FBF4F5056155
:1007500030BD29B12E4A526902432D4B5A6104E043
:100760002B4A526982432A4B5A61704729B1284A61
:1007700092690243264B9A6104E0254A92698243BA
:10078000234B9A61704729B1214AD2690243204B19
:10079000DA6104E01E4AD26982431D4BDA61704778
:1007A00029B11B4AD2680243194BDA6004E0184AA7
:1007B000D2688243164BDA60704729B1144A126935
:1007C0000243134B1A6104E0114A12698243104B31
:1007D0001A61704712494039086070470F49C86470
:1007E00070470B49C87170470948406A40F08070F3
:1007F00007494862704701460020054A92680A424C
:1008000001D0012000E00020704701498872704744
:10081000001002400000FFF8FFFFF6FE0000424219
:100820008004424200127A0000093D0000000020CE
:1008300010B50446C748844208D101210420FFF7BF
:10084000AFFF00210420FFF7ABFF46E0C24884421F
:1008500008D101210820FFF7A3FF00210820FFF79E
:100860009FFF3AE0BD48844208D101211020FFF7E4
:1008700097FF00211020FFF793FF2EE0B848844235
:1008800008D101212020FFF78BFF00212020FFF756
:1008900087FF22E0B348844208D101214020FFF7BE
:1008A0007FFF00214020FFF77BFF16E0AE48844227
:1008B00008D101218020FFF773FF00218020FFF77E
:1008C0006FFF0AE0A948844207D101218015FFF794
:1008D00067FF0021A015FFF763FF10BD10B50121D0
:1008E0000846FFF75DFF00210120FFF759FF10BD0B
:1008F000F0B500220023002400250026002791F8EF
:1009000003C00CF00F0291F803C01CF0100F03D0CD
:1009100091F802C04CEA0202B1F800C01CF0FF0FCF
:1009200031D0066800242BE04FF0010C0CFA04F5DE
:10093000B1F800C00CEA0503AB4220D1A5004FF08E
:100940000F0C0CFA05F7BE4302FA05FC4CEA06064A
:1009500091F803C0BCF1280F06D14FF0010C0CFA3E
:1009600004FCC0F814C00AE091F803C0BCF1480FC1
:1009700005D14FF0010C0CFA04FCC0F810C0641C47
:10098000082CD1D30660B1F800C0BCF1FF0F34DDF4
:10099000466800242EE004F1080C4FF0010E0EFA18
:1009A0000CF5B1F800C00CEA0503AB4221D1A5005B
:1009B0004FF00F0C0CFA05F7BE4302FA05FC4CEAA7
:1009C000060691F803C0BCF1280F05D104F1080C0C
:1009D0000EFA0CFEC0F814E091F803C0BCF1480F09
:1009E00007D104F1080C4FF0010E0EFA0CFEC0F80E
:1009F00010E0641C082CCED34660F0BD4FF6FF71AA
:100A00000180022181700421C170704702460020DC
:100A100093680B4201D0012000E00020704701469E
:100A2000886880B2704702460020D3680B4201D02C
:100A3000012000E0002070470146C86880B270477E
:100A400001617047416170470AB1016100E0416195
:100A50007047C16070474FF480320A438261816100
:100A600082618269826970470022414B1A684FF6A1
:100A700080731A4042EA00120A433D4B1A607047E5
:100A80003C49C8617047F0B50022002300240025CE
:100A900000F00046B6F1004F02D1354EF46901E096
:100AA000334E7468C0F3034582B200F44016B6F5C5
:100AB000401F08D124F070642D4E766826F07066D1
:100AC0002B4F7E6012E000F48016B6F5801F06D131
:100AD000032606FA05F39C4344F0706406E0460DD5
:100AE000360102FA06F6B44344F0706421B1460DB3
:100AF000360102FA06F6344300F00046B6F1004F24
:100B000002D11B4EF46101E0194E7460F0BD30B5A6
:100B100000228B071C0F0F2303FA04F2144B083337
:100B20008C1053F8244094438D1043F825408C10CA
:100B300053F824308C07240F00FA04F423430C4CA0
:100B400008348D1044F8253030BD0A49DC31086086
:100B50007047000000080140000C014000100140F7
:100B60000014014000180140001C01400020014019
:100B7000000001400000204210B50446FB488442BA
:100B800009D101218803FFF70BFE00214FF48040BB
:100B9000FFF706FE32E0F648844209D101214804FD
:100BA000FFF70BFE00214FF40030FFF706FE25E0B3
:100BB000F048844209D101218804FFF7FEFD00219D
:100BC0004FF48020FFF7F9FD18E0EB48844209D18B
:100BD0000121C804FFF7F1FD00214FF40020FFF7C9
:100BE000ECFD0BE0E548844208D101210805FFF740
:100BF000E4FD00214FF48010FFF7DFFD10BD2DE96B
:100C0000F04786B004460D460026002700BFB146D7
:100C1000B246A88900B100BFA246268A4CF6FF70F2
:100C20000640E88806432682A6894EF6F310064061
:100C3000A88829890843698908430643A681A68AAA
:100C40004FF6FF400640A8890643A68201A8FFF799
:100C50001FFD5446C548824501D1049F00E0039F13
:100C6000A08910F4004F08D007EBC70000EB071075
:100C700029684900B0FBF1F807E007EBC70000EB7B
:100C8000071029688900B0FBF1F86420B8FBF0F088
:100C900006013009642101FB1089A08910F4004F7E
:100CA00009D0322101EBC9006421B0FBF1F000F062
:100CB0000700064308E0322101EB09106421B0FB74
:100CC000F1F000F00F000643268106B0BDE8F08782
:100CD0004FF41651016000218180C18001810C21F7
:100CE000418100218181704710B50022028A4FF2B4
:100CF000FF031A400B884C8823438C882343CC88FD
:100D000023431A43028210BD00210180418081806B
:100D1000C180704721B1828942F40052828104E08F
:100D200082894DF6FF731A4082817047F0B5002426
:100D3000002500260023A1F510676A3F00D100BFFF
:100D40000346C1F3421401F01F05012707FA05F617
:100D5000012C01D10C3304E0022C01D1103300E04E
:100D600014331AB11F6837431F6002E01F68B7438E
:100D70001F60F0BD10B51AB1838A0B43838204E073
:100D8000838ACC43A4B22340838210BD028A4FF6EB
:100D9000F0731A400282028A0A43028270478289F3
:100DA0004FF2FF731A40828182890A438281704721
:100DB00021B1828942F00202828104E082894FF6E9
:100DC000FD731A4082817047028A4FF6DF731A4022
:100DD0000282028A0A430282704721B1028A42F4E7
:100DE0008042028204E0028A4BF6FF731A400282BC
:100DF0007047C1F308028280704701468888C0F3BB
:100E000008007047818941F0010181817047028BA0
:100E1000D2B20283028B42EA012202837047028B24
:100E200002F47F420283028B0A430283704721B19E
:100E3000828A42F02002828204E0828A4FF6DF73C7
:100E40001A408282704721B1828A42F01002828267
:100E500004E0828A4FF6EF731A408282704721B114
:100E6000828A42F00802828204E0828A4FF6F77397
:100E70001A408282704721B1828942F40042828105
:100E800003E08289C2F30E028281704721B1828A17
:100E900042F40062828204E0828A4FF2FF731A40B9
:100EA00082827047828A4FF6FB731A408282828A5E
:100EB0000A438282704721B1828A42F00202828212
:100EC00004E0828A4FF6FD731A4082827047024620
:100ED0000020B1F5007F00D100BF13880B4201D084
:100EE000012000E00020704701F40072B2F5007F9D
:100EF00000D100BFCA430280704770B5024600238C
:100F0000002400250020A1F510666A3E00D100BF34
:100F1000C1F3421501F01F04012606FA04F4012D65
:100F200002D19689344006E0022D02D1168A34405F
:100F300001E0968A34400B12012606FA03F3168864
:100F4000334014B10BB1012000E0002070BD10B59A
:100F500000220023A1F510646A3C00D100BF0A12F0
:100F600001249440A3B2DC43048010BD003801404A
:100F70000044004000480040004C00400050004049
:100F800000200021674A126842F48032654B1A60E3
:100F900000BF644A126802F40031401C11B9B0F578
:100FA000A06FF6D15F4A126812F4003F01D0012110
:100FB00000E00021012942D15B4A126842F0100290
:100FC000594B1A601A46126822F003021A601A4638
:100FD000126842F002021A60524A5268514B5A603B
:100FE0001A4652685A601A46526842F480625A6041
:100FF0001A46526822F47C125A601A46526842F429
:10100000E8125A601A46126842F080721A6000BFF5
:10101000444A126812F0007FFAD0424A526822F025
:101020000302404B5A601A46526842F002025A606C
:1010300000BF3C4A526802F00C02082AF9D17047FE
:1010400010B5FFF79DFF10BD10B53648006840F0A1
:101050000100344908600846406834490840314975
:10106000486008460068324908402E490860084632
:10107000006820F4802008600846406820F4FE00E4
:1010800048604FF41F008860FFF7DAFF4FF0006000
:101090002849086010BD10B5002000210022214B16
:1010A0005B6803F00C0020B1042806D0082828D182
:1010B00007E0214B214C236027E01F4B1F4C23608E
:1010C00023E0184B5B6803F47011164B5B6803F464
:1010D0008032022303EB914122B9194B4B43174C49
:1010E00023600DE00F4B5B6813F4003F04D0144BFA
:1010F0004B43124C236003E00F4B4B430F4C2360D8
:1011000003E00D4B0D4C236000BF00BF054B5B6837
:10111000C3F303130B4CE05C084B1B68C340074C44
:10112000236010BD00100240002002400000FFF8C4
:10113000FFFFF6FE08ED00E000127A001400002028
:1011400000093D001800002030B50B460146002084
:101150002022012409E021FA02F59D4205D303FA79
:1011600002F5491B04FA02F52844151EA2F10102FA
:10117000F1DC30BD064C074D06E0E06840F00103AD
:1011800094E8070098471034AC42F6D3FEF7D4FF3A
:1011900024130008441300080FB410B503A9044B2E
:1011A000044A029800F018F810BC5DF814FB000027
:1011B000130300082800002002E008C8121F08C11D
:1011C000002AFAD170477047002001E001C1121FC8
:1011D000002AFBD1704700002DE9FF4F89B004467B
:1011E0009A4600258FE0252875D10027641C4C4ABB
:1011F000B84601212378203B01FA03F0104202D0C7
:101200000743641CF6E720782E281AD114F8010F42
:1012100047F004072A280DD10A98641C50F8048B63
:101220000A900EE008EB880002EB400001EB00089A
:10123000641C01E06FF02F022178A1F13000092831
:10124000F0D92078002862D0642809D0692807D016
:10125000752860D10A994FF00A0901C90A9114E072
:101260000A994FF00A0901C90A91002802DA40429E
:101270002D2102E0390504D52B218DF80010012124
:1012800004E0F90701D02021F7E700218B4609AEE1
:1012900005E04946FFF758FF303106F8011D0028E8
:1012A000F7D101A8801B00F12009780701D44FF085
:1012B00001080020C84501DDA8EB09008046002791
:1012C00006E01DF8070052460B9990476D1C7F1CE5
:1012D0005F45F6DB05E01EE0302052460B99904753
:1012E0006D1CB8F10000A8F10108F5DC05E016F866
:1012F000010B52460B9990476D1CB9F10000A9F102
:101300000109F4DC641C207800287FF46CAF2846C7
:101310000DB0BDE8F08F52460B9990476D1CF1E778
:101320000928010044130008000000202C000000E0
:10133000B8110008701300082C00002004040000FD
:10134000C8110008000000000102030401020304A8
:10135000060708090204060800A24A04000000006B
:101360000000000001020304060708090000000055
:0400000508000131BD
:00000001FF
