:020000040800F2
:1000000000040020CF010008350200083702000874
:100010003B0200083F020008430200080000000005
:10002000000000000000000000000000470200087F
:1000300049020008000000004B0200084D020008C1
:10004000EF010008EF010008EF010008EF010008D0
:10005000EF010008EF0100084F020008EF0100085F
:10006000EF010008EF010008EF010008EF010008B0
:10007000EF010008EF010008EF010008EF010008A0
:10008000EF010008EF010008EF010008EF01000890
:10009000EF010008EF010008EF010008EF01000880
:1000A000EF010008EF010008EF010008EF01000870
:1000B000EF010008EF010008EF010008EF01000860
:1000C000EF010008EF010008EF010008EF01000850
:1000D000EF010008EF010008EF010008EF01000840
:1000E000EF010008EF010008EF010008EF01000830
:1000F000EF010008EF010008EF010008EF01000820
:10010000EF010008EF010008EF010008EF0100080F
:10011000EF010008EF010008EF010008EF010008FF
:10012000EF010008EF010008EF010008EF010008EF
:1001300000F002F800F03CF80AA090E8000C8244BD
:100140008344AAF10107DA4501D100F031F8AFF29A
:10015000090EBAE80F0013F0010F18BFFB1A43F0A5
:1001600001031847380C0000580C0000103A24BF57
:1001700078C878C1FAD8520724BF30C830C144BF0C
:1001800004680C607047000000230024002500264E
:10019000103A28BF78C1FBD8520728BF30C148BFEA
:1001A0000B6070471FB5AFF300801FBD10B510BDC9
:1001B00000F0B9FD1146FFF7F5FF00F02BF800F055
:1001C000D7FDFFF7F3FF00F0DDFD000070470B489F
:1001D00080470B4981F308880A480047FEE7FEE79D
:1001E000FEE7FEE7FEE7FEE7FEE7FEE7FEE7FEE7E7
:1001F00005480649044A064B70470000CD01000837
:1002000078020020310100087800002078020020E8
:100210007800002010B500F058FD00F02FF800BF66
:100220000821034800F090F900F056F800BFFEE7FF
:1002300000100140704700BFFEE700BFFEE700BFAF
:10024000FEE700BFFEE7704770477047704710B584
:10025000012000F047FC70B10821074800F065F963
:10026000C0F10100C4B222460821034800F06EF933
:10027000012000F048FC10BD0010014008B501212C
:10028000102000F041FB3820ADF8000010208DF860
:10029000030003208DF802006946044800F0AAF824
:1002A0003821024800F04EF908BD0000001001405E
:1002B00008B54FF4C06000F031FC06208DF8000056
:1002C00000208DF801008DF8020001208DF8030058
:1002D000684600F028FC08BD0EB50121092000F099
:1002E00013FBFFF7E5FF0120ADF8080028208DF88B
:1002F0000B0002A90A4800F07DF80021012000F05F
:1003000078F90120009000208DF804000C208DF871
:10031000050001208DF80600684600F067FB0EBD61
:10032000000C014010B50446C149601A8C422FD020
:1003300009DCC048201810D0B0F5806F16D0B0F599
:10034000006F4AD11BE0B0F5806F2AD0B0F5006F86
:1003500030D0B0F5406F40D135E00121042000F0ED
:10036000EDFA0021042000F0E9FA37E0012108202D
:1003700000F0E4FA0021082000F0E0FA2EE001216C
:10038000102000F0DBFA0021102000F0D7FA25E061
:100390000121202000F0D2FA0021202000F0CEFA26
:1003A0001CE00121402000F0C9FA0021402000F0AB
:1003B000C5FA13E00121802000F0C0FA002180205E
:1003C00000F0BCFA0AE00121080200F0B7FA0021AF
:1003D0004FF4807000F0B2FA00E000BF00BF10BD23
:1003E00010B50121084600F0A9FA0021012000F013
:1003F000A5FA10BDF0B50022002300240025002638
:10040000002791F803C00CF00F0291F803C01CF014
:10041000100F03D091F802C04CEA0202B1F800C0FC
:100420001CF0FF0F31D0066800242BE04FF0010CC8
:100430000CFA04F5B1F800C00CEA0503AB4220D178
:10044000A5004FF00F0C0CFA05F7BE4302FA05FCAD
:100450004CEA060691F803C0BCF1280F06D14FF014
:10046000010C0CFA04FCC0F814C00AE091F803C0B7
:10047000BCF1480F05D14FF0010C0CFA04FCC0F898
:1004800010C0641C082CD1D30660B1F800C0BCF1C8
:10049000FF0F34DD466800242EE004F1080C4FF015
:1004A000010E0EFA0CF5B1F800C00CEA0503AB42E0
:1004B00021D1A5004FF00F0C0CFA05F7BE4302FA4C
:1004C00005FC4CEA060691F803C0BCF1280F05D1E3
:1004D00004F1080C0EFA0CFEC0F814E091F803C009
:1004E000BCF1480F07D104F1080C4FF0010E0EFAD1
:1004F0000CFEC0F810E0641C082CCED34660F0BDA2
:100500004FF6FF710180022181700421C170704794
:100510000246002093680B4201D0012000E0002039
:1005200070470146886880B2704702460020D36851
:100530000B4201D0012000E0002070470146C8684E
:1005400080B2704701617047416170470AB1016133
:1005500000E041617047C16070474FF480320A4348
:100560008261816182618269826970470022324BB7
:100570001A684FF680731A4042EA00120A432E4B63
:100580001A6070472D49C8617047F0B500220023FA
:1005900000250024284E7568C0F3034482B200F49D
:1005A0004016B6F5401F08D125F07065224E7668DA
:1005B00026F07066204F7E6012E000F48016B6F5DB
:1005C000801F06D1032606FA04F39D4345F07065AB
:1005D00006E0460D360102FA06F6B54345F07065B1
:1005E00021B1460D360102FA06F63543124E75600A
:1005F000F0BD30B500228B071C0F0F2303FA04F265
:100600000D4B08338C1053F8244094438D1043F85D
:1006100025408C1053F824308C07240F00FA04F482
:100620002343054C08348D1044F8253030BD0000BC
:100630000014014000F8FEBF00000140000020420D
:10064000DA48006840F00100D84908600846406870
:10065000D7490840D549486008460068D549084050
:10066000D24908600846006820F4802008600846E7
:10067000406820F4FE004860002088607047CB4945
:10068000096821F48031C94A11601146096821F4D2
:1006900080211160B0F5803F03D0B0F5802F0ED1DE
:1006A00006E0C249096841F48031C04A116007E0A0
:1006B000BE49096841F4A021BC4A116000E000BFB6
:1006C00000BF704710B501460022002300204A11E8
:1006D000012A02D1B54C236806E0022A02D1B34CAC
:1006E000236A01E0B14C636A01F01F0201249440C7
:1006F0001C4201D0012000E0002010BD70B5002494
:100700000025002600BF3120FFF7DCFF0646641CF1
:1007100016B9B4F5A06FF6D13120FFF7D3FF08B1B9
:10072000012500E00025284670BD00219F4A116880
:1007300021F0F80141EAC001116070479E4908604C
:1007400070470022994B5A6822F47C1240EA010358
:100750001A43964B5A6070479749086670470021C4
:10076000924A516821F003010143516070478F485C
:10077000406800F00C00704700218C4A516821F05D
:10078000F0010143516070470021884A516821F40B
:10079000E0610143516070470021844A516821F4AF
:1007A000605141EAC0015160704729B17F4A527AD5
:1007B00002437E4B5A7206E07C4A527AC343DBB254
:1007C0001A407A4B5A7270477B49D831086070479B
:1007D0000021764A516821F440410143516070473D
:1007E0000021724A20321170704A82F820100128CC
:1007F00002D004280AD104E001216C4A2032117091
:1008000005E00521694A2032117000E000BF00BFF9
:1008100070476A49086070476449096A0143634A3E
:1008200011627047654944390860704730B500214E
:100830000022002300245D4D6D6805F00C0121B1FC
:10084000042905D0082923D105E05D4D056022E08B
:100850005B4D05601FE0554D6D6805F47012022573
:1008600005EB9242514D6D6805F480331BB9554D2F
:10087000554305600BE04D4D6D6815F4003F03D006
:10088000504D5543056002E04D4D5543056002E073
:100890004B4D056000BF00BF444D6D6805F0F00191
:1008A0000909494D6C5C0568E54045603F4D6D6840
:1008B00005F4E061090A444D6C5C4568E5408560DB
:1008C0003A4D6D6805F46051C90A3F4D6C5C45684E
:1008D000E540C560354D6D6805F44041890B3A4DE2
:1008E00010356C5CC568B5FBF4F5056130BD29B108
:1008F0002E4A526902432D4B5A6104E02B4A526939
:1009000082432A4B5A61704729B1284A92690243AF
:10091000264B9A6104E0254A92698243234B9A61EF
:10092000704729B1214AD2690243204BDA6104E0C1
:100930001E4AD26982431D4BDA61704729B11B4AB6
:10094000D2680243194BDA6004E0184AD268824345
:10095000164BDA60704729B1144A12690243134BEF
:100960001A6104E0114A12698243104B1A61704700
:1009700012494039086070470F49C86470470B49F5
:10098000C87170470948406A40F080700749486262
:10099000704701460020054A92680A4201D00120B2
:1009A00000E0002070470149887270470010024043
:1009B0000000FFF8FFFFF6FE0000424280044242C2
:1009C00000127A0000093D0000000020002050497C
:1009D00008605049C1F804044D4908310860091DF8
:1009E00008604D484A4914310860704781790029F0
:1009F0004CD04849D1F8001402689143454AC2F8E6
:100A000000141146D1F8041402689143404A121DA3
:100A1000116001793F4A1144D1F800140268114372
:100A200002793C4B1A44C2F800141946D1F8081454
:100A3000026891431A46C2F808141146D1F80C1402
:100A400002689143324A0C3211604179102910D169
:100A50001946D1F80814026811431A46C2F808145E
:100A60001146D1F80C14026811431A46C2F80C144E
:100A700018E04179274A1144D1F800140268114363
:100A80004279244B1A44C2F800140BE00179214A40
:100A90001144D1F800140268914302791D4B1A44A5
:100AA000C2F8001470470021016001710C214171EE
:100AB0000021817170471649103109680143154AB8
:100AC000C2F81014704701460020114A143212680F
:100AD0000A4201D0012000E0002070470C49143187
:100AE00008607047014600200022094B1B6803EA9A
:100AF0000102084BD3F814340B4202D00AB1012092
:100B000000E000207047024914310860704700007F
:100B10000004014000000140FFFF0700324901438B
:100B2000324A1160704770B5002100230F22C4784B
:100B30000CB32E4C246804F4E064C4F5E064210A8C
:100B4000C1F10403CA40447804FA03F184781440E4
:100B500021430901264C0678A155047804F01F05AD
:100B60000124AC4005786D114FF0E02606EB8505B9
:100B7000C5F8004109E0047804F01F040125A540F0
:100B80001C4C0678761144F8265070BD1A4A0A406B
:100B90000243164B1B1F1A60704741B1134A121DC6
:100BA000126802434FF0E023C3F8102D07E00F4A0C
:100BB000121D126882434FF0E023C3F8102D7047D6
:100BC000042808D14FF0E021096941F004014FF0F9
:100BD000E022116107E04FF0E021096921F00401F2
:100BE0004FF0E022116170470000FA050CED00E0C3
:100BF00000E400E080E100E080FFFF1F0020002112
:100C0000434A126842F48032414B1A6000BF404AA6
:100C1000126802F40031401C11B9B0F5A06FF6D192
:100C20003B4A126812F4003F01D0012100E000218C
:100C3000012943D1374A126842F01002354B1A603D
:100C40001A46126822F003021A601A46126842F02D
:100C500002021A602E4A52682D4B5A601A46526898
:100C60005A601A46526842F480625A601A465268C4
:100C700022F47C125A601A46526842F4E8125A6012
:100C80001A46126842F080721A6000BF204A126849
:100C900012F0007FFAD01E4A526822F003021C4B69
:100CA0005A601A46526842F002025A6000BF184A5F
:100CB000526802F00C02082AF9D101E000BFFEE7F9
:100CC000704710B5FFF79AFF10BD10B510480068C7
:100CD00040F001000E490860084640680E4908408F
:100CE0000B494860084600680C49084008490860FC
:100CF0000846006820F4802008600846406820F418
:100D0000FE00486000208860FFF7DBFF10BD000098
:100D100000100240002002400000FFF8FFFFF6FE36
:100D2000704770477047754600F028F8AE460500DA
:100D30006946534620F00700854618B020B5FFF7F6
:100D400057FABDE820404FF000064FF000074FF083
:100D500000084FF0000B21F00701AC46ACE8C009D9
:100D6000ACE8C009ACE8C009ACE8C0098D467047E2
:100D70000446AFF300802046FFF723FA004870478F
:100D80001400002003494FF01800ABBE704700006C
:100D9000090000002600020070470000BC0D00089A
:100DA00000000020140000006C010008D00D0008B5
:100DB0001400002064020000880100080000000008
:100DC00001020304010203040607080902040608DD
:04000005080001CF1F
:00000001FF
