:020000040800F2
:1000000000040020470100088B0100088D01000852
:100010009101000895010008990100080000000006
:100020000000000000000000000000009D0100082A
:100030009F01000800000000A1010008A3010008C2
:1000400067010008670100086701000867010008F0
:1000500067010008670100086701000867010008E0
:1000600067010008670100086701000867010008D0
:1000700067010008670100086701000867010008C0
:1000800067010008670100086701000867010008B0
:1000900067010008670100086701000867010008A0
:1000A0006701000867010008670100086701000890
:1000B0006701000867010008670100086701000880
:1000C0006701000867010008670100086701000870
:1000D0006701000867010008670100086701000860
:1000E0006701000867010008670100086701000850
:1000F0006701000867010008670100086701000840
:10010000670100086701000867010008670100082F
:10011000670100086701000867010008670100081F
:10012000670100086701000867010008670100080F
:10013000DFF80CD001F0E6FC00480047750100082C
:1001400048080020704708488047084981F308881C
:1001500007480047FEE7FEE7FEE7FEE7FEE7FEE7AB
:10016000FEE7FEE7FEE7FEE745010008480800203D
:100170003101000810B501F08AFC00F033FF00F0F7
:100180007DFA00F071FB002010BD704700BFFEE754
:1001900000BFFEE700BFFEE700BFFEE77047704705
:1001A0007047704730B503460024012A03D111344B
:1001B000A1F108000444022A03D1A41DA1F1080002
:1001C000044406E058781D7840EA052004449B1C4E
:1001D000891E0129F6D811B1187804EB002402E039
:1001E000A0B200EB1444200CFAD14FF6FF7584EA5C
:1001F000050030BD30B50023FB4C227005E0CC5C1F
:10020000F94D1335EC545C1CE3B2042BF7DB0023EF
:1002100005E0C45CF44D0D35EC545C1CE3B2062BD8
:10022000F7DB30BD10B503460022292901D200209A
:1002300010BD187B082802D1587B062801D0002069
:10024000F6E70BE002F12600185CE74C1334A45CDF
:10025000A04201D00020EBE7501CC2B2042AF1DB1F
:100260000120E5E710B5034600222A2901D200202B
:1002700010BD187B082801D1587B08B10020F7E792
:10028000987B452801D00020F2E70BE002F11E0028
:10029000185CD54C1334A45CA04201D00020E7E7E1
:1002A000501CC2B2042AF1DB0120E1E7002109E081
:1002B0008A1D835C4354CC4A0D32535C8A1D83549F
:1002C0004A1CD1B20629F3DB704730B50446002042
:1002D0002076607640202075002060754020A07553
:1002E0000022142104F10E00FFF75CFF0546280AE6
:1002F0002076657630BD30B5054600240CE004F16B
:100300001A00295C001D2954B7481330015D04F11F
:100310001A002954601CC4B2042CF0DB2846FFF7F5
:10032000D4FF30BDF0B5002409E004F12206875D5A
:10033000B61C87550027B61E8755661CF4B2022CE2
:10034000F3DBA94E367880F82360042412E004F130
:100350002506865D314404F12906855D815513B17A
:10036000361F855503E0002704F125068755090A45
:10037000661EF4B2002CEADC8BB9002600F8266F6A
:100380004670994E0C36367886700026C670263830
:10039000954E0C363678B61C934F0C373E700026BF
:1003A00080F8326080F8336062B102262E30067227
:1003B00004264672052686728026C672602600F8DC
:1003C0002E6902E0502680F82E60F0BD70B505461B
:1003D00000242846FFF76AFF002028750220687570
:1003E0000CE004F11600295C0A3029547E480D30D7
:1003F000015D04F116002954601CC4B2062CF0DB28
:1004000000240CE004F11C00295C0A3029547648D1
:100410001330015D04F11C002954601CC4B2042C8B
:10042000F0DB29462A2000F03CFD70BD70B5044683
:100430000D462046FFF73AFF2046FFF75CFF0020FD
:1004400084F8220094F82400F72804DD94F82500AD
:10045000401C84F8250094F82400083084F8240017
:100460002146284600F01DFD70BD2DE9F0470446E9
:100470000D4616461F464FF000082046FFF716FFB0
:1004800006F11C084FEA1820207484F811802046D9
:10049000FFF731FF380A04F8240F6770300AA070A4
:1004A00006F10800E070002020716071243C06E035
:1004B00015F8081008F12A00215408F10108B04588
:1004C000F6D306F11001012204F11A00FFF76AFECB
:1004D00081464FEA192084F8280084F8299006F113
:1004E0002A00214600F0DDFCBDE8F08770B5044627
:1004F0002046FFF7DBFE002020742C20607420468D
:10050000FFF7F9FE122084F82F0000230122114684
:100510002046FFF707FF0222202104F11A00FFF70F
:1005200041FE0546280A84F8320084F833502146FB
:100530003A2000F0B6FC70BD2B480830006820B1AE
:100540002948001D0068223070470020FCE7027C2B
:10055000417C62F31F21244A083211601146096868
:100560001439116090F82E1009118900121F1160C2
:10057000111D09681268891A1B4A08321160114658
:10058000096809B900211160704710B5034603E0FE
:1005900001F136001C54491C12F8014B002CF7D114
:1005A000084610BD10B5034605E0147801F1360089
:1005B0001C54491C521C10780028F6D1084610BD66
:1005C00070B505462846FFF771FE102085F82F000C
:1005D00005480830006848B901230022194628461A
:1005E000FFF7A0FE09E00000000000200123002228
:1005F000214801682846FFF795FE2824200A287420
:100600006C742846FFF777FE02221C2105F11A00C0
:10061000FFF7C8FD0446200A85F8320085F833400C
:100620002946362000F03DFC70BD70B504460D46ED
:10063000192084F82F0005F12806300A207466740A
:100640002046FFF742FE002084F8320084F8330091
:1006500005F11C01022204F11A00FFF7A3FD064672
:10066000300A84F8320084F8336005F13600214600
:1006700000F017FC70BD00000800002000B587B036
:10068000012141F2040000F0B9FFE020ADF81800AC
:1006900001208DF81A0018208DF81B0006A92948A2
:1006A00000F022FD1020ADF8180001208DF81A008E
:1006B00010208DF81B0006A9224800F015FD10211E
:1006C000204800F0B9FD0020ADF804004FF482701E
:1006D000ADF806000020ADF80800ADF80A00ADF84E
:1006E0000C004FF40070ADF80E001020ADF81000B3
:1006F0000020ADF812000720ADF8140001A912483F
:1007000001F00AF80121104801F09EF807B000BD81
:1007100010B5044600BF02210B4801F01EF9002865
:10072000F9D02146084801F0C5F800BF012106486C
:1007300001F013F90028F9D0034801F0BDF8C0B268
:1007400010BD0000000801400030014010B5044613
:1007500005222146C44801F0C5F908B9012010BDA1
:100760000020FCE770B5044600252046FFF7EEFFA9
:1007700008B9FF2070BD07E020782F2801D1641C44
:100780000CE0681CC5B2641C207838B10A2D05DA6B
:1007900020782C2802DD20787B28EDDB00BF207834
:1007A0003A2806DA20782F2803DD20783038C0B2C6
:1007B000E0E7FE20DEE770B504460D46ABA200215F
:1007C0002046FFF7E2FE0646B8A231462046FFF774
:1007D000DCFE064635B1BCA231462046FFF7D5FE09
:1007E000064605E0C1A231462046FFF7CEFE06468A
:1007F000BFA231462046FFF7C8FE06469A4A1E3A77
:1008000031462046FFF7CEFE0646974A314620463F
:10081000FFF7C8FE0646BBA231462046FFF7B5FEED
:100820000646914A1E3A31462046FFF7BBFE064671
:100830008D4A31462046FFF7B5FE064635B1BBA2CC
:1008400031462046FFF7A1FE064605E0BCA2314630
:100850002046FFF79AFE0646BE4A31462046FFF77D
:1008600094FE0646304670BD2DE9F047002500276E
:10087000AA467D48283800F073FA40F276411420E9
:1008800000F04EFA784808380068C2B2764922393A
:10089000881FFFF7AFFCE5E0AF4940F2DC5000F005
:1008A00033FB044604B9DDE02146AB48FFF7BAFC50
:1008B00018B1A948FFF78AFDD4E02146A648FFF702
:1008C000D1FC00B9CEE0A448C07D012809D1A248DE
:1008D00090F82200082804D121469F48FFF7A6FD82
:1008E000C0E09D48C07D06286FD19B4890F8240049
:1008F0000028F9D1984890F825005B490839096823
:100900008842F1D1944890F82F0010F0020F03D0E4
:100910009148FFF7EBFDA5E08F4890F82F0010F00D
:10092000100F73D08C48FFF712FEFFF705FE064646
:100930004EB9894890F82F0010F0010F02D0864878
:10094000FFF73EFE8EE084488119042283A001F067
:10095000C9F830B183A200217F48FFF716FE044694
:100960004CE07D4A301D111802228DA001F0BAF82A
:10097000002819D18BA200217748FFF706FE044614
:1009800094A221467448FFF700FE0446364A1E3AF8
:1009900021467148FFF706FE044691A221466E48A3
:1009A000FFF7F3FD044629E06B4A711D5018FFF76D
:1009B000D9FE804618F1010008D1664A5432002160
:1009C0006548FFF7E2FD044618E01FE0B8F1010FAB
:1009D00005D100BF0821864800F030FC0127B8F19E
:1009E000000F05D100BF0821814800F025FC002739
:1009F00039465948FFF7DFFE044600BF5648FFF767
:100A0000DFFD21465448FFF710FE2BE05248C07D21
:100A1000112826D1504890F82400042821D14E48AE
:100A200090F82500B0281CD14B4890F826A04FEA3A
:100A30000A2A90F827005044A0F1080A002506E091
:100A400005F12A004449085C09F805006D1C55456C
:100A5000F6D30548001F5246494603683E48FFF753
:100A600004FD00BF18E70000400000204854545027
:100A70002F312E3020323030204F4B0D0A436F6E15
:100A800074656E742D547970653A20746578742F8E
:100A900068746D6C0D0A507261676D613A206E6FFB
:100AA0002D63616368650D0A0D0A00003C63656E85
:100AB0007465723E3C703E204C4544D7B4CCACD6F5
:100AC000B8CABE3A200000003C666F6E7420636FA7
:100AD0006C6F723D2223303046463030223E20C1BA
:100AE000C13C2F666F6E743E00000000C3F0000032
:100AF000203C736D616C6C3E3C6120687265663DA4
:100B000022000000223E5BCBA2D0C25D3C2F613EA2
:100B10003C2F736D616C6C3E3C2F703E0A3C703E06
:100B20003C6120687265663D220000002F30223E45
:100B3000B9D8B1D54C45443C2F613E3C703E0000D5
:100B40002F31223EB5E3C1C14C45443C2F613E3CB0
:100B5000703E0000481B00086400002047455420F8
:100B600000000000485454502F312E3020323030D5
:100B7000204F4B0D0A436F6E74656E742D5479705F
:100B8000653A20746578742F68746D6C0D0A0D0ACF
:100B90003C68313E323030204F4B3C2F68313E00B4
:100BA0002F200000485454502F312E302032303046
:100BB000204F4B0D0A436F6E74656E742D5479701F
:100BC000653A20746578742F68746D6C0D0A0D0A8F
:100BD000000000003C703E55736167653A200000DC
:100BE00070617373776F72643C2F703E0000000079
:100BF0000010014070B504460D4600261020F6494D
:100C0000086005F01F0040EA04063046FFF780FD4B
:100C1000FF20FFF77DFD064615F0800F03D0FF2073
:100C2000FFF776FD06461020EB49091F08603046A5
:100C300070BD2DE9F04104460D46164600271020F0
:100C4000E549086005F01F0040EA04073846FFF751
:100C50005FFD37463846FFF75BFD1020DF49C1F8DE
:100C60001008BDE8F08170B505460C461020DA4941
:100C700008603A20FFF74CFD05E06D1E0020FFF7ED
:100C800047FD2070641C002DF7D10020207010203B
:100C9000D149091F086070BD70B505460C4610208B
:100CA000CD4908607A20FFF733FD04E06D1E2078FF
:100CB000FFF72EFD641C002DF8D11020C649091F36
:100CC000086070BD10B5044604F06000C44909789E
:100CD00088420ED003221F21A020FFF7AAFFC4F3F1
:100CE00041121F218020FFF7A4FF04F06000BC49DF
:100CF000087010BD10B504462046FFF7E3FF2146FB
:100D00000020FFF777FF10BD70B504460D46204662
:100D1000FFF7D8FF2A4621464020FFF78AFF70BD23
:100D200070B504460D462146D420FFF7EDFFE9B229
:100D3000D620FFF7E9FFC5F30721D720FFF7E4FF2F
:100D400000BFEA20FFF7D6FF10F0010FF9D170BD08
:100D500010B5044604F007017520FFF7D5FF10BD5C
:100D600010B5044610209C49091F0860FF2200218D
:100D70001046FFF75EFF00209949091D0860002119
:100D80000820FFF7C1FF00210920FFF7BDFF002168
:100D90000C20FFF7B9FF00210D20FFF7B5FFFE2162
:100DA0000A20FFF7B1FF19210B20FFF7ADFFFF214C
:100DB0000420FFF7A9FF19210520FFF7A5FFFF2158
:100DC0000620FFF7A1FF1F210720FFF79DFFB0219D
:100DD0003820FFF799FF3F212820FFF795FF3021AA
:100DE0002920FFF791FFF9213020FFF78DFFF72130
:100DF0003120FFF789FF0D21C020FFF785FF00217B
:100E0000C120FFF781FF3322C2218020FFF711FFAD
:100E10001221C620FFF778FF0C21C720FFF774FFCF
:100E20001521C420FFF770FFDC21CA20FFF76CFFFB
:100E30000521CB20FFF768FF2178E420FFF764FF4E
:100E40006178E520FFF760FFA178E220FFF75CFF03
:100E5000E178E320FFF758FF2179E020FFF754FF06
:100E60006179E120FFF750FF4FF480710020FFF718
:100E700057FF4FF480711020FFF752FF1F20FFF73C
:100E800021FFC0221B218020FFF7D3FE04221F2157
:100E90008020FFF7CEFE10BD10B57220FFF72AFFAD
:100EA00010BD70B504460D46FF210220FFF72CFF50
:100EB00019210320FFF728FFFF202044C1B206209C
:100EC000FFF722FF41F6FF102044C0F3072107205F
:100ED000FFF71AFF002211467A20FFF7AAFE2946E3
:100EE0002046FFF7D9FE08221F218020FFF7A1FE30
:100EF0001C20FFF7FFFE10F0020F04D008221F2174
:100F0000A020FFF796FE70BD2DE9F04104460D4686
:100F10003920FFF7EFFE10B90020BDE8F08130481E
:100F2000001D0068C1B20020FFF7EEFE2C48001D36
:100F30000068C0F307210120FFF7E6FE00213A20F8
:100F4000FFF758FE2649091D086000213A20FFF7E7
:100F500051FE2349091D096841EA00202049091D65
:100F6000086000213A20FFF745FE074600213A209D
:100F7000FFF740FE47EA00273F1F00213A20FFF716
:100F800039FE064600213A20FFF734FE46EA0026E5
:100F9000601EB84200D2671E16F0800F01D10027F4
:100FA00003E029463846FFF75EFE0D48001D006845
:100FB000C1B20C20FFF7A8FE0948001D0068C0F36D
:100FC00007210D20FFF7A0FE40221E218020FFF701
:100FD00030FE3846A1E7000014080140000001403F
:100FE0004800002008B50121102000F007FB382040
:100FF000ADF8000010208DF8030003208DF80200EA
:101000006946044800F070F83821024800F014F9ED
:1010100008BD00000010014010B50446C149601A27
:101020008C422FD009DCC048201810D0B0F5806F5A
:1010300016D0B0F5006F4AD11BE0B0F5806F2AD012
:10104000B0F5006F30D0B0F5406F40D135E00121F0
:10105000042000F0EDFA0021042000F0E9FA37E066
:101060000121082000F0E4FA0021082000F0E0FA55
:101070002EE00121102000F0DBFA0021102000F00A
:10108000D7FA25E00121202000F0D2FA002120200B
:1010900000F0CEFA1CE00121402000F0C9FA002146
:1010A000402000F0C5FA13E00121802000F0C0FAD2
:1010B0000021802000F0BCFA0AE00121080200F0C3
:1010C000B7FA00214FF4807000F0B2FA00E000BFE0
:1010D00000BF10BD10B50121084600F0A9FA00219B
:1010E000012000F0A5FA10BDF0B500220023002475
:1010F00000250026002791F803C00CF00F0291F89C
:1011000003C01CF0100F03D091F802C04CEA020299
:10111000B1F800C01CF0FF0F31D0066800242BE0AE
:101120004FF0010C0CFA04F5B1F800C00CEA05030D
:10113000AB4220D1A5004FF00F0C0CFA05F7BE43CF
:1011400002FA05FC4CEA060691F803C0BCF1280F30
:1011500006D14FF0010C0CFA04FCC0F814C00AE0F0
:1011600091F803C0BCF1480F05D14FF0010C0CFA07
:1011700004FCC0F810C0641C082CD1D30660B1F880
:1011800000C0BCF1FF0F34DD466800242EE004F1FE
:10119000080C4FF0010E0EFA0CF5B1F800C00CEA85
:1011A0000503AB4221D1A5004FF00F0C0CFA05F757
:1011B000BE4302FA05FC4CEA060691F803C0BCF1F6
:1011C000280F05D104F1080C0EFA0CFEC0F814E04B
:1011D00091F803C0BCF1480F07D104F1080C4FF09F
:1011E000010E0EFA0CFEC0F810E0641C082CCED3E1
:1011F0004660F0BD4FF6FF7101800221817004212D
:10120000C17070470246002093680B4201D0012054
:1012100000E0002070470146886880B270470246AF
:101220000020D3680B4201D0012000E0002070476D
:101230000146C86880B270470161704741617047DC
:101240000AB1016100E041617047C16070474FF42D
:1012500080320A438261816182618269826970475A
:101260000022324B1A684FF680731A4042EA00128D
:101270000A432E4B1A6070472D49C8617047F0B57C
:101280000022002300250024284E7568C0F3034483
:1012900082B200F44016B6F5401F08D125F0706503
:1012A000224E766826F07066204F7E6012E000F4D1
:1012B0008016B6F5801F06D1032606FA04F39D4377
:1012C00045F0706506E0460D360102FA06F6B543B4
:1012D00045F0706521B1460D360102FA06F6354338
:1012E000124E7560F0BD30B500228B071C0F0F2326
:1012F00003FA04F20D4B08338C1053F82440944346
:101300008D1043F825408C1053F824308C07240F9F
:1013100000FA04F42343054C08348D1044F82530BA
:1013200030BD00000014014000F8FEBF0000014085
:1013300000002042DA48006840F00100D849086007
:1013400008464068D7490840D549486008460068C3
:10135000D5490840D24908600846006820F480203A
:1013600008600846406820F4FE004860002088605D
:101370007047CB49096821F48031C94A1160114690
:10138000096821F480211160B0F5803F03D0B0F5E9
:10139000802F0ED106E0C249096841F48031C04A6D
:1013A000116007E0BE49096841F4A021BC4A116000
:1013B00000E000BF00BF704710B5014600220023C7
:1013C00000204A11012A02D1B54C236806E0022A06
:1013D00002D1B34C236A01E0B14C636A01F01F02F1
:1013E000012494401C4201D0012000E0002010BDE7
:1013F00070B500240025002600BF3120FFF7DCFF78
:101400000646641C16B9B4F5A06FF6D13120FFF77B
:10141000D3FF08B1012500E00025284670BD00215A
:101420009F4A116821F0F80141EAC001116070473C
:101430009E49086070470022994B5A6822F47C123A
:1014400040EA01031A43964B5A6070479749086671
:1014500070470021924A516821F003010143516015
:1014600070478F48406800F00C00704700218C4A9C
:10147000516821F0F0010143516070470021884A12
:10148000516821F4E0610143516070470021844AB2
:10149000516821F4605141EAC0015160704729B19F
:1014A0007F4A527A02437E4B5A7206E07C4A527A55
:1014B000C343DBB21A407A4B5A7270477B49D8312A
:1014C000086070470021764A516821F44041014389
:1014D000516070470021724A20321170704A82F8C0
:1014E0002010012802D004280AD104E001216C4A0E
:1014F0002032117005E00521694A2032117000E0A8
:1015000000BF00BF70476A49086070476449096AB4
:101510000143634A11627047654944390860704766
:1015200030B500210022002300245D4D6D6805F0D8
:101530000C0121B1042905D0082923D105E05D4D16
:10154000056022E05B4D05601FE0554D6D6805F4B8
:101550007012022505EB9242514D6D6805F48033FF
:101560001BB9554D554305600BE04D4D6D6815F4A5
:10157000003F03D0504D5543056002E04D4D5543AB
:10158000056002E04B4D056000BF00BF444D6D6833
:1015900005F0F0010909494D6C5C0568E5404560BE
:1015A0003F4D6D6805F4E061090A444D6C5C456887
:1015B000E54085603A4D6D6805F46051C90A3F4DBC
:1015C0006C5C4568E540C560354D6D6805F440418B
:1015D000890B3A4D10356C5CC568B5FBF4F50561B7
:1015E00030BD29B12E4A526902432D4B5A6104E0A5
:1015F0002B4A526982432A4B5A61704729B1284AC3
:1016000092690243264B9A6104E0254A926982431B
:10161000234B9A61704729B1214AD2690243204B7A
:10162000DA6104E01E4AD26982431D4BDA617047D9
:1016300029B11B4AD2680243194BDA6004E0184A08
:10164000D2688243164BDA60704729B1144A126996
:101650000243134B1A6104E0114A12698243104B92
:101660001A61704712494039086070470F49C864D1
:1016700070470B49C87170470948406A40F0807054
:1016800007494862704701460020054A92680A42AD
:1016900001D0012000E000207047014988727047A6
:1016A000001002400000FFF8FFFFF6FE000042427B
:1016B0008004424200127A0000093D0050000020E0
:1016C00010B50446BD4820180FD0B0F5806F16D075
:1016D000B0F5784F1DD101210803FFF7A9FF0021C4
:1016E0004FF48050FFF7A4FF14E001218803FFF7B7
:1016F000ACFF00214FF48040FFF7A7FF0AE0012173
:10170000C803FFF7A2FF00214FF40040FFF79DFF41
:1017100000E000BF00BF10BD10B50022028802F437
:1017200041520B884C8823438C882343CC88234325
:101730000C8923434C8923438C892343CC8923433D
:101740001A430280838B4FF2FF74234083830B8AFA
:10175000038210BD2DE9F04786B004460D460026F1
:101760000227B0464FF00109B246A08B4FF240016C
:101770000840A08302202084A68B2889022801D15A
:1017800000BF31E0A88810B94FF0010901E04FF027
:10179000020901A8FFF7C4FEE888B0F5007F0BD16D
:1017A000019800EB8000400029890902B0FBF1F0AC
:1017B000401D1FFA80FA0CE04FEA4910298948437E
:1017C000019901EB81014900B1FBF0F0401D1FFAC6
:1017D00080FA0A20BAFBF0FA0AF00108AAEB080026
:1017E000C0F34F074FEA0828022F01DBFF2F02DD6D
:1017F00002274FF0000847EA0800E98808432084E0
:10180000288840F4006069880843A98808436989EA
:1018100008430643A68306B0BDE8F0870021018097
:1018200041808180C180018141818181C181072105
:10183000018270470021018041808180C1800221A6
:10184000018100214181704721B1028842F04002AC
:10185000028004E002884FF6BF731A40028070478E
:1018600021B1828B42F48062828304E0828B4FF646
:10187000FF331A408283704770B5002300240B1198
:1018800001259D40ACB21AB185882543858004E0CE
:101890008588E643B6B23540858070BD10B51AB173
:1018A00083880B43838004E08388CC43A4B2234025
:1018B000838010BD81817047014688897047A1F5FA
:1018C0007E42FF3A04D0028842F48072028004E033
:1018D00002884FF6FF631A400280704721B1828868
:1018E00042F00402828004E082884FF6FB731A40C3
:1018F0008280704702884FF2FF731A40028002888C
:101900000A4302807047018841F48051018070478A
:1019100021B1028842F40052028004E002884DF6B0
:10192000FF731A400280704702460020012901D04F
:10193000108B00E0908A70470146088A7047B1F525
:10194000804F04D1028842F48042028004E0028881
:101950004BF6FF731A40028070470246002013893D
:101960000B4201D0012000E000207047CA430281F1
:101970007047F0B50246002000230024002501F046
:101980000F070126BE40B3B20C110126A640B4B227
:10199000968806EA040516891E4202D00DB1012080
:1019A00000E00020F0BD10B5002201F00F0401237B
:1019B000A3409AB2D343038110BD000000C8FFBF0B
:1019C00000200021434A126842F48032414B1A60E1
:1019D00000BF404A126802F40031401C11B9B0F552
:1019E000A06FF6D13B4A126812F4003F01D00121EA
:1019F00000E00021012943D1374A126842F0100269
:101A0000354B1A601A46126822F003021A601A4611
:101A1000126842F002021A602E4A52682D4B5A6038
:101A20001A4652685A601A46526842F480625A60F6
:101A30001A46526822F47C125A601A46526842F4DE
:101A4000E8125A601A46126842F080721A6000BFAB
:101A5000204A126812F0007FFAD01E4A526822F023
:101A600003021C4B5A601A46526842F002025A6046
:101A700000BF184A526802F00C02082AF9D101E0AE
:101A800000BFFEE7704710B5FFF79AFF10BD10B515
:101A90001048006840F001000E49086008464068A0
:101AA0000E4908400B494860084600680C49084048
:101AB000084908600846006820F48020086008464D
:101AC000406820F4FE00486000208860FFF7DBFFDC
:101AD00010BD000000100240002002400000FFF88E
:101AE000FFFFF6FE30B500252B4600E05B1C93425D
:101AF00005D2C45CCD5C651B01D1002CF6D1284613
:101B000030BD0000064C074D06E0E06840F00103E0
:101B100094E8070098471034AC42F6D3FEF70CFB6C
:101B2000EC1B00080C1C000802E008C8121F08C1CA
:101B3000002AFAD170477047002001E001C1121F4E
:101B4000002AFBD1704700003C2F63656E746572FC
:101B50003E3C68723E3C62723E2A2A2A2A2A2A2A7F
:101B60002A2A2A2A2A2A2A2A2A5E5F5E20BBB6D37C
:101B7000ADC4FACAB9D3C3D2B0BBF053544D33325B
:101B8000BFAAB7A2B0E5205E5F5E2A2A2A2A2A2AC7
:101B90002A2A2A2A2A2A2A2A2A2A0A004854545057
:101BA0002F312E302034303120556E617574686FBE
:101BB00072697A65640D0A436F6E74656E742D5494
:101BC0007970653A20746578742F68746D6C0D0AAD
:101BD0000D0A3C68313E34303120556E61757468B1
:101BE0006F72697A65643C2F68313E000C1C0008F6
:101BF0000000002064000000281B0008701C000882
:101C000064000020E4070000381B000850000000BA
:101C100000000000000000000A00000000000000BA
:101C200000000000545558100024C0A8010F68742B
:101C300074703A2F2F3139322E3136382E312E3101
:101C4000352F000050000000B00400003132333462
:101C50003536000000000000000000000000000019
:101C6000010203040102030406070809020406082E
:0400000508000147A7
:00000001FF
