:020000040800F2
:100000007887002045010008DD010008DF010008B5
:10001000E9010008ED010008F101000800000000FE
:10002000000000000000000000000000F5010008D2
:10003000F701000800000000F9010008FB010008BA
:100040005F0100085F0100085F0100085F01000810
:100050005F0100085F0100085F0100085F01000800
:100060005F0100085F0100085F0100085F010008F0
:100070005F0100085F0100085F0100085F010008E0
:100080005F0100085F0100085F0100085F010008D0
:100090005F0100085F0100085F0100085F010008C0
:1000A0005F0100085F0100085F0100085F010008B0
:1000B0005F0100085F0100085F0100085F010008A0
:1000C0005F0100085F0100085F0100085F01000890
:1000D0005F0100085F0100085F0100085F01000880
:1000E0005F0100085F0100085F0100085F01000870
:1000F0005F0100085F0100085F0100085F01000860
:100100005F0100085F0100085F0100085F0100084F
:100110005F0100085F0100085F0100085F0100083F
:100120005F0100085F0100085F0100085F0100082F
:10013000DFF80CD00AF0B2FA004800476901000865
:10014000788700200648804706480047FEE7FEE71C
:10015000FEE7FEE7FEE7FEE7FEE7FEE7FEE7FEE777
:10016000411F00083101000800F05CF800F0DCFBE2
:1001700000F05AF900F0A4F907A00AF033FB00F0F0
:1001800049FD00F0F4FC00F0C9FE03E012480068ED
:1001900000F06BFDFAE700000D0A2A2A2A2A2A2A13
:1001A0002A2A2A2A2A2A2A2AD2B0BBF053544D33AB
:1001B000325F656E63386A36302B6C776970D2C6F1
:1001C000D6B2CAB5D1E92A2A2A2A2A2A2A2A2A2ACA
:1001D0002A2A2A0D0A00000000000020704709A00A
:1001E0000AF000FB00BFFEE700BFFEE700BFFEE72E
:1001F00000BFFEE770477047704710B500F02FFD55
:1002000010BD000020766F69642048617264466109
:10021000756C745F48616E646C657228766F696492
:100220002920000000B585B0012144F2040001F04E
:100230002AFA4FF40070ADF8100018208DF8130062
:1002400003208DF8120004A9754800F069FF4FF4EF
:100250008060ADF8100004208DF8130004A97048E8
:1002600000F05EFF4FF4E13000900020ADF8040094
:10027000ADF80600ADF80800ADF80C000C20ADF8A4
:100280000A006946674801F034FC0121654801F025
:10029000BCFC05B000BD70B504460D46E1B2614836
:1002A00001F023FD00BF40215E4801F08CFD0128D4
:1002B000F9D1204670BDF0B503460D46164600271D
:1002C00029460A2E03D0002008702846F0BD33B915
:1002D000302001F8010B002008702846F6E7002BBB
:1002E00003DA2D2001F8010B5B4242F210720DE09F
:1002F00093FBF2F404B937B104F1300001F8010BBB
:1003000004FB123301270A2092FBF0F2002AEFDCF3
:10031000002008702846D9E70FB470B586B00646AD
:100320000CA8019073E00B9800785C281CD10B9806
:10033000401C0B9000786E2809D072280FD10D2137
:10034000304601F0D2FC0B98401C0B900BE00A21C8
:10035000304601F0CAFC0B98401C0B9003E00B9850
:10036000401C0B9000BF4BE00B980078252840D133
:100370000B98401C0B900078642818D0732833D158
:10038000019810C801900BE02178304601F0ADFCD7
:1003900000BF4021304601F016FD0028F9D0641C52
:1003A00020780028F0D10B98401C0B9020E0019899
:1003B00020C801900A2202A92846FFF77CFF02AC60
:1003C0000BE02178304601F090FC00BF4021304620
:1003D00001F0F9FC0028F9D0641C20780028F0D145
:1003E0000B98401C0B9003E00B98401C0B9000BF37
:1003F00006E00B9810F8011B0B90304601F075FCDD
:1004000000BF4021304601F0DEFC0028F9D00B98F7
:100410000078002887D106B070BC5DF814FB00009E
:100420000008014000380140214909686422B1FBFD
:10043000F2F0B0F1807F01D301211CE020F07F4178
:10044000491E4FF0E022516100BF5117002905DA23
:100450000F210901174A0B23D15404E00F21090190
:10046000154A5317D15400BF00214FF0E02291618B
:1004700007211161002109B100BFFEE770470F4954
:1004800008604FF0E021096941F001014FF0E022DE
:10049000116100BF094909680029FBD1704707486D
:1004A000006820B105480068401E04490860704794
:1004B0003C00002018ED00E000E400E00400002013
:1004C00008B50121102001F0DEF83820ADF8000059
:1004D00010208DF8030003208DF8020069460448BF
:1004E00000F01EFE3821024800F0C5FE08BD0000E5
:1004F0000010014070B505460C460026F94800681A
:1005000020F01000F849C1F80C0804F01F0040EA80
:100510000506304600F051FAFF2000F04EFA06467C
:1005200014F0800F03D0FF2000F047FA0646ED4894
:10053000006840F01000EC49C1F80C08304670BD6E
:100540002DE9F04104460D4616460027E5480068AF
:1005500020F01000E449C1F80C0805F01F0040EA43
:100560000407384600F029FA3746384600F025FAE5
:10057000DD48D0F80C0840F01000DB49C1F80C0849
:10058000BDE8F08170B505460C46D648006820F0FD
:100590001000D549C1F80C084FF03A0000F00DFAF0
:1005A00004E0002000F009FA04F8010B2800A5F18E
:1005B00001018DB2F5D12070CA48006840F01000EA
:1005C000C949C1F80C0870BD70B505460C46C54850
:1005D000006820F01000C449C1F80C084FF07A0000
:1005E00000F0EBF903E014F8010B00F0E6F9280045
:1005F000A5F101018DB2F6D1BA48006840F01000B3
:10060000B949C1F80C0870BD10B5044604F060008B
:10061000B649097888420ED003221F21A020FFF797
:100620008FFFC4F341121F218020FFF789FF04F0E0
:100630006000AE49087010BD10B504462046FFF7B3
:10064000E3FF21460020FFF755FF10BD70B50446BB
:100650000D462046FFF7D8FF2A4621464020FFF7E7
:100660006FFF70BD70B505460C462946D420FFF7D4
:10067000EDFFE1B2D620FFF7E9FF2112D720FFF707
:10068000E5FF00BFEA20FFF7D7FF10F0010FF9D117
:1006900070BD10B5044604F007017520FFF7D6FFC2
:1006A00010BD10B504468F48006840F010008E4918
:1006B000C1F80C084FF0FF024FF000011046FFF7A1
:1006C0003FFF00208A49088000210820FFF7BEFF75
:1006D00000210920FFF7BAFF00210C20FFF7B6FF29
:1006E00000210D20FFF7B2FFFE210A20FFF7AEFF29
:1006F00019210B20FFF7AAFFFF210420FFF7A6FF17
:1007000019210520FFF7A2FFFF210620FFF79EFF1A
:100710001F210720FFF79AFFB0213820FFF796FF2F
:100720003F212820FFF792FF30212920FFF78EFF7D
:10073000F9213020FFF78AFFF7213120FFF786FFEC
:100740000D21C020FFF782FF0021C120FFF77EFFAF
:100750003322C2218020FFF7F3FE1221C620FFF7CB
:1007600075FF0C21C720FFF771FF1221C420FFF78E
:100770006DFFDC21CA20FFF769FF0521CB20FFF7C1
:1007800065FF2178E420FFF761FF6178E520FFF73E
:100790005DFFA178E220FFF759FFE178E320FFF742
:1007A00055FF2179E020FFF751FF6179E120FFF744
:1007B0004DFF4FF480710020FFF754FF4FF480711C
:1007C0001020FFF74FFF1F20FFF71EFFC0221B2145
:1007D0008020FFF7B5FE04221F218020FFF7B0FE26
:1007E00010BD10B57220FFF727FF10BD70B504468D
:1007F0000D46FF210220FFF729FF19210320FFF7F3
:1008000025FFFF202044C1B20620FFF71FFF41F65D
:10081000FF102044C0F307210720FFF717FF002235
:1008200011467A20FFF78CFE29462046FFF7CCFEC2
:1008300008221F218020FFF783FE1C20FFF7FCFE0B
:1008400010F0020F04D008221F21A020FFF778FE2D
:1008500070BD2DE9F04105460F463920FFF7ECFE4B
:1008600010B90020BDE8F08121480088C1B2002005
:10087000FFF7ECFE1E48008801120120FFF7E6FE9C
:1008800000213A20FFF736FE1949088000213A205E
:10089000FFF730FE1649098841EA00201449088014
:1008A00000213A20FFF726FE044600213A20FFF7F8
:1008B00021FE44EA0024201F84B200213A20FFF7E1
:1008C00019FE064600213A20FFF714FE46EA0026EC
:1008D000681EA04200DA84B216F0800F0AD100240C
:1008E0000CE000000C08014000000140080000205E
:1008F0000A00002039462046FFF744FE09480088D8
:10090000C1B20C20FFF7A2FE0648008801120D209C
:10091000FFF79CFE40221E218020FFF711FE20469B
:10092000A0E700000A00002000B587B001210803FD
:1009300000F0A9FE0121042000F0A5FE1020ADF872
:10094000040003208DF8060010208DF8070001A98F
:10095000264800F0E5FBE020ADF8040003208DF808
:10096000060018208DF8070001A9204800F0D8FBE8
:100970000020ADF808004FF48270ADF80A000020A6
:10098000ADF80C00ADF80E00ADF810004FF400709B
:10099000ADF812000820ADF814000020ADF81600E4
:1009A0000720ADF8180002A9114800F0FDFE012152
:1009B0000F4800F09CFF07B000BD10B5044600BF13
:1009C00002210B4801F01CF80028F9D02146084804
:1009D00000F0C3FF00BF0121054801F011F8002815
:1009E000F9D0034800F0BBFFC0B210BD00080140C1
:1009F000003001402DE9F05F884614461D464FF057
:100A0000000A00260027B146B346D4F804A0002D02
:100A10007ED1002C7CD003225EA1504609F035FC2B
:100A200068B900232D225C49404606F0F2F9002304
:100A300040F25D225949404606F0EBF97FE004227E
:100A400057A1504609F021FC002878D156A1504604
:100A500009F0E5FB814657A1504609F0E0FB064648
:100A600057A1304609F0DBFB0746002E36D0002F99
:100A700034D02621304609F0E8FB834600208BF86D
:100A800000000936093751A1304609F0E7FBB8B933
:100A9000062251A1384609F0F8FB88B908215048D0
:100AA00000F0EBFB00232D223B49404606F0B1F954
:100AB00000234FF455724B49404606F0AAF93EE038
:100AC00000232D223449404606F0A3F9002340F2CA
:100AD0005D223249404606F09CF930E0B9F1000F42
:100AE0002DD041A1484609F09AFB90B108213C481D
:100AF00000F0C3FB00232D222749404606F089F968
:100B000000234FF455723749404606F082F916E04B
:100B100018E038A1484609F082FB80B1082130482E
:100B200000F0A9FB00232D221B49404606F071F975
:100B3000002340F266323349404606F06AF9204607
:100B400002F0A6F8404603F05DFC00252846BDE80B
:100B5000F09F70B505460C4616460121204603F06D
:100B6000DFFF2949204604F0F1F8002070BD10B5E0
:100B700004F0E5F8044650222449204603F02EFEF6
:100B8000FF21204603F0AEFE04462149204604F032
:100B9000E6F810BD47455400A0B00008CDB00008ED
:100BA000504F5354000000004C45445F4354524C96
:100BB0003D000000557365724E616D653D0000009B
:100BC00050617373576F72643D00000077696C6405
:100BD000666972650000000031323334353600003A
:100BE000001001402AB300084C45445F4354524C66
:100BF0003D4F4E004C45445F4354524C3D4F46469A
:100C0000000000007EB60008F50900086DBA000873
:100C1000530B000800B587B001F013FA224807F023
:100C200093FA06906FF0FF0007F08EFA05901E48C9
:100C3000113807F089FA04901C4B1D4A00218DE8F9
:100C40000E0004AB05AA06A91A4801F060FF194876
:100C500001F09BFF174801F0E8FF07B000BD164800
:100C600000680A3014490860704710B504461348FC
:100C70000068201A022802D30E4809F069FA1048C9
:100C80000068201AFA2803D30D48046003F0DDFC45
:100C90000C480068201A41F28831884203D3094881
:100CA000046008F055FB10BD1201A8C0579F000852
:100CB00083A10008FC000020000000201400002098
:100CC0000C000020100000202DE9FF5F8246154631
:100CD0009B465446002D7ED02989019803F02BFCB9
:100CE0003CB9284601F0D4FF6FF0090004B0BDE81C
:100CF000F09F4FF000092E4621E0D6F8048000272F
:100D000016E018F807000D2803D018F807000A2885
:100D100001D1012000E00020814620680F2806DA7A
:100D200018F807102268501C2060201D81547F1C79
:100D30007089B84202DDB9F1000FE2D03668002EAA
:100D4000DBD1B9F1000F7BD02068801E211D085C2B
:100D50000D2804D12068401E085C0A2821D0206894
:100D6000401E211D085C0D2804D02068401E085C30
:100D70000A2807D12068401C0F2803DC2068401C8B
:100D8000206009E02068801C0F2803DC2068801C9C
:100D9000206001E00F20206000222068801E211DBD
:100DA0000A5468A16A4809F059FA002861D169A17A
:100DB00067480F3009F052FA002842D1211D6448DB
:100DC0001E3009F059FA65A161481E3009F046FA53
:100DD00090B9082100E06EE0624800F04EFA01236D
:100DE0001F2261A1019806F014F80123192266A1BF
:100DF000019806F00EF858E06AA155481E3009F037
:100E00002DFA80B90821574800F035FA0123202235
:100E100067A1019805F0FDFF012319225AA101984D
:100E200005F0F7FF41E0012314226AA1019805F0C3
:100E3000F0FF0123192254A1019805F0EAFF34E0E4
:100E400035E044A1201D09F009FA58B9211D404898
:100E50000F3009F011FA012319224BA1019805F076
:100E6000D8FF22E001230E2260A1019805F0D1FFF6
:100E70001BE034A1201D09F0F1F950B9211D3448BF
:100E800009F0FAF901231D225CA1019805F0C1FFC8
:100E90000BE00123112261A1019805F0BAFF0123A3
:100EA0001D2263A1019805F0B4FF002020602846B0
:100EB00001F0EEFE09E0BBF1000F06D1204601F083
:100EC00062F9019803F09EFA10E700200EE770B572
:100ED00004460E462546284601F055F970BD2DE919
:100EE000F04106460C4617460121142001F00EFC85
:100EF00005460146204603F027FF5549204603F0EA
:100F00002BFF5449204603F021FF01231D2248A155
:100F1000204605F07EFF0020BDE8F08110B503F00B
:100F20000EFF044617224C49204603F057FCFF21D0
:100F3000204603F0D7FC04464849204603F00FFF43
:100F400010BD000077696C6466697265000000007E
:100F50002C01002031323334353600004C45443109
:100F60005F4F4E00001001400D0A2053756363650A
:100F700073732C4C4544312073746174757320690C
:100F800073204F4E210D0A000D0A506C6561736588
:100F900020656E74657220636F6D6D616E643A0DCD
:100FA0000A0000004C4544315F4F464600000000F7
:100FB0000D0A20537563636573732C4C45443120CF
:100FC000737461747573206973204F4646210D0A4E
:100FD000000000000D0A436F6D6D616E64206E6F3E
:100FE0007420666F756E6421000000000D0A505772
:100FF000442077726F6E673A0D0A0000506C65618D
:10100000736520656E74657220796F7572207061EA
:101010007373776F72643A0D0A000000557365723E
:101020004E616D652077726F6E673A0D0A000000A1
:10103000506C6561736520656E74657220796F759B
:101040007220757365726E616D653A0D0A0000005D
:10105000CF0E0008C90C00086DBA0008DF0E0008AA
:1010600010B50446CA48844208D10121042000F08A
:1010700024FB0021042000F020FB46E0C548844208
:1010800008D10121082000F018FB0021082000F001
:1010900014FB3AE0C048844208D10121102000F03E
:1010A0000CFB0021102000F008FB2EE0BB4884421E
:1010B00008D10121202000F000FB0021202000F0B9
:1010C000FCFA22E0B648844208D10121402000F019
:1010D000F4FA0021402000F0F0FA16E0B148844212
:1010E00008D10121802000F0E8FA0021802000F0E2
:1010F000E4FA0AE0AC48844207D10121801500F0EF
:10110000DCFA0021A01500F0D8FA10BD10B50121BD
:10111000084600F0D2FA0021012000F0CEFA10BDFE
:101120002DE9F0410246002500260020002300247E
:10113000002791F803C00CF00F0591F803C01CF0D4
:10114000100F03D091F802C04CEA0505B1F800C0B9
:101150001CF0FF0F31D0146800202BE04FF0010C81
:101160000CFA00F3B1F800C00CEA03069E4220D14D
:1011700083004FF00F0C0CFA03F7BC4305FA03FC95
:101180004CEA040491F803C0BCF1280F06D14FF0DB
:10119000010C0CFA00FCC2F814C00AE091F803C07C
:1011A000BCF1480F05D14FF0010C0CFA00FCC2F85D
:1011B00010C0401C0828D1D31460B1F800C0BCF1A5
:1011C000FF0F34DD546800202EE000F1080C4FF0D2
:1011D000010808FA0CF3B1F800C00CEA03069E42BD
:1011E00021D183004FF00F0C0CFA03F7BC4305FA32
:1011F00003FC4CEA040491F803C0BCF1280F05D1AC
:1012000000F1080C08FA0CF8C2F8148091F803C039
:10121000BCF1480F07D100F1080C4FF0010808FAA3
:101220000CF8C2F81080401C0828CED35460BDE8EA
:10123000F0814FF6FF710180022181700421C1709D
:1012400070470246002093680B4201D0012000E065
:10125000002070470146886880B27047024600202F
:10126000D3680B4201D0012000E000207047014606
:10127000C86880B2704701617047416170470AB128
:10128000016100E041617047C16070474FF48032F6
:101290000A43826181618261826982697047024684
:1012A0000020424B18684FF68073184040EA021045
:1012B00008433E4B186070473D49C8617047F0B520
:1012C0000A46002300240021002500F00046B6F164
:1012D000004F02D1354EF16901E0344E7168C0F320
:1012E000034583B200F44016B6F5401F08D121F043
:1012F00070612E4E766826F070662C4F7E6012E08C
:1013000000F48016B6F5801F06D1032606FA05F410
:10131000A14341F0706106E0460D360103FA06F67E
:10132000B14341F0706122B1460D360103FA06F671
:10133000314300F00046B6F1004F02D11B4EF1617F
:1013400001E01A4E7160F0BD30B500228B071C0F12
:101350000F2303FA04F2154B08338C1053F8243092
:101360009343124C08348D1044F8253023468C10DA
:1013700053F824308C07240F00FA04F423430B4C59
:1013800008348D1044F8253030BD0A490860704794
:1013900000080140000C0140001001400014014011
:1013A00000180140001C01400020014000000140E5
:1013B00000002042DC002042DB48006840F00100D1
:1013C000D949086008464068D8490840D64948606D
:1013D00008460068D6490840D349086008460068B6
:1013E00020F4802008600846406820F4FE00486031
:1013F0004FF41F0088607047CB49096821F48031A1
:10140000C94A11601146096821F480211160B0F5C4
:10141000803F03D0B0F5802F0ED106E0C2490968A5
:1014200041F48031C04A116007E0BF49096841F4C6
:10143000A021BD4A116000E000BF00BF704710B599
:1014400001460022002300204A11012A02D1B64C95
:10145000236806E0022A02D1B34C236A01E0B24CB1
:10146000636A01F01F02012494401C4201D0012054
:1014700000E0002010BD70B500240025002600BF4C
:101480003120FFF7DCFF0646641CB4F5A06F01D0E5
:10149000002EF5D03120FFF7D2FF08B1012500E082
:1014A0000025284670BD014600209F4A106820F0A4
:1014B000F80040EAC100106070479E49086070471C
:1014C00002460020984B586820F47C1042EA010341
:1014D0001843954B58607047964908667047014617
:1014E0000020914A506820F0030008435060704784
:1014F0008D48406800F00C007047014600208A4A81
:10150000506820F0F000084350607047014600200A
:10151000854A506820F4E0600843506070470146F7
:101520000020814A506820F4605040EAC1005060B9
:10153000704729B17C4A527A02437B4B5A7206E0CB
:10154000794A527AC343DBB21A40774B5A727047DA
:1015500079490860704701460020734A506820F4BA
:1015600040400843506070470021744A11706E4A31
:1015700082F82010012802D0042808D103E00121BC
:101580006E4A117004E005216C4A117000E000BF42
:1015900000BF70476A49086070476349096A0143A0
:1015A000614A1162704767490860704730B5002191
:1015B0000022002400235C4D6D6805F00C0121B170
:1015C000042905D0082923D105E05F4D056022E0FC
:1015D0005D4D05601FE0544D6D6805F47012524D6D
:1015E0006D6805F48034022505EB92421CB9574D15
:1015F000554305600BE04C4D6D6815F4003F03D07A
:10160000524D5543056002E04F4D5543056002E0E1
:101610004D4D056000BF00BF434D6D6805F0F00102
:1016200009094B4D6B5C0568DD4045603E4D6D68BA
:1016300005F4E061090A464D6B5C4568DD40856054
:10164000394D6D6805F46051C90A414D6B5C4568C0
:10165000DD40C560344D6D6805F44041890B3D4D5A
:101660006B5CC568B5FBF3F5056130BD29B12E4A49
:10167000526902432C4B5A6104E02B4A526982435F
:10168000294B5A61704729B1274A92690243264B78
:101690009A6104E0244A92698243234B9A6170471D
:1016A00029B1214AD26902431F4BDA6104E01E4A84
:1016B000D26982431C4BDA61704729B11A4AD26859
:1016C0000243194BDA6004E0174AD2688243164B92
:1016D000DA60704729B1144A12690243124B1A6149
:1016E00004E0114A126982430F4B1A6170471A498C
:1016F000086070470F49C86470470B49C87170474C
:101700000948406A40F080700749486270470146C6
:101710000020054A92680A4201D0012000E0002022
:101720007047014988727047001002400000FFF8BE
:10173000FFFFF6FE00004242D80042422010024065
:10174000800442423C04424200127A0000093D00FB
:1017500026000020360000204004424210B5044616
:10176000BF48844208D101218014FFF7A6FF002161
:10177000A014FFF7A2FF16E0BA48844208D1012165
:101780000014FFF7A7FF00212014FFF7A3FF0AE0D2
:10179000B548844207D10121C013FFF79BFF002108
:1017A000E013FFF797FF10BD10B50022028802F486
:1017B00041520B884C8823438C882343CC88234395
:1017C0000C8923434C8923438C892343CC892343AD
:1017D0001A430280838B4FF2FF74234083830B8A6A
:1017E000038210BD2DE9F04F85B005460C464FF041
:1017F000000902274FF000084FF0010B0026B24607
:10180000A88B4FF240010840A88302202884B5F835
:101810001C90A068022801D100BF36E0A08810B952
:101820004FF0010B01E04FF0020B8E48854200D1D2
:1018300000E000BF6846FFF7B9FEDDF800A0E088D1
:10184000B0F5007F0AD14FEA1A2000EB800040007B
:10185000A168B0FBF1F0401D86B20BE04FEA4B10DF
:10186000BAFBF0F000EB80004000A168B0FBF1F0A3
:10187000401D86B20A20B6FBF0F606F00108A6EB82
:101880000800C0F34F074FEA0828022F01DBFF2FA3
:1018900002DD02274FF00008E08840EA08003843E4
:1018A0002884A088A18908436188084321880843C7
:1018B00040F4006040EA0909A5F81C9005B0BDE8B5
:1018C000F08F0021018041808180C18001814181B0
:1018D0008181C181072101827047002101804180FF
:1018E0008180C1800221816000218181704721B106
:1018F000028842F04002028004E002884FF6BF7383
:101900001A400280704721B1828B42F48062828348
:1019100004E0828B4FF6FF331A408283704770B524
:10192000002400230C110125A540ABB21AB1858813
:101930001D43858004E08588DE43B6B2354085804E
:1019400070BD10B51AB183880B43838004E083888F
:10195000CC43A4B22340838010BD818170470146EF
:1019600088897047A1F57E42FF3A04D0028842F48C
:101970008072028004E002884FF6FF631A40028002
:10198000704721B1828842F00402828004E082889C
:101990004FF6FB731A408280704702884FF2FF7344
:1019A0001A40028002880A4302807047018841F48D
:1019B00080510180704721B1028842F400520280B8
:1019C00004E002884DF6FF731A4002807047024619
:1019D0000020012901D0108B00E0908A7047014659
:1019E000088A7047B1F5804F04D1028842F48042E2
:1019F000028004E002884BF6FF731A4002807047B1
:101A00000246002013890B4201D0012000E0002093
:101A10007047CA4302817047F0B502460020002497
:101A20000023002501F00F070126BE40B4B20B11C0
:101A300001269E40B3B2968806EA0305168926421F
:101A400002D00DB1012000E00020F0BD10B5002251
:101A500001F00F040123A3409AB2D343038110BDC8
:101A60000030014000380040003C004010B5044602
:101A7000FC48844209D101218803FFF71EFE0021A2
:101A80004FF48040FFF719FE32E0F748844209D155
:101A900001214804FFF71EFE00214FF40030FFF73C
:101AA00019FE25E0F148844209D101218804FFF79D
:101AB00011FE00214FF48020FFF70CFE18E0EC48E7
:101AC000844209D10121C804FFF704FE00214FF42C
:101AD0000020FFF7FFFD0BE0E648844208D101211A
:101AE0000805FFF7F7FD00214FF48010FFF7F2FD26
:101AF00010BD2DE9F04786B005460E460024A246EB
:101B000000BFA1460027B08900B100BF2F462C8A34
:101B10004CF6FF700440F08804432C82AC894EF6EA
:101B2000F3100440B08831890843718908430443A5
:101B3000AC81AC8A4FF6FF400440B0890443AC82CC
:101B400001A8FFF733FDC748874202D1DDF810A096
:101B500001E0DDF80CA0A88910F4004F08D00AEBD2
:101B6000CA0000EB0A1031684900B0FBF1F807E049
:101B70000AEBCA0000EB0A1031688900B0FBF1F8EB
:101B80006420B8FBF0F004012009642101FB1089F6
:101B9000A88910F4004F08D0322000EBC900B0FB38
:101BA000F1F000F00700044308E0322000EB0910D8
:101BB0006421B0FBF1F000F00F0004432C8106B06B
:101BC000BDE8F0874FF41651016000218180C1808B
:101BD00001810C21418100218181704710B50246AD
:101BE0000020108A4FF2FF0318400B884C882343D3
:101BF0008C882343CC8823431843108210BD0021D6
:101C0000018041808180C180704721B1828942F486
:101C10000052828104E082894DF6FF731A4082816E
:101C20007047F0B503460024002600250020A1F5EA
:101C300010676A3F00D100BF1846C1F3421401F09B
:101C40001F06012707FA06F5012C01D10C3004E02C
:101C5000022C01D1103000E014301AB107682F4374
:101C6000076002E00768AF430760F0BD10B51AB126
:101C7000838A0B43838204E0838ACC43A4B223404B
:101C8000838210BD028A4FF6F0731A400282028AE4
:101C90000A430282704782894FF2FF731A408281A1
:101CA00082890A438281704721B1828942F002020F
:101CB000828104E082894FF6FD731A408281704769
:101CC000028A4FF6DF731A400282028A0A430282B6
:101CD000704721B1028A42F48042028204E0028A03
:101CE0004BF6FF731A4002827047C1F308028280EC
:101CF000704701468888C0F308007047818941F029
:101D0000010181817047028BD2B20283028B42EAC9
:101D1000012202837047028B02F47F420283028B0E
:101D20000A430283704721B1828A42F020028282F4
:101D300004E0828A4FF6DF731A408282704721B135
:101D4000828A42F01002828204E0828A4FF6EF73A8
:101D50001A408282704721B1828A42F00802828250
:101D600004E0828A4FF6F7731A408282704721B1ED
:101D7000828942F40042828103E08289C2F30E022A
:101D80008281704721B1828A42F40062828204E03B
:101D9000828A4FF2FF731A4082827047828A4FF61E
:101DA000FB731A408282828A0A438282704721B181
:101DB000828A42F00202828204E0828A4FF6FD7338
:101DC0001A408282704702460020B1F5007F00D1A0
:101DD00000BF13880B4201D0012000E000207047B3
:101DE00001F40072B2F5007F00D100BFCA43028047
:101DF000704770B502460024002300250020A1F59D
:101E000010666A3E00D100BFC1F3421501F01F0306
:101E1000012606FA03F3012D02D19689334006E02C
:101E2000022D02D1168A334001E0968A33400C120B
:101E3000012606FA04F41688344013B10CB10120CF
:101E400000E0002070BD10B500220023A1F5106451
:101E50006A3C00D100BF0A1201249440A3B2DC43C3
:101E6000048010BD0038014000440040004800409C
:101E7000004C00400050004000210020674A1268DA
:101E800042F48032654B1A6000BF644A126802F463
:101E90000030491C10B9B1F5A06FF6D15F4A126845
:101EA00012F4003F01D0012000E00020012842D1BF
:101EB0005B4A126842F01002594B1A601A461268C7
:101EC00022F003021A601A46126842F002021A60F7
:101ED000524A5268514B5A601A4652685A601A4622
:101EE000526842F480625A601A46526822F47C12A8
:101EF0005A601A46526842F4E8125A601A4612684A
:101F000042F080721A6000BF444A126812F0007FEB
:101F1000FAD0424A526822F00302404B5A601A46F5
:101F2000526842F002025A6000BF3C4A526802F016
:101F30000C02082AF9D1704710B5FFF79DFF10BDBC
:101F400010B53648006840F0010034490860084682
:101F500040683449084031494860084600683249C1
:101F600008402E4908600846006820F48020086078
:101F70000846406820F4FE0048604FF41F00886067
:101F8000FFF7DAFF4FF000602849086010BD10B578
:101F9000002100200022214B5B6803F00C0121B1DD
:101FA000042906D0082928D107E0214B214C2360C1
:101FB00027E01F4B1F4C236023E0184B5B6803F4A2
:101FC0007010164B5B6803F48032022303EB9040E1
:101FD00022B9194B4343174C23600DE00F4B5B684C
:101FE00013F4003F04D0144B4343124C236003E02E
:101FF0000F4B43430F4C236003E00D4B0D4C23600C
:1020000000BF00BF054B5B68C3F303130B4CE15CDF
:10201000084B1B68CB40074C236010BD00100240EA
:10202000002002400000FFF8FFFFF6FE08ED00E090
:1020300000127A003C00002000093D004000002012
:10204000704710B5FFF7FCFF00F071F800F0C8FB17
:1020500010BD000070B5044600BFEC480068844223
:1020600007D200BFEAA3E522F2A1F8A008F0BAFB6C
:1020700000BF00BF00BFFF480068844207D300BF15
:10208000E3A3E622FCA1F1A008F0ACFB00BF00BF77
:1020900000BF207938B100BFDDA3E722FDA1EBA08E
:1020A00008F0A0FB00BF00BF00BF2088B0F5805F34
:1020B00007DD00BFD6A3EA22FDA1E4A008F092FB51
:1020C00000BF00BF2088D14909684518AC4215D02F
:1020D000287998B9E748006885420FD0FF48006822
:1020E000A84201D1FD48046028882080C7480068C4
:1020F000201A2988C54A1268114448806088C3495B
:1021000009684618A64211D0307978B9F3480068BA
:10211000A04201D1F148066020883080BB480068A9
:10212000301A2188B94A12681144488070BD00BF36
:1021300000BFEB4921F00301B44A11601146086861
:102140004FF48051018000214180017111460968DE
:1021500001F58051C74A116001211268117109030C
:10216000C44A12681180C34A126851800121DD4AB5
:102170001170A6490968D94A11604FF48051DA4AB2
:10218000A2F8A810704770B5054615B900BF00BF8A
:1021900070BD00BF15F0030F08D000BF9CA34FF423
:1021A0009972D2A1A9A008F01DFB00BF00BF00BF1B
:1021B00096480068854203D3AE480068854208D33C
:1021C00000BF93A34FF49A72D1A1A0A008F00AFB1C
:1021D00000BF00BF8D480068854203D3A548006852
:1021E00085420AD300BF00BFBF48B0F8B000401C12
:1021F00081B2BD48A0F8B010CAE7A5F1080400BF3D
:10220000207940B900BF82A340F24512C6A18FA039
:1022100008F0E8FA00BF00BF00202071AF48006856
:10222000844201D2AD480460208878490968611A67
:10223000411AAD48B0F8AA00401A81B2AA48A0F8E5
:10224000AA102046FFF706FF00BFA1E72DE9F047DF
:1022500080460D46E81C20F0030085B20C2D00DA04
:102260000C25B5F5805F02DD0020BDE8F08700BFDA
:1022700066480068804503D37E480068804508D3DF
:1022800000BF63A34FF4BD72ACA170A008F0AAFA1E
:1022900000BF00BF5D480068804503D375480068F3
:1022A00080450BD300BF00BF8F48B0F8B000401C82
:1022B00081B28D48A0F8B0104046D6E7A8F10807D3
:1022C00052480068381A1FFA80FA3888A0EB0A00D2
:1022D00008381FFA80F900BF4D4508DD00BF4CA348
:1022E0004FF4C6729CA159A008F07CFA00BF00BF51
:1022F0004D4501DD0020B8E74D4501D14046B4E72A
:102300007948B0F8AA00A9EB0501401A81B27648D5
:10231000A0F8AA1038883D4909684418207900BB04
:1023200020880AF1080129448EB26C490968A1424B
:1023300004D1364909683144684A11603349096853
:102340008C19002121712080A4F802A03E802188F0
:10235000B1F5805F04D021882C4A126811444E8068
:1023600020E005F1140048451CD80AF10800284473
:1023700086B226480068841958480068844201D211
:10238000564804600020207138882080A4F802A0FC
:102390003E802088B0F5805F04D020881B49096802
:1023A00008444680404660E72DE9F041054615B9EE
:1023B0000020BDE8F081E81C20F0030085B20C2D60
:1023C00000DA0C25B5F5805F01DD0020F1E7434818
:1023D00000680E490968401A86B286E10B48006819
:1023E0008419207900280ED1218806F10800081AE6
:1023F000A84208D3218806F10800091A05F1140043
:10240000814201D3BAE06DE1EBE000005000002012
:102410002E2E5C4C5749505C6C7769702D312E33F1
:102420002E325C7372635C636F72655C6D656D2EDA
:1024300063000000706C75675F686F6C65733A20AD
:102440006D656D203E3D2072616D000041737365C6
:102450007274696F6E2022257322206661696C6533
:1024600064206174206C696E6520256420696E208B
:1024700025730A0054000020706C75675F686F6CEC
:1024800065733A206D656D203C2072616D5F656EED
:1024900064000000706C75675F686F6C65733A204C
:1024A0006D656D2D3E75736564203D3D20300000E7
:1024B000706C75675F686F6C65733A206D656D2D24
:1024C0003E6E657874203C3D204D454D5F53495A22
:1024D000455F414C49474E454400000058000020EC
:1024E0005C0100205C000020205800206D656D5FBD
:1024F000667265653A2073616E69747920636865F8
:10250000636B20616C69676E6D656E74000000001E
:102510006D656D5F667265653A206C6567616C20FC
:102520006D656D6F727900006D656D5F66726565D2
:102530003A206D656D2D3E75736564006D656D5F48
:102540007265616C6C6F633A206C6567616C206DBD
:10255000656D6F72790000006D656D5F7265616C0D
:102560006C6F632063616E206F6E6C79207368728C
:10257000696E6B206D656D6F7279000006F1080061
:1025800028441FFA80F86A48006800EB080700201A
:102590003871208838807E80A4F800800120207166
:1025A0003888B0F5805F05D03888614909680844EB
:1025B000A0F8028000BF5F48B0F8AA1005F108003B
:1025C000084481B25B48A0F8AA10B0F8AC10B0F88B
:1025D000AA00814204DA5748B0F8AA10A0F8AC105B
:1025E0001BE00120207100BF208851490968611A51
:1025F000411A5048B0F8AA00084481B24D48A0F8EA
:10260000AA10B0F8AC10B0F8AA00814204DA494828
:10261000B0F8AA10A0F8AC1000BF47480068844288
:1026200029D107E044480068008841490968084406
:102630004149086040480068007928B13E48006878
:102640003E4909688842EDD100BF3B4800683B49DC
:10265000096888420ED038480068007950B100BF40
:10266000AFF254234FF4127235A1AFF2202008F0DC
:10267000B9F800BF00BF00BF04F1080028442F498B
:10268000096888420AD900BFAFF27C234FF4137265
:1026900032A1AFF2482008F0A5F800BF00BF00BF8C
:1026A00014F0030F0AD000BFAFF29C2340F24E2279
:1026B00036A1AFF2682008F095F800BF00BF00BF58
:1026C00014F0030F0AD000BFAFF2BC234FF4147212
:1026D0003AA1AFF2882008F085F800BF00BF04F1EE
:1026E000080066E612480068865BC5F58050B04277
:1026F0003FF774AE00BF00BF0E48B0F8AE00401CFC
:1027000081B20C48A0F8AE10002052E670B5044625
:102710000D4604FB05F188B2FFF746FE064626B1DA
:1027200004FB05F1304607F06EFD304670BD000039
:1027300050000020205800205800002054000020A5
:102740006D656D5F6D616C6C6F633A20216C6672B4
:1027500065652D3E75736564000000006D656D5FF5
:102760006D616C6C6F633A20616C6C6F6361746552
:1027700064206D656D6F7279206E6F742061626F79
:1027800076652072616D5F656E642E006D656D5FAC
:102790006D616C6C6F633A20616C6C6F6361746522
:1027A00064206D656D6F72792070726F7065726CE8
:1027B0007920616C69676E65642E00006D656D5FE0
:1027C0006D616C6C6F633A2073616E69747920631C
:1027D0006865636B20616C69676E6D656E7400007F
:1027E00030B500201CE0002400EB8005664B03EBB5
:1027F00045035C8000EB8005634B03EB45039C8045
:1028000000EB8005604B03EB4503DC805F4B33F846
:10281000104000EB80055C4B23F81540431C98B238
:102820000928E0DB5A4B23F00301002019E00023C4
:10283000584C44F8203000220CE0564B53F820301E
:102840000B60544B43F82010534B33F810301944AD
:10285000531C9AB24D4B33F810309342EDDC431CBD
:1028600098B20928E3DB30BD70B5044600BF092CDF
:102870000ADB00BF49A340F23B1251A158A007F068
:10288000B1FF00BF002070BD00BF424850F8245087
:10289000002D3CD03F49286841F8240000BF04EBDC
:1028A0008401394800EB41004088401C81B204EBB0
:1028B0008402354800EB4200418004EB8401324839
:1028C00000EB4100818804EB84022F4800EB4200BA
:1028D000408881420BDA04EB84012B4800EB410075
:1028E000418804EB8402284800EB4200818000BF4D
:1028F00000BF15F0030F08D000BF28A34FF4A67245
:1029000041A137A007F06EFF00BF00BF0FE000BF7E
:1029100000BF04EB84011C4800EB4100C088401C50
:1029200081B204EB8402184800EB4200C1802846C3
:10293000A9E770B504460D4605B970BD00BF15F096
:10294000030F08D000BF15A34FF4B47237A124A021
:1029500007F048FF00BF00BF2E4604EB84010A4881
:1029600000EB41004088401E81B204EB840206481F
:1029700000EB42004180074850F8240030600548D1
:1029800040F8246000BFD8E7D2580020F6B900080C
:102990009711002070110020E4B900082E2E5C4C25
:1029A0005749505C6C7769702D312E332E325C7331
:1029B00072635C636F72655C6D656D702E630000A1
:1029C0006D656D705F6D616C6C6F633A20747970CA
:1029D00065203C204D454D505F4D415800000000A2
:1029E000417373657274696F6E20222573222066AD
:1029F00061696C6564206174206C696E6520256472
:102A000020696E2025730A006D656D705F6D616CC5
:102A10006C6F633A206D656D702070726F706572B7
:102A20006C7920616C69676E656400006D656D701E
:102A30005F667265653A206D656D2070726F7065B6
:102A4000726C7920616C69676E65640009B9002257
:102A500000E00A68C26000BF00BF704709B90022E9
:102A600000E00A68826000BF00BF70472DE9F041B6
:102A700007460D4628687968884201D1012000E0A8
:102A8000002038BB00BF00BF7C4806680EE03068FD
:102A90007968884209D1D6F80C8000BF00BF0121B7
:102AA000304601F0E1FD464600E0F668002EEED12A
:102AB000734804680CE054B1206840B1206879681C
:102AC000884204D10DB9002000E028682060E46845
:102AD000002CF0D10DB9002000E02868786000BF1C
:102AE00000BFBDE8F0812DE9F04106460F461446CF
:102AF0001D4639463046FFF7B9FF21463046FFF7FD
:102B0000ADFF29463046FFF7A1FFBDE8F0812DE972
:102B1000F04704460D4616461F46DDE909A9DDF8D3
:102B2000208000206060A060E06084F82900C4F884
:102B30001C805448007884F82C0052480078401CCF
:102B400050490870C4F810903B463246294620464A
:102B5000FFF7C9FF2046D04710B10020BDE8F0873D
:102B60004948006820604848046000BF00BF00BFBB
:102B700000BF00BF00BF00BF00BF00BF00BF00BF5D
:102B800000BF00BF00BF2046E8E74049086000BF23
:102B900000BF704700B5024602B900BD3A48006860
:102BA000904203D13849106808600FE03649086840
:102BB00006E00168914202D11168016002E00068FC
:102BC0000028F6D100BF00B9E7E700BF2F48006832
:102BD000904202D10020FFF7D8FF00BF00BF00BF26
:102BE000DBE710B502460AB9002010BD90783038F6
:102BF000C3B22548016812E091F82C0098420DD12B
:102C0000107891F82A40A04208D154782B20405CDB
:102C1000844203D100BF00BF0846E6E709680029E7
:102C2000EAD100BF00BF0020DFE710B5044694F8EA
:102C3000290010F0010F0DD114F8290F40F0010008
:102C4000207014F8290910F0200F03D0211D204610
:102C500007F002F810BD90F8291011F0010F05D00F
:102C600090F8291021F0010180F8291070470146E1
:102C700091F8290000F0010070470000B00000202A
:102C8000AC000020600000206400002068000020EC
:102C90002DE9F0410446002C10D100BF44B900BF1B
:102CA000EFA340F21A22F7A1F9A007F09BFD00BFA5
:102CB00000BF00BF00BF0020BDE8F08100BF00BF23
:102CC00000BF207B002811D0207B01280ED0207B64
:102CD00002280BD0207B032808D000BFE0A34FF4CC
:102CE0000972F5A1EAA007F07DFD00BF00BF002634
:102CF00035E000BFE089002808DC00BFD8A340F21F
:102D00003322F3A1E2A007F06DFD00BF00BFE08910
:102D1000401E1FFA80F8A4F80E80B8F1000F1AD1F7
:102D2000276800BF00BF257B032D04D12146082062
:102D3000FFF7FFFD0BE0012D01D0022D04D121464C
:102D40000720FFF7F6FD02E02046FFF71CFA701C93
:102D5000C6B23C4602E000BF00BF002400BF002C0A
:102D6000C7D13046A8E72DE9F05F83460F4691466C
:102D700000BF00BF0026BBF1000F09D0BBF1010F5F
:102D80000AD0BBF1020F0BD0BBF1030F0DD10BE04A
:102D900006F1140086B200BF06F1140086B200BF2F
:102DA00006F10E0086B20DE00CE000BF00BFACA340
:102DB000CF22CDA1B6A007F015FD00BF00BF0020B7
:102DC000BDE8F09F00BFB9F1000F70D0B9F1010F5D
:102DD0006ED0B9F1020F6CD0B9F1030F6AD108209F
:102DE000FFF742FD044600BF00BF0CB90020E7E733
:102DF00084F80C900020206006F110002044C01CD4
:102E000020F00300606000BF606810F0030F07D07F
:102E100000BF93A3E122BBA19DA007F0E3FC00BF8C
:102E200000BF2781F01C20F0030040F2DC51081A9B
:102E3000B84201DD384605E0F01C20F0030040F206
:102E4000DC51081A608100BF61896068014404F2A6
:102E5000EC50814207D900BF81A3E722B5A18CA025
:102E600007F0C0FC00BF00BF00BFF01C20F0030053
:102E700040F2DC51081A002807DC00BF78A3EA22E0
:102E8000B9A183A007F0AEFC00BF00BF0120E08124
:102E9000A2466089A7EB00085BE00820FFF7E4FC8E
:102EA000054645B92046FFF7F3FE002088E754E0C9
:102EB0007FE07FE08FE085F80C9000206873286049
:102EC000CAF8005000BF4FF6FF70804508DB00BF16
:102ED00063A340F20512B1A16DA007F083FC00BF0F
:102EE00000BFA5F808801FFA88F040F2DC51884244
:102EF00002DA1FFA88F001E040F2DC50688105F147
:102F00001000686000BF686810F0030F08D000BFB1
:102F100053A34FF48572A6A15DA007F063FC00BF28
:102F200000BF00BF61896068014404F2EC50814237
:102F300008D900BF4AA34FF486727EA154A007F0BF
:102F400051FC00BF00BF0120E8816889A8EB0008A0
:102F5000AA46B8F1000FA0DC4AE006F1130121F007
:102F60000302F91C21F00301114488B2FFF71CFA97
:102F700004460CB9002023E704F110003044C01CC3
:102F800020F003006060278167810020206084F8C2
:102F90000C9000BF606810F0030F08D000BF30A392
:102FA00040F225128EA13AA007F01CFC00BF00BF22
:102FB0001EE000BF0720FFF757FC04461CB900BF06
:102FC00000BF0020FCE60020606027816781206050
:102FD00084F80C900CE000BF00BF21A340F23B122C
:102FE0008AA12BA007F0FEFB00BF00BF0020E7E690
:102FF00000BF0120E0810020607300BF00BF2046B9
:10300000DEE62DE9F04105460F4600BF002D08D150
:1030100000BF13A340F25D1283A11DA007F0E2FBE5
:1030200000BF00BF00BF287B032811D0287B0128E8
:103030000ED0287B00280BD0287B022808D000BFA8
:1030400007A34FF4AF727EA111A007F0CBFB00BF26
:1030500000BF2889B84201DCBDE8F081FEE0000035
:103060002E2E5C4C5749505C6C7769702D312E3395
:103070002E325C7372635C636F72655C706275663E
:103080002E6300007020213D204E554C4C00000066
:10309000417373657274696F6E20222573222066F6
:1030A00061696C6564206174206C696E65202564BB
:1030B00020696E2025730A00706275665F6672650E
:1030C000653A2073616E65207479706500000000B8
:1030D000706275665F667265653A20702D3E726536
:1030E00066203E2030000000706275665F616C6C87
:1030F0006F633A206261642070627566206C61794A
:1031000065720000706275665F616C6C6F633A2077
:103110007062756620702D3E7061796C6F616420FD
:1031200070726F7065726C7920616C69676E65642E
:1031300000000000636865636B20702D3E7061794C
:103140006C6F6164202B20702D3E6C656E20646F67
:103150006573206E6F74206F766572666C6F772072
:103160007062756600000000504255465F504F4F38
:103170004C5F42554653495A45206D757374206221
:103180006520626967676572207468616E204D45CD
:103190004D5F414C49474E4D454E540072656D5F41
:1031A0006C656E203C206D61785F7531365F740010
:1031B000706275665F616C6C6F633A2070627566F1
:1031C00020712D3E7061796C6F61642070726F7038
:1031D00065726C7920616C69676E6564000000003F
:1031E000706275665F616C6C6F633A2070627566C1
:1031F0002D3E7061796C6F61642070726F706572C2
:103200006C7920616C69676E656400007062756638
:103210005F616C6C6F633A206572726F6E656F757B
:103220007320747970650000706275665F72656105
:103230006C6C6F633A207020213D204E554C4C0041
:10324000706275665F7265616C6C6F633A20736162
:103250006E6520702D3E7479706500002889A7EB9B
:1032600000083E462C4625E06089301A86B200BF31
:103270004FF6FF7080450ADB00BFAFF21C2340F21F
:103280007512FBA1AFF2F81007F0ACFA00BF00BF57
:10329000208940442081246800BF54B900BFAFF2A8
:1032A000402340F27912F7A1AFF21C2007F09AFAFE
:1032B00000BF00BF6089B042D6DB207B002818D158
:1032C0006089B04215D06068001B304481B220464E
:1032D000FEF7BCFF044600BF54B900BFAFF2802325
:1032E00040F28312EDA1AFF2582007F07BFA00BF45
:1032F00000BF668160892081206810B12068FFF7D7
:10330000C7FC0020206000BFBDE8F0812DE9F0413E
:1033100004460D4600BF5CB900BFAFF2BC234FF4BA
:10332000D772AFF2A021AFF2982007F05BFA00BF8E
:1033300000BF05B114B90020BDE8F081002D13DAFB
:10334000684287B200BF6089B8420CDA00BFAFF2B2
:10335000F02340F2B512D8A1AFF2CC2007F042FA28
:1033600000BF0120E8E700E0AFB2267BD4F804807C
:103370000EB1032E0DD16068401B606004F1100097
:103380006168814223D200BF00BFC4F804800120DD
:10339000D2E7022E01D0012E0AD1002D06DA608973
:1033A000B84203DB6068401B606010E00120C3E7A7
:1033B00000BF00BFAFF258334FF4F272C6A1AFF2B4
:1033C000303007F00FFA00BF00BF0120B4E760897A
:1033D0002844608120892844208100BF00BF00204C
:1033E000AAE70146002002E0421CD0B20968002989
:1033F000FAD1704710B1C189491CC181704770B5BD
:1034000006460D4600BF0EB1002D0BD100BFAFF236
:10341000B0334FF42372B4A1AFF28C3007F0E2F96D
:1034200000BF70BD00BF344604E0208929890844EC
:103430002081246820680028F7D100BF2089618995
:1034400088420AD000BFAFF2E83340F29522B4A11F
:10345000AFF2C43007F0C6F900BF00BF00BF20685C
:1034600050B100BFAFF2084340F29622B8A1AFF2CC
:10347000E03007F0B7F900BF00BF20892989084470
:103480002081256000BFCCE770B505460C4621467B
:103490002846FFF7B4FF2046FFF7ACFF00BF00BF90
:1034A00070BD70B5044601262568002D24D000BFEC
:1034B00020896189401A298988420AD000BFAFF269
:1034C000604340F2CB22A6A1AFF23C4007F08AF95C
:1034D00000BF00BF20896189401A28810020206038
:1034E0006089208100BF00BF2846FFF7D1FB064658
:1034F000002E01DD00BF00BF00BF20896189884226
:103500000AD000BFAFF2A8434FF437729DA1AFF2CB
:10351000804007F067F900BF00BF002E01DD0020EA
:1035200070BD2846FCE72DE9F04104460D46002613
:10353000002700BF00BF00BF24B11DB12089298929
:1035400088420EDA00BFAFF2E84340F2FB2293A1BB
:10355000AFF2C44007F046F900BF6FF00900BDE8C4
:10356000F08100BF00BF00BF54B900BFAFF21053DD
:1035700040F2013295A1AFF2E84007F033F900BF05
:1035800000BF6089801B6989C91B884204DB688988
:10359000C01B1FFA80F803E06089801B1FFA80F8C7
:1035A0006A68D11962689019424606F013FE06EB6C
:1035B000080086B207EB080087B200BF6089B042FE
:1035C0000ADA00BFAFF2685340F20D3283A1AFF2C6
:1035D000405007F007F900BF00BF6089B04201D139
:1035E0000026246800BF6889B8420ADA00BFAFF23B
:1035F000905340F213327FA1AFF26C5007F0F2F813
:1036000000BF00BF6889B84201DC00272D68002D8B
:1036100015D068892989884211D100BF286868B10E
:1036200000BFAFF2C4534FF4477279A1AFF2A0507C
:1036300007F0D8F800BF6FF0080090E700BF002C3B
:1036400015D060892189884211D100BF206868B1F6
:1036500000BFAFF2F45340F221326DA1AFF2D0506F
:1036600007F0C0F800BF6FF0080078E7E6E0E6E09A
:1036700067726F77203C206D61785F7531365F74BB
:1036800000000000706275665F7265616C6C6F634C
:103690003A207120213D204E554C4C006D656D5FE8
:1036A0007265616C6C6F6320676976652071203D7F
:1036B0003D204E554C4C0000696E6372656D656E21
:1036C000745F6D61676E6974756465203C3D207040
:1036D0002D3E6C656E00000062616420706275664C
:1036E0002074797065000000286820213D204E5527
:1036F0004C4C2920262620287420213D204E554C54
:103700004C29202870726F6772616D6D657220762A
:10371000696F6C6174657320415049290000000095
:10372000702D3E746F745F6C656E203D3D20702D72
:103730003E6C656E20286F66206C61737420706229
:10374000756620696E20636861696E29000000005B
:10375000702D3E6E657874203D3D204E554C4C00DA
:10376000702D3E746F745F6C656E203D3D20702D32
:103770003E6C656E202B20712D3E746F745F6C65FE
:103780006E000000702D3E746F745F6C656E203D9E
:103790003D20702D3E6C656E000000007062756605
:1037A0005F636F70793A20746172676574206E6F21
:1037B000742062696720656E6F75676820746F207A
:1037C000686F6C6420736F7572636500705F746FEF
:1037D00020213D204E554C4C000000006F66667362
:1037E00065745F746F203C3D20705F746F2D3E6C7C
:1037F000656E00006F66667365745F66726F6D203C
:103800003C3D20705F66726F6D2D3E6C656E0000F2
:10381000706275665F636F7079282920646F6573C5
:10382000206E6F7420616C6C6F77207061636B65C4
:103830007420717565756573210A000000BF002D45
:103840007FF491AE00BF00BF002088E62DE9F05F55
:103850008046894616461D464FF0000B00BFB8F162
:10386000000F0DD100BFAFF608034FF44F7271A1E6
:10387000AFF2E47006F0B6FF00BF0020BDE8F09F95
:1038800000BF00BFB9F1000F0CD100BFAFF630038D
:1038900040F23D326FA1AFF6080006F0A3FF00BF73
:1038A0000020EBE700BF4FF0000AB8F1000F02D094
:1038B000B9F1000F01D10020E0E7444620E035B126
:1038C0006089A84203DC6089281A85B217E0608904
:1038D000401B87B2B74200DD37466268511909EBD9
:1038E0000A003A4606F076FC0BEB07001FFA80FB55
:1038F0000AEB07001FFA80FAF01B86B20025246845
:103900000EB1002CDBD15846B8E72DE9F04705464B
:103910000F46904646464FF0000A00BF002D0DD1DD
:1039200000BFAFF6C4034FF45B7253A1AFF6A00023
:1039300006F058FF00BF0020BDE8F08700BF00BFC1
:10394000002F0CD100BFAFF6E80340F26D3250A15A
:10395000AFF6C40006F046FF00BF0020ECE700BF52
:103960001DB117B12889404502DA6FF00900E3E77D
:103970002C4621E000BF54B900BFAFF61C1340F243
:1039800075324AA1AFF6F80006F02CFF00BF00BF69
:10399000B1466089484501DAB4F80A9007EB0A019C
:1039A0004A46606806F016FCA6EB090086B20AEBF0
:1039B00009001FFA80FA2468002EDBD100BF0EB97F
:1039C000C2450AD000BFAFF668134FF460723DA144
:1039D000AFF6441006F006FF00BF00BF0020ABE7C3
:1039E0002DE9F04104460F46206810B92046BDE895
:1039F000F081218900223846FFF7B5F905460DB957
:103A00002046F4E721462846FFF78DFD064600BF15
:103A100056B100BFAFF6B81340F29E322FA1AFF6F9
:103A2000901006F0DFFE00BF00BF2046FFF730F920
:103A30002846DCE7706275665F636F70795F70615E
:103A4000727469616C3A20696E76616C6964206297
:103A500075660000706275665F636F70795F706194
:103A6000727469616C3A20696E76616C6964206475
:103A70006174617074720000706275665F74616B6E
:103A8000653A20696E76616C696420627566000033
:103A9000706275665F74616B653A20696E76616C01
:103AA000696420646174617074720000706275668C
:103AB0005F74616B653A20696E76616C6964207031
:103AC00062756600646964206E6F7420636F70793C
:103AD00020616C6C20646174610000007062756626
:103AE0005F636F7079206661696C65640000000037
:103AF0002DE9F04705468A464FF000086F6838897F
:103B000004F021FC00F0FF0900266948046819E070
:103B1000207C484514D1606990B107F10C032A4616
:103B20002146D4E905C0E04750B100254FF0010817
:103B300036B1E068F0605E480068E0605C480460B0
:103B40002646E468B8F1000F01D1002CE0D14046D0
:103B5000BDE8F087024609B9002000E0086810605F
:103B600000207047024609B9002000E00868506054
:103B7000002070474161826170472DE9FE4F044685
:103B80000E46914600BF00BF14213046FFF7BEFB32
:103B900090B1002211460120FFF7E5F805462DB946
:103BA00000BF00BF4FF0FF30BDE8FE8F3146284612
:103BB000FFF76AFC00BF14E035466FF0130128469A
:103BC000FFF7A4FB00280CD000BF00BF39A3E822F8
:103BD00041A14BA006F006FE00BF00BF4FF0FF3032
:103BE000E2E7484604F06EFC070009D100BF00BFC1
:103BF000B54202D02846FFF74BF86FF00300D3E739
:103C00000CB1206810B907F1040800E0A046227C3E
:103C1000A17A8DE88600E37A4A464146284604F0B8
:103C2000BAFD8246B54202D02846FFF731F8504629
:103C3000BAE770B504460D46221D29462046FFF717
:103C40009CFF70BD70B5054619480068A84205D1B3
:103C500017480068C068164908600CE014480468FA
:103C600007E0E06820B1E068A84201D1E868E060C0
:103C7000E468002CF5D129460020FEF75AFE70BDFD
:103C800070B5054600BF00BF0020FEF7EDFD0446FD
:103C90005CB11C21204606F0B6FA2574FF20E072C4
:103CA00003480068E06002480460204670BD0000E0
:103CB0006C0000202E2E5C4C5749505C6C7769706C
:103CC0002D312E332E325C7372635C636F72655CD0
:103CD0007261772E6300000043616E277420726565
:103CE00073746F7265206865616465722077652002
:103CF0006A7573742072656D6F76656421000000CB
:103D0000417373657274696F6E2022257322206679
:103D100061696C6564206174206C696E652025643E
:103D200020696E2025730A0070B5044600254CB149
:103D3000606818B16068FEF7ABFF054621460420B5
:103D4000FEF7F7FD284670BD70B50446002506E075
:103D500026682046FFF7E8FF2844C5B23446002C09
:103D6000F6D1284670BD10B50446207C08B3207CEF
:103D70000A281ED0207C01281BD000BF00BFE06FA6
:103D800030B100BF00BFE06FFEF782FF0020E067A8
:103D9000606F08B100BF00BFA06F08B100BF00BFD7
:103DA000606FFFF7D1FFA06FFFF7CEFF00206067C5
:103DB000A06710BD2DE9FC474FF0000AEB480068F2
:103DC000401CEA4908600026E94804680CB900BFB5
:103DD00000BF7BE100BF00BF00BF207C002808D1EE
:103DE00000BFE4A340F25522EBA1F6A006F0FAFCD6
:103DF00000BF00BF00BF207C012808D100BFDDA3A9
:103E000040F25622F9A1EFA006F0ECFC00BF00BF83
:103E100000BF207C0A2808D100BFD6A340F2572259
:103E2000FDA1E8A006F0DEFC00BF00BF0025A9460A
:103E3000207C022807D194F84A00062803D1681C88
:103E4000C5B200BF71E094F84A000C2803D1681C89
:103E5000C5B200BF69E094F89C0000281DDD54F84D
:103E6000980F401C206020792168A4F19804A0F1EB
:103E70000100F54A105C814257D30020C4F8980035
:103E800094F89C00072804D294F89C00401C84F805
:103E90009C00204603F019FB47E0B4F936000028E7
:103EA00003DBE08E401C00B2E086A06FE8B3B4F9FB
:103EB0003600B4F94810884237DB00BF00BF207CD1
:103EC00002280DD034F8460F34F9021C00EBE10053
:103ED0002179DE4A515C884000B26080A4F146043A
:103EE0000020E086B4F85200B4F85C10884202DA90
:103EF000B4F8520001E0B4F85C001FFA80F84FEA11
:103F00006800A4F85400B4F85400218F884204DA01
:103F1000208F4004000CA4F85400208FA4F8520015
:103F200000BF00BF204603F0FDF9207C062809D120
:103F30008E49206B0968081A282803D9681CC5B265
:103F400000BF00BF208910F0080F37D0207C042864
:103F500002D0207C072831D1BD49D4F89400084410
:103F60004FF4FA71B0FBF1F0804A216B1268511ADC
:103F7000884208D200BF00BF681CC5B209F1010029
:103F800000F0FF091AE094F89D0042F29F4250436E
:103F9000D4F8941001EBC0004FF4FA71B0FBF1F0CB
:103FA000724A216B1268511A884207D2204603F0E8
:103FB0003DFA94F89D00401C84F89D00207C032865
:103FC00009D16A49206B0968081A282803D9681C96
:103FD000C5B200BF00BF207C092809D16349206B0E
:103FE0000968081AF02803D9681CC5B200BF00BFD1
:103FF000002D46D02046FFF7B6FE8EB100BF5C48CC
:104000000068844208D100BF5AA340F2E22291A185
:104010006CA006F0E7FB00BF00BFE068F06011E0B5
:1040200000BF53480068A04208D000BF51A340F22F
:10403000E62293A163A006F0D5FB00BF00BF4C4968
:10404000E068086000BFD4F8900028B16FF0040168
:10405000D4F890206069904700BFB9F1000F09D0F3
:10406000238C228BCDE90023231D2246616AA06D9B
:1040700003F0E1F8E76821460220FEF75AFC3C46CF
:1040800024E014F8340F401C207020786178A4F1EB
:104090003404884218DB002084F8340000BF00BFDD
:1040A00000BFD4F88C0030B12146D4F88C20606970
:1040B0009047824601E04FF0000A00BFBAF1000FBE
:1040C00002D1204602F07DFF2646E468002C7FF4F2
:1040D00081AE0026754804682CE100BF207C0A28C8
:1040E00008D000BF23A340F20A3271A135A006F028
:1040F00079FB00BF00BF00251C49206B0968081A26
:10410000F02801D9681CC5B2002D2ED02046FFF73B
:104110002AFE8EB100BF65480068844208D100BF06
:1041200014A340F219326EA126A006F05BFB00BF7B
:1041300000BFE068F06011E000BF5C480068A0428A
:1041400008D000BF0BA340F21D326FA11DA006F0E6
:1041500049FB00BF00BF5549E0680860E768214699
:104160000220FEF7E6FB3C46E4E0E1E0A40000208C
:10417000B00000202E2E5C4C5749505C6C77697063
:104180002D312E332E325C7372635C636F72655C0B
:104190007463702E630000007463705F736C6F77DC
:1041A000746D723A20616374697665207063622D64
:1041B0003E737461746520213D20434C4F53454448
:1041C0000A000000417373657274696F6E202225C6
:1041D0007322206661696C6564206174206C696E6D
:1041E0006520256420696E2025730A007463705F62
:1041F000736C6F77746D723A2061637469766520B1
:104200007063622D3E737461746520213D204C49BA
:104210005354454E0A0000007463705F736C6F77EF
:10422000746D723A20616374697665207063622DE3
:104230003E737461746520213D2054494D452D57CE
:104240004149540A0000000015BA000808BA0008E5
:10425000B84C0A007463705F736C6F77746D723A58
:10426000206D6964646C652074637020213D207446
:1042700063705F6163746976655F70636273000089
:104280007463705F736C6F77746D723A20666972D5
:10429000737420706362203D3D207463705F6163BE
:1042A000746976655F70636273000000B40000207B
:1042B0007463705F736C6F77746D723A2054494DFC
:1042C000452D57414954207063622D3E73746174CB
:1042D00065203D3D2054494D452D5741495400002E
:1042E0007463705F736C6F77746D723A206D69647C
:1042F000646C652074637020213D207463705F746A
:10430000775F7063627300007463705F736C6F77C4
:10431000746D723A20666972737420706362203D16
:104320003D207463705F74775F7063627300000098
:104330002646E468002C7FF4D0AEBDE8FC8770B55B
:1043400005460C4600BF2868A04203D12868C06813
:10435000286017E0F849286808600EE0F648006811
:10436000C068A04204D1F449E0680968C86008E068
:10437000F1480068C068F0490860EF48006800280C
:10438000ECD100BF0020E06000BF2046FFF7EBFC4F
:10439000207C0A2810D0207C01280DD094F822001F
:1043A00010F0010F08D094F8220040F0020084F8C9
:1043B0002200204602F005FE207C01281DD000BF0F
:1043C000606F50B100BFAFF2542340F2F742DBA15F
:1043D000AFF2102006F006FA00BF00BF00BFA06FCA
:1043E00050B100BFAFF274234FF49F62D9A1AFF276
:1043F0002C2006F0F7F900BF00BF0020207400BF9A
:1044000000BF70BD70B50546287C082864D2DFE87F
:1044100000F004323D485163635A002400BFD44881
:104420000068A84205D1D2480068C068D049086039
:1044300018E0CF480068C04908600EE0BE48006838
:10444000C068A84204D1BC49E8680968C86008E0AF
:10445000B9480068C068B8490860B74800680028D3
:10446000ECD100BF0020E86000BF29460220FEF723
:1044700060FA002533E000242946BE48FFF75FFFBD
:1044800029460320FEF755FA002528E00024294696
:10449000B948FFF754FF29460220FEF74AFA0025E3
:1044A0001DE00121284602F0A6FC04460CB90520B7
:1044B000287414E00121284602F09DFC04460CB942
:1044C000052028740BE00121284602F094FC0446E4
:1044D0000CB90920287402E00024002500BF00BFA9
:1044E0001DB114B9284602F06CFD204670BD10B510
:1044F00001460B8D486AC218088F40F2B454CB6A4B
:10450000A04201DD204600E0088F1844101A04D4B0
:10451000088D4885C86A101A10BDCB6A486AC01A4F
:10452000002802DD0020488503E04B6AC86AC01AF3
:1045300048850020F0E770B504460D4600BF208D89
:104540004FF6FF71081AA8420ADA00BFAFF2DC3357
:104550004FF4DD7289A1AFF2943006F043F900BF49
:1045600000BF208D28442085208D40F66831884288
:1045700001DD084620852046FFF7B9FF064640F2D8
:10458000DA2086420ADB00BF94F8220040F00200E5
:1045900084F82200204602F014FD00BF00BF00BFD7
:1045A00070BD2DE9F04107460D4614461E463CB14C
:1045B00021892846FFF7BFFF2046FEF769FB05E08B
:1045C00026B92846FFF71EFFBDE8F0810020FBE773
:1045D00070B56948046835E0E06FD0B100BF00BF36
:1045E00000BFD4F8840040B100232146D4F8846091
:1045F000E26F6069B047054606E000232146184691
:10460000E26FFFF7CEFF054600BF0DB90020E0675F
:1046100000BF94F8220010F0010F12D000BF00BFBD
:1046200000BF94F8220040F0020084F822002046E7
:1046300002F0C7FC00BF94F8220020F0030084F8C9
:104640002200E468002CC7D170BD10B5FFF7C0FF91
:1046500053480078401CC0B25149087010F0010F57
:1046600001D0FFF7A7FB10BD2DE9FF5F04460E4602
:10467000207C0A2808D121464A48FFF760FE2146DF
:104680000220FEF756F938E0A76DD4F824800CB963
:10469000002000E020680290201D00D100E060684A
:1046A0000390B4F818A0B4F82090D4F89050D4F83F
:1046B00014B021463048FFF742FEA06F10B1A06F42
:1046C000FFF742FB606F10B1606FFFF73DFB2146C3
:1046D0000220FEF72EF900BF1DB16FF0040158460D
:1046E000A84700BF4EB100BF00BF03AB02AA4146BE
:1046F0003846CDE900A902F09EFDBDE8FF9F00BF4E
:1047000029480088401C80B2274A1080B0F5004F2D
:1047100002DB4FF4805010801748016806E0088BD8
:10472000214A1288904200D1EAE7C9680029F6D1EF
:104730001C48016841E00000B8000020756E7365F8
:104740006E74207365676D656E7473206C65616B44
:10475000696E6700756E61636B6564207365676D74
:10476000656E7473206C65616B696E670000000094
:10477000A8000020AC000020B00000207463705F2F
:104780007265637665643A206C656E20776F756C30
:10479000642077726170207263765F776E640A00BE
:1047A000BC000020B40000209C000020088BFF4AC1
:1047B0001288904200D1A3E7C9680029F6D1FC48CD
:1047C000016806E0088BF94A1288904200D197E709
:1047D000C9680029F6D1F548008870472DE9F041F5
:1047E00007460D46164600BF387C00280ED000BF95
:1047F000AFF280634FF48C72EEA1AFF2386005F037
:10480000F1FF00BF6FF00C00BDE8F08100BF16B9EA
:10481000FFF775FF0646E648046810E0208BB042BB
:104820000CD144B1206830B12DB1286818B120688E
:104830002968884202D16FF00A00E5E7E468002C9D
:10484000ECD1E648046810E0208BB0420CD144B1B2
:10485000206830B12DB1286818B1206829688842D5
:1048600002D16FF00A00CFE7E468002CECD1DC48FD
:10487000046810E0208BB0420CD144B1206830B104
:104880002DB1286818B120682968884202D16FF0DC
:104890000A00B9E7E468002CECD1D24804680AE0C9
:1048A000208BB04206D120682968884202D16FF07F
:1048B0000A00A9E7E468002CF2D11DB1286808B10C
:1048C000286838603E8300BFC5480068F860C44867
:1048D000076000BF00BF00BF002095E703466FF0F0
:1048E0000400704770B504460E4600BF207C0028C7
:1048F0000CD000BFAFF2847340F27312BAA1AFF2D2
:104900003C7005F06FFF00BF002070BD00BF207C31
:10491000012801D12046F8E70320FDF7A5FF054651
:104920000DB90020F1E760696861208B28830120C0
:10493000287420892881288940F002002881E07AA3
:10494000E872A07AA8720CB9002000E02068286004
:1049500000BFA3480068A04205D1A1480068C06814
:104960009F49086018E09E480068A84908600EE06A
:10497000A6480068C068A04204D1A449E06809685C
:10498000C86008E0A1480068C068A04908609F4866
:1049900000680028ECD100BF0020E06000BF214685
:1049A0000220FDF7C6FF9A48E86100BF8048006812
:1049B000E8607F48056000BF2846A6E72DE9F04182
:1049C00005460E46304603F07DFD044654B1208C6A
:1049D00040B1208C283887B2BD4201DA284600E079
:1049E000384685B22846BDE8F0818A4800688A4981
:1049F00009680844874908600846006870472DE93F
:104A0000FC4704460E469046994600BF207C00288D
:104A10000ED000BFAFF6A4034FF402727FA1AFF631
:104A20005C0005F0DFFE00BF6FF00C00BDE8FC8706
:104A300000BF00BF00BF16B13068606002E06FF0D9
:104A40000800F3E7A4F82080208B10B9FFF757FE89
:104A50002083FFF7CAFF054600206062A565681E37
:104A6000E064A06640F6683020856085606AE06298
:104A700040F66830A4F85C004FF406702087208F61
:104A80003146FFF79BFF20870120A4F85200208FBA
:104A900000EB80004004000CA4F8540002202074B5
:104AA000C4F8889000BF4E480068A04205D14C4829
:104AB0000068C0684A49086018E0494800685349DE
:104AC00008600EE051480068C068A04204D14F4918
:104AD000E0680968C86008E04C480068C0684B4955
:104AE00008604A4800680028ECD100BF0020E06060
:104AF00000BF00BF39480068E0603848046000BF6C
:104B000001230022CDE9002302231146204601F0B3
:104B1000FEFD074617B9204602F053FA384685E7EE
:104B2000417470472DE9F04106464FF07F08002799
:104B300000252A48046813E0607CB0420FDC607CEA
:104B400040450CDC3449206B0968081AB84206D38A
:104B50003149206B09680F1A254694F81180E468E2
:104B6000002CE9D12DB100BF00BF01212846FFF77D
:104B70007BFDBDE8F08170B500260025194804686A
:104B80000BE02549206B0968081AB04204D322497A
:104B9000206B09680E1A2546E468002CF1D125B176
:104BA00000BF00BF0121284652E053E09C000020D6
:104BB000AC0000207463705F62696E643A206361C8
:104BC0006E206F6E6C792062696E6420696E20734E
:104BD0007461746520434C4F53454400B00000207D
:104BE000A8000020B40000207463705F6C697374C7
:104BF000656E3A2070636220616C72656164792031
:104C0000636F6E6E6563746564000000B800002019
:104C1000DD480008A0000020A40000207463705F3D
:104C2000636F6E6E6563743A2063616E206F6E6CA5
:104C30007920636F6E6E65637465642066726F6D54
:104C400020737461746520434C4F53454400000049
:104C5000FFF70AFD70BD70B506460220FDF704FEA1
:104C600004461CBB00BF00BFFFF785FF0220FDF715
:104C7000FBFD04468CB900BF00BF3046FFF752FF72
:104C80000220FDF7F1FD04463CB13B48B0F8CC00F2
:104C9000401E81B23848A0F8CC103CB13648B0F87C
:104CA000CC00401E81B23448A0F8CC10002C44D077
:104CB000A021204605F0A7FA402004F1180404F8CA
:104CC000070C40F66830A4F856004FF00000A4F836
:104CD000580040F66830208260824FF0000004F8EF
:104CE0000E0C4FF0FF0004F80D0C4FF406702084FA
:104CF0004FF0060020864FF00000A0854FF0060020
:104D0000E0854FF0FF30E0834FF001006087FFF750
:104D10006CFE0546E56425646563256517480068F3
:104D2000A06100202077AFF28570E0661448E0674C
:104D3000002084F88500A4F11804204670BD10B549
:104D40004020FFF788FF10BD41617047C0F8841014
:104D50007047C0F880107047C0F890107047C1616C
:104D60007047C0F88C1080F8352070470146054820
:104D700050F821007047000020580020A4000020B7
:104D800000DD6D00700000202DE9FC5F044600206E
:104D90000190FF48007810F0100F74D0B4F85C0058
:104DA000616E00EB0109FB49206E0968401A15D4B9
:104DB000F849206E0968884204D1F749606E096895
:104DC000401A0BD4F449606E096888421ED1F3483A
:104DD0000068C089B4F85C10884217DDEF480068AD
:104DE000C089A4F85C00EB4800682066EA480068C7
:104DF0006066B4F85C00002806DD94F89C0000288A
:104E000002DD002084F89C0000BF00BFE249E06C96
:104E10000968081A002844DC0020A4F86C00E04867
:104E2000008878BBB4F85C10606E0844484532D105
:104E3000B4F9360000282EDBD749E06C09688842B7
:104E400029D10120019094F85000401C94F8501092
:104E5000884204DD94F85000401C84F8500094F817
:104E60005000032810DDB4F85200218F084480B2AE
:104E7000B4F8521088420EDDB4F85200218F084475
:104E8000A4F8520007E082E194F85000032802D110
:104E9000204602F08CFA0198002801D184F85000D5
:104EA000DCE0E06C00F10100BB490968081A7ED41F
:104EB000B949A06D0968081A002878DC94F8220026
:104EC00010F0040F08D014F8220F20F00400207016
:104ED000608E2086A4F12204002004F13404A07521
:104EE000608AB4F9101000EBE10000B2A082AA4978
:104EF000A0690968A1EB00002087608F218F08441A
:104F000060874FF000002077A3480068A06114F884
:104F1000240CA4F13404042828DBB4F85200B4F8BB
:104F20005410884210DAB4F85200218F084480B23D
:104F3000B4F85210884205DDB4F85200218F0844BD
:104F4000A4F8520000BF11E034F8381F4943628BC7
:104F500091FBF2F1114488B2618BA4F138048142D3
:104F600001DAA4F8520000BF00BF00BF00BF00BFBD
:104F700049E000BF00BFA66FA06F0068A06700BF38
:104F800000BF00BF7068FEF72CFAB4F870108842BA
:104F900008DD00BF83A340F2B1328CA195A005F0DB
:104FA00021FC00BF00BFB4F86C0068B100E052E023
:104FB0003169888903F0C7F910F0010F04D0B4F803
:104FC0006C00401EA4F86C007068FEF70AFAB4F892
:104FD0007010081AA4F870003046FEF7A5FE00BF56
:104FE00000BFB4F8700070B100BFA06F50B9606F1F
:104FF00040B900BF6BA34FF46F7288A17DA005F08C
:10500000F1FB00BF00BFA06FC8B1A16F096948687C
:1050100003F09FF98346A16F0969888903F093F92A
:1050200010F0030F01D0012000E00020A16F89895A
:105030000844584458490968401A002899DDA06F6F
:1050400018B94FF0FF30E08601E00020E086002034
:1050500084F8340002E00020A4F86C0047E000BFB0
:1050600000BF666F606F0068606700BF00BF00BF71
:105070007068FEF7B6F9B4F87010884208DD00BF1A
:1050800048A340F2DE3251A15AA005F0ABFB00BFAD
:1050900000BFB4F86C0058B13169888903F053F946
:1050A00010F0010F04D0B4F86C00401EA4F86C009E
:1050B0007068FEF796F9B4F87010081AA4F870003A
:1050C0003046FEF731FE00BF00BFB4F8700070B18B
:1050D00000BFA06F50B9606F40B900BF31A340F26C
:1050E000E7324EA143A005F07DFB00BF00BF606F1B
:1050F000F0B1616F0969486803F02BF98346616F6D
:105100000969888903F01FF910F0030F01D001200D
:1051100000E00020616F8989084458441E490968ED
:10512000081A05D41C49A06D0968081A002896DDE4
:1051300000BF00BFE06B50B31749206C0968401AEC
:1051400025D53E49E06B0968081A0FFA80F800BFC0
:1051500000BFB4F94400A8EBE0000FFA80F8B4F8FF
:105160004400404400B2A4F84400B8F1000F03DA50
:10517000C8F100000FFA80F834F9460FA8EBA00040
:105180000FFA80F82088404400B2208058E065E0A3
:10519000D0000020C8000020CC000020C00000206B
:1051A000D20000202E2E5C4C5749505C6C77697001
:1051B0002D312E332E325C7372635C636F72655CCB
:1051C0007463705F696E2E63000000007063622D6F
:1051D0003E736E645F71756575656C656E203E3DEE
:1051E00020706275665F636C656E286E6578742DDD
:1051F0003E702900417373657274696F6E202225B9
:105200007322206661696C6564206174206C696E2C
:105210006520256420696E2025730A007463705F21
:10522000726563656976653A2076616C69642071A0
:1052300075657565206C656E67746800A400002054
:10524000208834F9021C00EBE10000B26080A4F178
:10525000460400BF00BF4FF00000E063F84800883C
:10526000002872DDF748616A006800F10100081A41
:105270006CD4F448616A0068F14A12881044401EF8
:10528000081A002862DCEF49606A0968451AEE488E
:10529000476800BF406850B900BFAFF2F80340F262
:1052A0004442EAA1AFF2B40005F09CFA00BF00BF8F
:1052B00000BF47F6FF7085420ADB00BFAFF21C1348
:1052C00040F24542E5A1AFF2D40005F08BFA00BFF1
:1052D00000BFDD4840684089A84238DA00BFDA489C
:1052E00040680089A8420ADA00BFAFF2481340F2D2
:1052F0004742DEA1AFF2041005F074FA00BF00BF10
:10530000D14840680089401B1FFA80FA06E078897E
:105310002D1AA7F808A0002078813F687889A84254
:10532000F5DB684201B23846FDF7F0FF002822D0D5
:1053300000BF00BFAFF2941340F25442CFA1AFF2CE
:105340004C1005F04FFA00BF15E020E126E0BE4901
:105350004868694209B2FDF7D9FF60B100BF00BFDC
:10536000AFF2C01340F25942C4A1AFF2781005F079
:1053700039FA00BF00BFB44978688860084681895F
:10538000B04A606A1268801A081AAF498881AD492C
:10539000606A0860AC490969486011E0A949606A1F
:1053A0000968081A0CD500BF00BF00BF94F822009E
:1053B00040F0020084F82200204601F002FE00BF07
:1053C000A049606A0968081A7ED4218D606A084481
:1053D000401E9C490968081A002875DC9949606AD2
:1053E0000968884271D198490969888902F0ABFF40
:1053F00010F0030F01D0012000E0002092498989BC
:1054000008448F490880208D0988884260DA00BFEF
:1054100000BF8D490969888902F095FF10F0010FDE
:1054200018D04FF6C07002F088FF87490969898952
:1054300000EA010B84490969888902F084FF00F0C1
:105440003E00009002F079FF4BEA000B7E480069B5
:10545000A0F80CB0208D7C4988810969888902F008
:1054600072FF10F0020F04D077488089401E764901
:105470008881754A91895068FDF7C3FD72490969B1
:10548000888902F060FF10F0030F01D0012000E0D6
:1054900000206D49898908446949088000BF218D31
:1054A000606A014467480068654A12881044814276
:1054B0000DD000BFAFF214334FF4916274A1AFF27C
:1054C000CC2005F08FF901E05DE058E000BF00BF9F
:1054D0005C4800685A4909880844606200BF208D12
:1054E0005749098888420ADA00BFAFF2483340F2D0
:1054F000CB4275A1AFF2043005F074F900BF00BFD4
:10550000208D4F490988401A20852046FEF7EFFF7D
:105510004D4840680089002806DD4B4840687249C4
:10552000086000204849486047490969888902F0B5
:105530000AFF10F0010F07D000BF00BF6B480078D2
:1055400040F020006949087000BF94F8220010F074
:10555000010F0DD014F8220F20F0010020702078E8
:1055600040F0020004F82209204601F02AFD05E07F
:1055700094F8220040F0010084F8220020E0204648
:1055800001F06EFC1CE0204601F06AFC18E02D4999
:10559000606A0968081A08D4218D606A0844401EB0
:1055A00028490968081A00280ADD00BF94F822007B
:1055B00040F0020084F82200204601F002FD00BF06
:1055C000BDE8FC9F2DE9F04780464948006800F19E
:1055D000140547490968888902F0B5FE0521B1EB39
:1055E000203F2CDA42490968888902F0ACFE052187
:1055F000C1EB20308004070C00249EE015F80490D5
:10560000B9F1000F06D0B9F1010F07D0B9F1020FBF
:1056100070D108E000BF00BFBDE8F087601C84B215
:1056200000BF00BF88E000BF00BF601C285C0428EA
:1056300002D1201DB8425EDD00BF00BFECE77FE075
:10564000D2000020C80000202C590020696E73652C
:10565000672E7020213D204E554C4C00696E7361C1
:105660006E65206F666673657421000070627566F2
:1056700020746F6F2073686F72742100706275669A
:105680005F686561646572206661696C65640000CD
:105690007463705F726563656976653A20736567E8
:1056A0006D656E74206E6F74207472696D6D6564C3
:1056B00020636F72726563746C7920746F207263FB
:1056C000765F776E640A00007463705F726563656D
:1056D0006976653A207463706C656E203E20726353
:1056E000765F776E640A0000D8000020D4000020A6
:1056F000C000002013E0E01C295CA01C285C41EAEB
:10570000002640F2B450864200DC16B940F2B45094
:1057100000E03046A8F83800201D84B20CE000BF3D
:1057200000BF601C285C10B900BF00BF74E7601C9C
:10573000285C204484B200BF00BFBC42FFF65EAFCD
:1057400000BF69E72DE9FC4104460027B846F84848
:10575000007810F0040F40D0207C022806D1F549D3
:10576000A06D096888420FD101270DE0F249606AF7
:105770000968081A08D4218D606A0844EE4909684E
:10578000081A002800DC0127002F20D000BF00BF2E
:1057900000BF207C50B900BFAFF2F85340F2252281
:1057A000E6A1AFF2B05005F01DF800BF00BFEB4816
:1057B000007840F00800E949087094F8220020F0D1
:1057C000010084F822006FF00500BDE8FC8100BFF5
:1057D00000BF00BF00BF0020F7E7D548007810F0F9
:1057E000020F12D0207C02280FD0207C03280CD07E
:1057F00000BF94F8220040F0020084F82200204606
:1058000001F0DFFB00BF0020DFE7D5480068206320
:10581000002084F89D002046FFF7D4FE207C801EE7
:1058200008287ED2DFE800F004A9FCFBFAF9F8F7BB
:1058300000BF00BFBE48007810F0100F72D0BC4807
:10584000007810F0020F7CD0A16F0969486802F05F
:1058500080FD401CB7490968884272D1B4F86E00D7
:10586000401CA4F86E00B4480068401C6062606A86
:10587000E062B0480068E064BA480068C089A4F8F3
:105880005C00AD480068401E206604202074208F14
:10589000211DFFF793F82087208F00EB8000400444
:1058A000000CA4F85400B4F85200012802D1208F53
:1058B000400000E0208FA4F8520000BFB4F8700050
:1058C00000280ADC00BFAFF2247340F25722A6A1E1
:1058D000AFF2E06004F086FF00BF00BFB4F87000D4
:1058E000401EA4F8700000BF00BFA56F2868A06725
:1058F000A06F18B94FF0FF30E08603E00020E0868B
:1059000084F84A002846FEF70FFA00BFD4F8880052
:1059100048B100222146D4F8883060699847804613
:1059200003E01EE20DE04FF0000800BF00BF94F856
:10593000220040F0020084F82200204601F041FBE2
:105940001AE07B48007810F0100F15D085480068E9
:1059500003888448006842887748CDE900230068BE
:10596000874A12888118874803680C33026810320E
:105970007048006801F05FFCF4E16D48007810F0B9
:10598000100F7CD0E06C00F101006A490968081A28
:105990005DD46849A06D0968081A002857DC042006
:1059A000207400BF00BF00BFE06950B900BFAFF670
:1059B0000C034FF41F7274A1AFF2C87004F012FF11
:1059C00000BF00BF00BFE06930B100222146E3699B
:1059D00060699847804601E04FF0000800BFB8F1C9
:1059E000000F06D001212046FEF73EFE6FF00400B6
:1059F000EBE6B4F852602046FFF7C6F9B4F86C0045
:105A000020B1B4F86C00401EA4F86C00012E08D13F
:105A1000208F400006E08EE14AE13FE0FFE054E0E5
:105A20003DE0208FA4F852004C48007810F0200F81
:105A30000CD000BF94F8220040F0020084F822004D
:105A4000204601F0BEFA00BF0720207425E045483B
:105A5000006803884348006842883748CDE900233E
:105A60000068474A12888118464803680C33026868
:105A700010323048006801F0DEFB0EE0FFE72C48F2
:105A8000007810F0020F08D0606A401E2A490968A9
:105A9000884202D1204601F062FC63E100BF20464B
:105AA000FFF772F92D48007810F0200F0CD000BFDE
:105AB00094F8220040F0020084F82200204601F011
:105AC00080FA00BF072020744CE12046FFF75CF904
:105AD0002248007810F0200F29D01548007810F0E7
